{
  "address": "0x18D8Ae131191811931a6448994ec074d7a25e150",
  "abi": [
    {
      "inputs": [
        {
          "components": [
            {
              "internalType": "uint256",
              "name": "feeGrowthInsideLast",
              "type": "uint256"
            },
            {
              "internalType": "uint256",
              "name": "feeGrowthOutsideLower",
              "type": "uint256"
            },
            {
              "internalType": "uint256",
              "name": "feeGrowthOutsideUpper",
              "type": "uint256"
            },
            {
              "internalType": "uint256",
              "name": "feeGrowthGlobal",
              "type": "uint256"
            },
            {
              "internalType": "uint128",
              "name": "liquidity",
              "type": "uint128"
            },
            {
              "internalType": "int24",
              "name": "tick",
              "type": "int24"
            },
            {
              "internalType": "int24",
              "name": "lowerTick",
              "type": "int24"
            },
            {
              "internalType": "int24",
              "name": "upperTick",
              "type": "int24"
            },
            {
              "internalType": "uint256",
              "name": "performanceFee",
              "type": "uint256"
            }
          ],
          "internalType": "struct CalculateFeesParams",
          "name": "params",
          "type": "tuple"
        }
      ],
      "name": "calculateFees",
      "outputs": [
        {
          "internalType": "uint256",
          "name": "res",
          "type": "uint256"
        }
      ],
      "stateMutability": "pure",
      "type": "function"
    },
    {
      "inputs": [
        {
          "components": [
            {
              "internalType": "int24",
              "name": "lowerTick",
              "type": "int24"
            },
            {
              "internalType": "int24",
              "name": "upperTick",
              "type": "int24"
            },
            {
              "internalType": "address",
              "name": "poolAddress",
              "type": "address"
            },
            {
              "internalType": "address",
              "name": "vaultAddress",
              "type": "address"
            },
            {
              "internalType": "uint256",
              "name": "performanceFee",
              "type": "uint256"
            }
          ],
          "internalType": "struct GetFeesParams",
          "name": "params",
          "type": "tuple"
        }
      ],
      "name": "getFees",
      "outputs": [
        {
          "components": [
            {
              "internalType": "uint256",
              "name": "amount0",
              "type": "uint256"
            },
            {
              "internalType": "uint256",
              "name": "amount1",
              "type": "uint256"
            },
            {
              "internalType": "uint256",
              "name": "fees0",
              "type": "uint256"
            },
            {
              "internalType": "uint256",
              "name": "fees1",
              "type": "uint256"
            },
            {
              "internalType": "uint256",
              "name": "total0",
              "type": "uint256"
            },
            {
              "internalType": "uint256",
              "name": "total1",
              "type": "uint256"
            }
          ],
          "internalType": "struct PositionAmounts",
          "name": "positionAmounts",
          "type": "tuple"
        }
      ],
      "stateMutability": "view",
      "type": "function"
    },
    {
      "inputs": [
        {
          "internalType": "address",
          "name": "vaultAddress",
          "type": "address"
        }
      ],
      "name": "getVaultPositions",
      "outputs": [
        {
          "components": [
            {
              "internalType": "uint256",
              "name": "amount0",
              "type": "uint256"
            },
            {
              "internalType": "uint256",
              "name": "amount1",
              "type": "uint256"
            },
            {
              "internalType": "uint256",
              "name": "fees0",
              "type": "uint256"
            },
            {
              "internalType": "uint256",
              "name": "fees1",
              "type": "uint256"
            },
            {
              "internalType": "uint256",
              "name": "total0",
              "type": "uint256"
            },
            {
              "internalType": "uint256",
              "name": "total1",
              "type": "uint256"
            }
          ],
          "internalType": "struct PositionAmounts[3]",
          "name": "results",
          "type": "tuple[3]"
        },
        {
          "internalType": "uint256",
          "name": "balance0",
          "type": "uint256"
        },
        {
          "internalType": "uint256",
          "name": "balance1",
          "type": "uint256"
        }
      ],
      "stateMutability": "view",
      "type": "function"
    }
  ],
  "transactionHash": "0xc8bb6087ebf084d5036f490c6fe105447bc0d22abc6951c264870134931c41ee",
  "args": [],
  "numDeployments": 5,
  "solcInputHash": "932423981b8d3e9b2fcc77d2161eed25",
  "bytecode": "0x608060405234801561001057600080fd5b506115ca806100206000396000f3fe608060405234801561001057600080fd5b50600436106100415760003560e01c80633359a83114610046578063580208631461006f578063f1c37b4614610091575b600080fd5b610059610054366004611247565b6100b1565b6040516100669190611520565b60405180910390f35b61008261007d36600461115b565b6104bf565b604051610066939291906114bf565b6100a461009f3660046111af565b610a5b565b6040516100669190611509565b6100b96110bb565b600082604001519050600080826001600160a01b0316633850c7bd6040518163ffffffff1660e01b815260040160e06040518083038186803b1580156100fe57600080fd5b505afa158015610112573d6000803e3d6000fd5b505050506040513d601f19601f8201168201806040525081019061013691906113dc565b5050505050915091506000610158866060015187600001518860200151610b04565b90506000806000866001600160a01b031663514ea4bf856040518263ffffffff1660e01b815260040161018b9190611509565b60a06040518083038186803b1580156101a357600080fd5b505afa1580156101b7573d6000803e3d6000fd5b505050506040513d601f19601f820116820180604052508101906101db919061137b565b50508b5160405163f30dba9360e01b8152939650919450925060009182916001600160a01b038b169163f30dba939161021691600401611512565b6101006040518083038186803b15801561022f57600080fd5b505afa158015610243573d6000803e3d6000fd5b505050506040513d601f19601f8201168201806040525081019061026791906112d1565b505050509350935050506000808a6001600160a01b031663f30dba938e602001516040518263ffffffff1660e01b81526004016102a49190611512565b6101006040518083038186803b1580156102bd57600080fd5b505afa1580156102d1573d6000803e3d6000fd5b505050506040513d601f19601f820116820180604052508101906102f591906112d1565b5050505093509350505060006040518061012001604052808881526020018681526020018481526020018d6001600160a01b031663f30583996040518163ffffffff1660e01b815260040160206040518083038186803b15801561035857600080fd5b505afa15801561036c573d6000803e3d6000fd5b505050506040513d601f19601f82011682018060405250810190610390919061146d565b8152602001896001600160801b031681526020018b60020b81526020018f6000015160020b81526020018f6020015160020b81526020018f6080015181525090506103da81610a5b565b8d60400181815250508b6001600160a01b031663461413196040518163ffffffff1660e01b815260040160206040518083038186803b15801561041c57600080fd5b505afa158015610430573d6000803e3d6000fd5b505050506040513d601f19601f82011682018060405250810190610454919061146d565b6040820183905260208201859052868252606082015261047381610a5b565b60608e01528d5160208f015161048b91908a8e610b5e565b60208f01819052818f5260408f015190910160808f015260608e01510160a08e0152509a9c9b505050505050505050505050565b6104c76110f1565b60008060008490506000816001600160a01b03166316f0115b6040518163ffffffff1660e01b815260040160206040518083038186803b15801561050a57600080fd5b505afa15801561051e573d6000803e3d6000fd5b505050506040513d601f19601f820116820180604052508101906105429190611177565b905060006040518060a00160405280846001600160a01b031663ebaf2d3b6040518163ffffffff1660e01b815260040160206040518083038186803b15801561058a57600080fd5b505afa15801561059e573d6000803e3d6000fd5b505050506040513d601f19601f820116820180604052508101906105c29190611193565b60020b8152602001846001600160a01b0316636c3958216040518163ffffffff1660e01b815260040160206040518083038186803b15801561060357600080fd5b505afa158015610617573d6000803e3d6000fd5b505050506040513d601f19601f8201168201806040525081019061063b9190611193565b60020b8152602001836001600160a01b03168152602001886001600160a01b03168152602001846001600160a01b031663b0e21e8a6040518163ffffffff1660e01b815260040160206040518083038186803b15801561069a57600080fd5b505afa1580156106ae573d6000803e3d6000fd5b505050506040513d601f19601f820116820180604052508101906106d2919061146d565b856001600160a01b0316639c7632fc6040518163ffffffff1660e01b815260040160206040518083038186803b15801561070b57600080fd5b505afa15801561071f573d6000803e3d6000fd5b505050506040513d601f19601f82011682018060405250810190610743919061146d565b0190529050610751816100b1565b86526040805163fa08274360e01b815290516001600160a01b0385169163fa082743916004808301926020929190829003018186803b15801561079357600080fd5b505afa1580156107a7573d6000803e3d6000fd5b505050506040513d601f19601f820116820180604052508101906107cb9190611193565b836001600160a01b031663888a91346040518163ffffffff1660e01b815260040160206040518083038186803b15801561080457600080fd5b505afa158015610818573d6000803e3d6000fd5b505050506040513d601f19601f8201168201806040525081019061083c9190611193565b600290810b810b602084015290810b900b8152610858816100b1565b8660016020020181905250826001600160a01b03166351e87af76040518163ffffffff1660e01b815260040160206040518083038186803b15801561089c57600080fd5b505afa1580156108b0573d6000803e3d6000fd5b505050506040513d601f19601f820116820180604052508101906108d49190611193565b836001600160a01b0316630f35bcac6040518163ffffffff1660e01b815260040160206040518083038186803b15801561090d57600080fd5b505afa158015610921573d6000803e3d6000fd5b505050506040513d601f19601f820116820180604052508101906109459190611193565b600290810b810b602084015290810b900b8152610961816100b1565b8660026020020181905250826001600160a01b031663629d94056040518163ffffffff1660e01b815260040160206040518083038186803b1580156109a557600080fd5b505afa1580156109b9573d6000803e3d6000fd5b505050506040513d601f19601f820116820180604052508101906109dd919061146d565b836001600160a01b03166341aec5386040518163ffffffff1660e01b815260040160206040518083038186803b158015610a1657600080fd5b505afa158015610a2a573d6000803e3d6000fd5b505050506040513d601f19601f82011682018060405250810190610a4e919061146d565b9698909750945050505050565b6000808260c0015160020b8360a0015160020b1215610a84578260200151836060015103610a8a565b82602001515b905060008360e0015160020b8460a0015160020b12610ab3578360400151846060015103610ab9565b83604001515b9050610ae584608001516001600160801b0316856000015183858860600151030303600160801b610b8b565b9250610afa83856101000151620f4240610b8b565b9092039392505050565b604080516bffffffffffffffffffffffff19606086901b16602080830191909152600285810b60e890811b60348501529085900b901b60378301528251601a818403018152603a90920190925280519101205b9392505050565b600080610b7d83610b6e88610c3a565b610b7788610c3a565b87610f6c565b915091505b94509492505050565b6000808060001985870986860292508281109083900303905080610bc15760008411610bb657600080fd5b508290049050610b57565b808411610bcd57600080fd5b6000848688096000868103871696879004966002600389028118808a02820302808a02820302808a02820302808a02820302808a02820302808a02909103029181900381900460010186841190950394909402919094039290920491909117919091029150509392505050565b60008060008360020b12610c51578260020b610c59565b8260020b6000035b9050620d89e8811115610c97576040805162461bcd60e51b81526020600482015260016024820152601560fa1b604482015290519081900360640190fd5b600060018216610cab57600160801b610cbd565b6ffffcb933bd6fad37aa2d162d1a5940015b70ffffffffffffffffffffffffffffffffff1690506002821615610cf1576ffff97272373d413259a46990580e213a0260801c5b6004821615610d10576ffff2e50f5f656932ef12357cf3c7fdcc0260801c5b6008821615610d2f576fffe5caca7e10e4e61c3624eaa0941cd00260801c5b6010821615610d4e576fffcb9843d60f6159c9db58835c9266440260801c5b6020821615610d6d576fff973b41fa98c081472e6896dfb254c00260801c5b6040821615610d8c576fff2ea16466c96a3843ec78b326b528610260801c5b6080821615610dab576ffe5dee046a99a2a811c461f1969c30530260801c5b610100821615610dcb576ffcbe86c7900a88aedcffc83b479aa3a40260801c5b610200821615610deb576ff987a7253ac413176f2b074cf7815e540260801c5b610400821615610e0b576ff3392b0822b70005940c7a398e4b70f30260801c5b610800821615610e2b576fe7159475a2c29b7443b29c7fa6e889d90260801c5b611000821615610e4b576fd097f3bdfd2022b8845ad8f792aa58250260801c5b612000821615610e6b576fa9f746462d870fdf8a65dc1f90e061e50260801c5b614000821615610e8b576f70d869a156d2a1b890bb3df62baf32f70260801c5b618000821615610eab576f31be135f97d08fd981231505542fcfa60260801c5b62010000821615610ecc576f09aa508b5b7a84e1c677de54f3e99bc90260801c5b62020000821615610eec576e5d6af8dedb81196699c329225ee6040260801c5b62040000821615610f0b576d2216e584f5fa1ea926041bedfe980260801c5b62080000821615610f28576b048a170391f7dc42444e8fa20260801c5b60008460020b1315610f43578060001981610f3f57fe5b0490505b640100000000810615610f57576001610f5a565b60005b60ff16602082901c0192505050919050565b600080836001600160a01b0316856001600160a01b03161115610f8d579293925b846001600160a01b0316866001600160a01b031611610fb857610fb1858585611007565b9150610b82565b836001600160a01b0316866001600160a01b03161015610ff157610fdd868585611007565b9150610fea858785611070565b9050610b82565b610ffc858585611070565b905094509492505050565b6000826001600160a01b0316846001600160a01b03161115611027579192915b836001600160a01b0316611060606060ff16846001600160801b0316901b8686036001600160a01b0316866001600160a01b0316610b8b565b8161106757fe5b04949350505050565b6000826001600160a01b0316846001600160a01b03161115611090579192915b6110b3826001600160801b03168585036001600160a01b0316600160601b610b8b565b949350505050565b6040518060c001604052806000815260200160008152602001600081526020016000815260200160008152602001600081525090565b60405180606001604052806003905b6111086110bb565b8152602001906001900390816111005790505090565b8051801515811461112e57600080fd5b919050565b803561112e81611570565b803561112e8161157f565b805161ffff8116811461112e57600080fd5b60006020828403121561116c578081fd5b8135610b5781611558565b600060208284031215611188578081fd5b8151610b5781611558565b6000602082840312156111a4578081fd5b8151610b5781611570565b60006101208083850312156111c2578182fd5b6111cb81611534565b9050823581526020830135602082015260408301356040820152606083013560608201526111fb6080840161113e565b608082015261120c60a08401611133565b60a082015261121d60c08401611133565b60c082015261122e60e08401611133565b60e0820152610100928301359281019290925250919050565b600060a08284031215611258578081fd5b60405160a0810181811067ffffffffffffffff8211171561127557fe5b604052823561128381611570565b8152602083013561129381611570565b602082015260408301356112a681611558565b604082015260608301356112b981611558565b60608201526080928301359281019290925250919050565b600080600080600080600080610100898b0312156112ed578384fd5b88516112f88161157f565b80985050602089015180600f0b811461130f578485fd5b80975050604089015195506060890151945060808901518060060b8114611334578485fd5b60a08a015190945061134581611558565b60c08a015190935063ffffffff8116811461135e578283fd5b915061136c60e08a0161111e565b90509295985092959890939650565b600080600080600060a08688031215611392578081fd5b855161139d8161157f565b80955050602086015193506040860151925060608601516113bd8161157f565b60808701519092506113ce8161157f565b809150509295509295909350565b600080600080600080600060e0888a0312156113f6578081fd5b875161140181611558565b602089015190975061141281611570565b955061142060408901611149565b945061142e60608901611149565b935061143c60808901611149565b925060a088015160ff81168114611451578182fd5b915061145f60c0890161111e565b905092959891949750929550565b60006020828403121561147e578081fd5b5051919050565b805182526020810151602083015260408101516040830152606081015160608301526080810151608083015260a081015160a08301525050565b6102808101818560005b60038110156114f3576114dd838351611485565b60c09290920191602091909101906001016114c9565b5050506102408201939093526102600152919050565b90815260200190565b60029190910b815260200190565b60c0810161152e8284611485565b92915050565b60405181810167ffffffffffffffff8111828210171561155057fe5b604052919050565b6001600160a01b038116811461156d57600080fd5b50565b8060020b811461156d57600080fd5b6001600160801b038116811461156d57600080fdfea26469706673582212207b37e68e3ee2788a0e3efcf2b0e7d1b7ec2dd0afd5049a0307523c72bafd5bcb64736f6c63430007060033",
  "devdoc": {
    "kind": "dev",
    "methods": {},
    "version": 1
  },
  "userdoc": {
    "kind": "user",
    "methods": {},
    "version": 1
  },
  "storageLayout": {
    "storage": [],
    "types": null
  }
}