{
  "address": "0xaB55f7c3C13c564059f469b744f2bF5D12F3a152",
  "abi": [
    {
      "anonymous": false,
      "inputs": [
        {
          "indexed": true,
          "internalType": "address",
          "name": "managerAddress",
          "type": "address"
        }
      ],
      "name": "ManagerAuthorized",
      "type": "event"
    },
    {
      "anonymous": false,
      "inputs": [
        {
          "indexed": true,
          "internalType": "address",
          "name": "managerAddress",
          "type": "address"
        },
        {
          "indexed": false,
          "internalType": "string",
          "name": "ipfsHash",
          "type": "string"
        }
      ],
      "name": "ManagerRegistered",
      "type": "event"
    },
    {
      "anonymous": false,
      "inputs": [
        {
          "indexed": true,
          "internalType": "address",
          "name": "managerAddress",
          "type": "address"
        }
      ],
      "name": "ManagerRemoved",
      "type": "event"
    },
    {
      "anonymous": false,
      "inputs": [
        {
          "indexed": true,
          "internalType": "address",
          "name": "previousOwner",
          "type": "address"
        },
        {
          "indexed": true,
          "internalType": "address",
          "name": "newOwner",
          "type": "address"
        }
      ],
      "name": "OwnershipTransferred",
      "type": "event"
    },
    {
      "inputs": [
        {
          "internalType": "uint256",
          "name": "",
          "type": "uint256"
        }
      ],
      "name": "allManagers",
      "outputs": [
        {
          "internalType": "address",
          "name": "",
          "type": "address"
        }
      ],
      "stateMutability": "view",
      "type": "function"
    },
    {
      "inputs": [
        {
          "internalType": "address",
          "name": "managerAddress",
          "type": "address"
        }
      ],
      "name": "authorizeManager",
      "outputs": [],
      "stateMutability": "nonpayable",
      "type": "function"
    },
    {
      "inputs": [
        {
          "internalType": "uint256",
          "name": "",
          "type": "uint256"
        }
      ],
      "name": "authorizedManagers",
      "outputs": [
        {
          "internalType": "address",
          "name": "",
          "type": "address"
        }
      ],
      "stateMutability": "view",
      "type": "function"
    },
    {
      "inputs": [
        {
          "internalType": "address",
          "name": "managerAddress",
          "type": "address"
        }
      ],
      "name": "deauthorizeManager",
      "outputs": [],
      "stateMutability": "nonpayable",
      "type": "function"
    },
    {
      "inputs": [],
      "name": "getAllAuthorizedManagers",
      "outputs": [
        {
          "internalType": "address[]",
          "name": "",
          "type": "address[]"
        }
      ],
      "stateMutability": "view",
      "type": "function"
    },
    {
      "inputs": [],
      "name": "getAllAuthorizedManagersWithHashes",
      "outputs": [
        {
          "components": [
            {
              "internalType": "address",
              "name": "managerAddress",
              "type": "address"
            },
            {
              "internalType": "string",
              "name": "ipfsHash",
              "type": "string"
            },
            {
              "internalType": "bool",
              "name": "isAuthorized",
              "type": "bool"
            }
          ],
          "internalType": "struct ManagerStore.Manager[]",
          "name": "",
          "type": "tuple[]"
        }
      ],
      "stateMutability": "view",
      "type": "function"
    },
    {
      "inputs": [],
      "name": "getAllManagers",
      "outputs": [
        {
          "internalType": "address[]",
          "name": "",
          "type": "address[]"
        }
      ],
      "stateMutability": "view",
      "type": "function"
    },
    {
      "inputs": [],
      "name": "getAllManagersWithHashes",
      "outputs": [
        {
          "components": [
            {
              "internalType": "address",
              "name": "managerAddress",
              "type": "address"
            },
            {
              "internalType": "string",
              "name": "ipfsHash",
              "type": "string"
            },
            {
              "internalType": "bool",
              "name": "isAuthorized",
              "type": "bool"
            }
          ],
          "internalType": "struct ManagerStore.Manager[]",
          "name": "",
          "type": "tuple[]"
        }
      ],
      "stateMutability": "view",
      "type": "function"
    },
    {
      "inputs": [
        {
          "internalType": "address",
          "name": "",
          "type": "address"
        }
      ],
      "name": "managersMap",
      "outputs": [
        {
          "internalType": "address",
          "name": "managerAddress",
          "type": "address"
        },
        {
          "internalType": "string",
          "name": "ipfsHash",
          "type": "string"
        },
        {
          "internalType": "bool",
          "name": "isAuthorized",
          "type": "bool"
        }
      ],
      "stateMutability": "view",
      "type": "function"
    },
    {
      "inputs": [],
      "name": "owner",
      "outputs": [
        {
          "internalType": "address",
          "name": "",
          "type": "address"
        }
      ],
      "stateMutability": "view",
      "type": "function"
    },
    {
      "inputs": [
        {
          "internalType": "string",
          "name": "ipfsHash",
          "type": "string"
        }
      ],
      "name": "registerManager",
      "outputs": [],
      "stateMutability": "nonpayable",
      "type": "function"
    },
    {
      "inputs": [],
      "name": "renounceOwnership",
      "outputs": [],
      "stateMutability": "nonpayable",
      "type": "function"
    },
    {
      "inputs": [
        {
          "internalType": "address",
          "name": "newOwner",
          "type": "address"
        }
      ],
      "name": "transferOwnership",
      "outputs": [],
      "stateMutability": "nonpayable",
      "type": "function"
    }
  ],
  "transactionHash": "0x1a3455a8ac8bb8e6ae75a76059c62b0924f3dee93d02e93f14a5869c1daaedca",
  "args": [],
  "numDeployments": 7,
  "solcInputHash": "818e81bca9fa556eee40ea8d9d52008d",
  "bytecode": "0x608060405234801561001057600080fd5b50600061001b61006a565b600080546001600160a01b0319166001600160a01b0383169081178255604051929350917f8be0079c531659141344cd1fd0a4f28419497f9722a3daafe3b4186f6b6457e0908290a35061006e565b3390565b61111d8061007d6000396000f3fe608060405234801561001057600080fd5b50600436106100ce5760003560e01c80636ec1cb9c1161008c5780638da5cb5b116100665780638da5cb5b1461019e578063c75c4701146101a6578063e6671871146101ae578063f2fde38b146101b6576100ce565b80636ec1cb9c1461015f578063715018a614610174578063793f3f711461017c576100ce565b8062e2d85c146100d35780630305ea01146100e857806303ebb149146100fb5780630adbb5b814610124578063267c8507146101395780634d09736f1461014c575b600080fd5b6100e66100e1366004610dd6565b6101c9565b005b6100e66100f6366004610da8565b61030e565b61010e610109366004610e6b565b610512565b60405161011b9190610ece565b60405180910390f35b61012c61053c565b60405161011b9190610f18565b6100e6610147366004610da8565b61059e565b61010e61015a366004610e6b565b6106f1565b610167610701565b60405161011b9190610f65565b6100e6610883565b61018f61018a366004610da8565b61092f565b60405161011b93929190610ee2565b61010e6109eb565b6101676109fa565b61012c610b75565b6100e66101c4366004610da8565b610bd5565b336000818152600160205260409020546001600160a01b03161461022e57600380546001810182556000919091527fc2575a0e9e593c00f959f8c92f12db2869c3395a3b0502d05e2516446f71f85b0180546001600160a01b03191633179055610258565b3360009081526001602081905260409091206002015460ff1615151415610258576102583361030e565b604080516060810182523380825260208083018581526000848601819052928352600180835294909220835181546001600160a01b0319166001600160a01b0390911617815591518051939492936102b7938501929190910190610cdb565b50604091820151600291909101805460ff19169115159190911790555133907f24db4dc8e6d7afffaaaa58c251c33b63f2a7880d0adceaf48986bc0e51e1daa490610303908490610ff0565b60405180910390a250565b610316610cd7565b6001600160a01b03166103276109eb565b6001600160a01b031614610370576040805162461bcd60e51b815260206004820181905260248201526000805160206110c8833981519152604482015290519081900360640190fd5b6001600160a01b03811661039f5760405162461bcd60e51b815260040161039690611033565b60405180910390fd5b6001600160a01b03811660009081526001602052604090206002015460ff166103da5760405162461bcd60e51b815260040161039690611003565b6001600160a01b0381166000908152600160205260408120600201805460ff191690555b6002548110156104da57816001600160a01b03166002828154811061041f57fe5b6000918252602090912001546001600160a01b031614156104d25760028054600019810190811061044c57fe5b600091825260209091200154600280546001600160a01b03909216918390811061047257fe5b9060005260206000200160006101000a8154816001600160a01b0302191690836001600160a01b0316021790555060028054806104ab57fe5b600082815260209020810160001990810180546001600160a01b03191690550190556104da565b6001016103fe565b506040516001600160a01b038216907fef69f7d97228658c92417be1b16b19058315de71fecb435d07b7d23728b6bd3190600090a250565b6002818154811061052257600080fd5b6000918252602090912001546001600160a01b0316905081565b6060600280548060200260200160405190810160405280929190818152602001828054801561059457602002820191906000526020600020905b81546001600160a01b03168152600190910190602001808311610576575b5050505050905090565b6105a6610cd7565b6001600160a01b03166105b76109eb565b6001600160a01b031614610600576040805162461bcd60e51b815260206004820181905260248201526000805160206110c8833981519152604482015290519081900360640190fd5b6001600160a01b0381166106265760405162461bcd60e51b815260040161039690611033565b6001600160a01b03811660009081526001602052604090206002015460ff16156106625760405162461bcd60e51b81526004016103969061106a565b6001600160a01b03811660008181526001602081905260408083206002908101805460ff1916841790558054928301815583527f405787fa12a823e0f2b7631cc41b3ba8828b3321ca811111fa75cd3aa3bb5ace90910180546001600160a01b03191684179055517f7928c1bf496af53c7b052b3452a910ddebbe58956f6218faff73b8274cae2e0c9190a250565b6003818154811061052257600080fd5b60025460609060008167ffffffffffffffff8111801561072057600080fd5b5060405190808252806020026020018201604052801561075a57816020015b610747610d67565b81526020019060019003908161073f5790505b50905060005b8281101561087c57600160006002838154811061077957fe5b60009182526020808320909101546001600160a01b039081168452838201949094526040928301909120825160608101845281549094168452600181810180548551601f6002600019958416156101000295909501909216939093049081018590048502830185019095528482529193858401939192918301828280156108415780601f1061081657610100808354040283529160200191610841565b820191906000526020600020905b81548152906001019060200180831161082457829003601f168201915b50505091835250506002919091015460ff161515602090910152825183908390811061086957fe5b6020908102919091010152600101610760565b5091505090565b61088b610cd7565b6001600160a01b031661089c6109eb565b6001600160a01b0316146108e5576040805162461bcd60e51b815260206004820181905260248201526000805160206110c8833981519152604482015290519081900360640190fd5b600080546040516001600160a01b03909116907f8be0079c531659141344cd1fd0a4f28419497f9722a3daafe3b4186f6b6457e0908390a3600080546001600160a01b0319169055565b600160208181526000928352604092839020805481840180548651600261010097831615979097026000190190911695909504601f81018590048502860185019096528585526001600160a01b03909116949193929091908301828280156109d85780601f106109ad576101008083540402835291602001916109d8565b820191906000526020600020905b8154815290600101906020018083116109bb57829003601f168201915b5050506002909301549192505060ff1683565b6000546001600160a01b031690565b60035460609060008167ffffffffffffffff81118015610a1957600080fd5b50604051908082528060200260200182016040528015610a5357816020015b610a40610d67565b815260200190600190039081610a385790505b50905060005b8281101561087c576001600060038381548110610a7257fe5b60009182526020808320909101546001600160a01b039081168452838201949094526040928301909120825160608101845281549094168452600181810180548551601f600260001995841615610100029590950190921693909304908101859004850283018501909552848252919385840193919291830182828015610b3a5780601f10610b0f57610100808354040283529160200191610b3a565b820191906000526020600020905b815481529060010190602001808311610b1d57829003601f168201915b50505091835250506002919091015460ff1615156020909101528251839083908110610b6257fe5b6020908102919091010152600101610a59565b60606003805480602002602001604051908101604052809291908181526020018280548015610594576020028201919060005260206000209081546001600160a01b03168152600190910190602001808311610576575050505050905090565b610bdd610cd7565b6001600160a01b0316610bee6109eb565b6001600160a01b031614610c37576040805162461bcd60e51b815260206004820181905260248201526000805160206110c8833981519152604482015290519081900360640190fd5b6001600160a01b038116610c7c5760405162461bcd60e51b81526004018080602001828103825260268152602001806110a26026913960400191505060405180910390fd5b600080546040516001600160a01b03808516939216917f8be0079c531659141344cd1fd0a4f28419497f9722a3daafe3b4186f6b6457e091a3600080546001600160a01b0319166001600160a01b0392909216919091179055565b3390565b828054600181600116156101000203166002900490600052602060002090601f016020900481019282610d115760008555610d57565b82601f10610d2a57805160ff1916838001178555610d57565b82800160010185558215610d57579182015b82811115610d57578251825591602001919060010190610d3c565b50610d63929150610d93565b5090565b604051806060016040528060006001600160a01b03168152602001606081526020016000151581525090565b5b80821115610d635760008155600101610d94565b600060208284031215610db9578081fd5b81356001600160a01b0381168114610dcf578182fd5b9392505050565b60006020808385031215610de8578182fd5b823567ffffffffffffffff80821115610dff578384fd5b818501915085601f830112610e12578384fd5b813581811115610e1e57fe5b604051601f8201601f1916810185018381118282101715610e3b57fe5b6040528181528382018501881015610e51578586fd5b818585018683013790810190930193909352509392505050565b600060208284031215610e7c578081fd5b5035919050565b60008151808452815b81811015610ea857602081850181015186830182015201610e8c565b81811115610eb95782602083870101525b50601f01601f19169290920160200192915050565b6001600160a01b0391909116815260200190565b6001600160a01b0384168152606060208201819052600090610f0690830185610e83565b90508215156040830152949350505050565b6020808252825182820181905260009190848201906040850190845b81811015610f595783516001600160a01b031683529284019291840191600101610f34565b50909695505050505050565b60208082528251828201819052600091906040908185019080840286018301878501865b83811015610fe257888303603f19018552815180516001600160a01b0316845287810151606089860181905290610fc282870182610e83565b928901511515958901959095525094870194925090860190600101610f89565b509098975050505050505050565b600060208252610dcf6020830184610e83565b60208082526016908201527513585b9859d95c881b9bdd08185d5d1a1bdc9a5e995960521b604082015260600190565b60208082526017908201527f496e76616c6964206d616e616765722061646472657373000000000000000000604082015260600190565b6020808252601a908201527f4d616e6167657220616c726561647920617574686f72697a656400000000000060408201526060019056fe4f776e61626c653a206e6577206f776e657220697320746865207a65726f20616464726573734f776e61626c653a2063616c6c6572206973206e6f7420746865206f776e6572a26469706673582212203b09c9fa94082ae28669e7412f6b1fe58483b779c6bb75ceecbe6264b8a6d4af64736f6c63430007060033",
  "devdoc": {
    "kind": "dev",
    "methods": {
      "owner()": {
        "details": "Returns the address of the current owner."
      },
      "renounceOwnership()": {
        "details": "Leaves the contract without owner. It will not be possible to call `onlyOwner` functions anymore. Can only be called by the current owner. NOTE: Renouncing ownership will leave the contract without an owner, thereby removing any functionality that is only available to the owner."
      },
      "transferOwnership(address)": {
        "details": "Transfers ownership of the contract to a new account (`newOwner`). Can only be called by the current owner."
      }
    },
    "version": 1
  },
  "userdoc": {
    "kind": "user",
    "methods": {},
    "version": 1
  },
  "storageLayout": {
    "storage": [
      {
        "astId": 7,
        "contract": "contracts/ManagerStore.sol:ManagerStore",
        "label": "_owner",
        "offset": 0,
        "slot": "0",
        "type": "t_address"
      },
      {
        "astId": 1085,
        "contract": "contracts/ManagerStore.sol:ManagerStore",
        "label": "managersMap",
        "offset": 0,
        "slot": "1",
        "type": "t_mapping(t_address,t_struct(Manager)1081_storage)"
      },
      {
        "astId": 1088,
        "contract": "contracts/ManagerStore.sol:ManagerStore",
        "label": "authorizedManagers",
        "offset": 0,
        "slot": "2",
        "type": "t_array(t_address)dyn_storage"
      },
      {
        "astId": 1091,
        "contract": "contracts/ManagerStore.sol:ManagerStore",
        "label": "allManagers",
        "offset": 0,
        "slot": "3",
        "type": "t_array(t_address)dyn_storage"
      }
    ],
    "types": {
      "t_address": {
        "encoding": "inplace",
        "label": "address",
        "numberOfBytes": "20"
      },
      "t_array(t_address)dyn_storage": {
        "base": "t_address",
        "encoding": "dynamic_array",
        "label": "address[]",
        "numberOfBytes": "32"
      },
      "t_bool": {
        "encoding": "inplace",
        "label": "bool",
        "numberOfBytes": "1"
      },
      "t_mapping(t_address,t_struct(Manager)1081_storage)": {
        "encoding": "mapping",
        "key": "t_address",
        "label": "mapping(address => struct ManagerStore.Manager)",
        "numberOfBytes": "32",
        "value": "t_struct(Manager)1081_storage"
      },
      "t_string_storage": {
        "encoding": "bytes",
        "label": "string",
        "numberOfBytes": "32"
      },
      "t_struct(Manager)1081_storage": {
        "encoding": "inplace",
        "label": "struct ManagerStore.Manager",
        "members": [
          {
            "astId": 1076,
            "contract": "contracts/ManagerStore.sol:ManagerStore",
            "label": "managerAddress",
            "offset": 0,
            "slot": "0",
            "type": "t_address"
          },
          {
            "astId": 1078,
            "contract": "contracts/ManagerStore.sol:ManagerStore",
            "label": "ipfsHash",
            "offset": 0,
            "slot": "1",
            "type": "t_string_storage"
          },
          {
            "astId": 1080,
            "contract": "contracts/ManagerStore.sol:ManagerStore",
            "label": "isAuthorized",
            "offset": 0,
            "slot": "2",
            "type": "t_bool"
          }
        ],
        "numberOfBytes": "96"
      }
    }
  }
}