{
  "address": "0x1f048E850a7A1180389156FE25335d2bB75e0016",
  "abi": [
    {
      "anonymous": false,
      "inputs": [
        {
          "indexed": true,
          "internalType": "address",
          "name": "owner",
          "type": "address"
        },
        {
          "indexed": true,
          "internalType": "address",
          "name": "spender",
          "type": "address"
        },
        {
          "indexed": false,
          "internalType": "uint256",
          "name": "value",
          "type": "uint256"
        }
      ],
      "name": "Approval",
      "type": "event"
    },
    {
      "anonymous": false,
      "inputs": [
        {
          "indexed": false,
          "internalType": "uint256",
          "name": "feesToVault0",
          "type": "uint256"
        },
        {
          "indexed": false,
          "internalType": "uint256",
          "name": "feesToVault1",
          "type": "uint256"
        },
        {
          "indexed": false,
          "internalType": "uint256",
          "name": "feesToProtocol0",
          "type": "uint256"
        },
        {
          "indexed": false,
          "internalType": "uint256",
          "name": "feesToProtocol1",
          "type": "uint256"
        },
        {
          "indexed": false,
          "internalType": "uint256",
          "name": "feesToManager0",
          "type": "uint256"
        },
        {
          "indexed": false,
          "internalType": "uint256",
          "name": "feesToManager1",
          "type": "uint256"
        }
      ],
      "name": "CollectFees",
      "type": "event"
    },
    {
      "anonymous": false,
      "inputs": [
        {
          "indexed": false,
          "internalType": "uint256",
          "name": "amount0",
          "type": "uint256"
        },
        {
          "indexed": false,
          "internalType": "uint256",
          "name": "amount1",
          "type": "uint256"
        }
      ],
      "name": "CollectManager",
      "type": "event"
    },
    {
      "anonymous": false,
      "inputs": [
        {
          "indexed": false,
          "internalType": "uint256",
          "name": "amount0",
          "type": "uint256"
        },
        {
          "indexed": false,
          "internalType": "uint256",
          "name": "amount1",
          "type": "uint256"
        }
      ],
      "name": "CollectProtocol",
      "type": "event"
    },
    {
      "anonymous": false,
      "inputs": [
        {
          "indexed": true,
          "internalType": "address",
          "name": "sender",
          "type": "address"
        },
        {
          "indexed": true,
          "internalType": "address",
          "name": "to",
          "type": "address"
        },
        {
          "indexed": false,
          "internalType": "uint256",
          "name": "shares",
          "type": "uint256"
        },
        {
          "indexed": false,
          "internalType": "uint256",
          "name": "amount0",
          "type": "uint256"
        },
        {
          "indexed": false,
          "internalType": "uint256",
          "name": "amount1",
          "type": "uint256"
        }
      ],
      "name": "Deposit",
      "type": "event"
    },
    {
      "anonymous": false,
      "inputs": [
        {
          "indexed": false,
          "internalType": "int24",
          "name": "tick",
          "type": "int24"
        },
        {
          "indexed": false,
          "internalType": "uint256",
          "name": "totalAmount0",
          "type": "uint256"
        },
        {
          "indexed": false,
          "internalType": "uint256",
          "name": "totalAmount1",
          "type": "uint256"
        },
        {
          "indexed": false,
          "internalType": "uint256",
          "name": "totalSupply",
          "type": "uint256"
        }
      ],
      "name": "Snapshot",
      "type": "event"
    },
    {
      "anonymous": false,
      "inputs": [
        {
          "indexed": true,
          "internalType": "address",
          "name": "from",
          "type": "address"
        },
        {
          "indexed": true,
          "internalType": "address",
          "name": "to",
          "type": "address"
        },
        {
          "indexed": false,
          "internalType": "uint256",
          "name": "value",
          "type": "uint256"
        }
      ],
      "name": "Transfer",
      "type": "event"
    },
    {
      "anonymous": false,
      "inputs": [
        {
          "indexed": false,
          "internalType": "int24",
          "name": "threshold",
          "type": "int24"
        }
      ],
      "name": "UpdateBaseThreshold",
      "type": "event"
    },
    {
      "anonymous": false,
      "inputs": [
        {
          "indexed": false,
          "internalType": "uint256",
          "name": "weight",
          "type": "uint256"
        }
      ],
      "name": "UpdateFullRangeWeight",
      "type": "event"
    },
    {
      "anonymous": false,
      "inputs": [
        {
          "indexed": false,
          "internalType": "int24",
          "name": "threshold",
          "type": "int24"
        }
      ],
      "name": "UpdateLimitThreshold",
      "type": "event"
    },
    {
      "anonymous": false,
      "inputs": [
        {
          "indexed": false,
          "internalType": "address",
          "name": "manager",
          "type": "address"
        }
      ],
      "name": "UpdateManager",
      "type": "event"
    },
    {
      "anonymous": false,
      "inputs": [
        {
          "indexed": false,
          "internalType": "uint256",
          "name": "managerFee",
          "type": "uint256"
        }
      ],
      "name": "UpdateManagerFee",
      "type": "event"
    },
    {
      "anonymous": false,
      "inputs": [
        {
          "indexed": false,
          "internalType": "uint256",
          "name": "maxTotalSupply",
          "type": "uint256"
        }
      ],
      "name": "UpdateMaxTotalSupply",
      "type": "event"
    },
    {
      "anonymous": false,
      "inputs": [
        {
          "indexed": false,
          "internalType": "int24",
          "name": "maxTwapDeviation",
          "type": "int24"
        }
      ],
      "name": "UpdateMaxTwapDeviation",
      "type": "event"
    },
    {
      "anonymous": false,
      "inputs": [
        {
          "indexed": false,
          "internalType": "int24",
          "name": "minTickMove",
          "type": "int24"
        }
      ],
      "name": "UpdateMinTickMove",
      "type": "event"
    },
    {
      "anonymous": false,
      "inputs": [
        {
          "indexed": false,
          "internalType": "address",
          "name": "manager",
          "type": "address"
        }
      ],
      "name": "UpdatePendingManager",
      "type": "event"
    },
    {
      "anonymous": false,
      "inputs": [
        {
          "indexed": false,
          "internalType": "uint256",
          "name": "period",
          "type": "uint256"
        }
      ],
      "name": "UpdatePeriod",
      "type": "event"
    },
    {
      "anonymous": false,
      "inputs": [
        {
          "indexed": false,
          "internalType": "address",
          "name": "delegate",
          "type": "address"
        }
      ],
      "name": "UpdateRebalanceDelegate",
      "type": "event"
    },
    {
      "anonymous": false,
      "inputs": [
        {
          "indexed": false,
          "internalType": "uint32",
          "name": "twapDuration",
          "type": "uint32"
        }
      ],
      "name": "UpdateTwapDuration",
      "type": "event"
    },
    {
      "anonymous": false,
      "inputs": [
        {
          "indexed": true,
          "internalType": "address",
          "name": "sender",
          "type": "address"
        },
        {
          "indexed": true,
          "internalType": "address",
          "name": "to",
          "type": "address"
        },
        {
          "indexed": false,
          "internalType": "uint256",
          "name": "shares",
          "type": "uint256"
        },
        {
          "indexed": false,
          "internalType": "uint256",
          "name": "amount0",
          "type": "uint256"
        },
        {
          "indexed": false,
          "internalType": "uint256",
          "name": "amount1",
          "type": "uint256"
        }
      ],
      "name": "Withdraw",
      "type": "event"
    },
    {
      "inputs": [],
      "name": "acceptManager",
      "outputs": [],
      "stateMutability": "nonpayable",
      "type": "function"
    },
    {
      "inputs": [],
      "name": "accruedManagerFees0",
      "outputs": [
        {
          "internalType": "uint256",
          "name": "",
          "type": "uint256"
        }
      ],
      "stateMutability": "view",
      "type": "function"
    },
    {
      "inputs": [],
      "name": "accruedManagerFees1",
      "outputs": [
        {
          "internalType": "uint256",
          "name": "",
          "type": "uint256"
        }
      ],
      "stateMutability": "view",
      "type": "function"
    },
    {
      "inputs": [],
      "name": "accruedProtocolFees0",
      "outputs": [
        {
          "internalType": "uint256",
          "name": "",
          "type": "uint256"
        }
      ],
      "stateMutability": "view",
      "type": "function"
    },
    {
      "inputs": [],
      "name": "accruedProtocolFees1",
      "outputs": [
        {
          "internalType": "uint256",
          "name": "",
          "type": "uint256"
        }
      ],
      "stateMutability": "view",
      "type": "function"
    },
    {
      "inputs": [
        {
          "internalType": "address",
          "name": "owner",
          "type": "address"
        },
        {
          "internalType": "address",
          "name": "spender",
          "type": "address"
        }
      ],
      "name": "allowance",
      "outputs": [
        {
          "internalType": "uint256",
          "name": "",
          "type": "uint256"
        }
      ],
      "stateMutability": "view",
      "type": "function"
    },
    {
      "inputs": [
        {
          "internalType": "address",
          "name": "spender",
          "type": "address"
        },
        {
          "internalType": "uint256",
          "name": "amount",
          "type": "uint256"
        }
      ],
      "name": "approve",
      "outputs": [
        {
          "internalType": "bool",
          "name": "",
          "type": "bool"
        }
      ],
      "stateMutability": "nonpayable",
      "type": "function"
    },
    {
      "inputs": [
        {
          "internalType": "address",
          "name": "account",
          "type": "address"
        }
      ],
      "name": "balanceOf",
      "outputs": [
        {
          "internalType": "uint256",
          "name": "",
          "type": "uint256"
        }
      ],
      "stateMutability": "view",
      "type": "function"
    },
    {
      "inputs": [],
      "name": "baseLower",
      "outputs": [
        {
          "internalType": "int24",
          "name": "",
          "type": "int24"
        }
      ],
      "stateMutability": "view",
      "type": "function"
    },
    {
      "inputs": [],
      "name": "baseThreshold",
      "outputs": [
        {
          "internalType": "int24",
          "name": "",
          "type": "int24"
        }
      ],
      "stateMutability": "view",
      "type": "function"
    },
    {
      "inputs": [],
      "name": "baseUpper",
      "outputs": [
        {
          "internalType": "int24",
          "name": "",
          "type": "int24"
        }
      ],
      "stateMutability": "view",
      "type": "function"
    },
    {
      "inputs": [],
      "name": "checkCanRebalance",
      "outputs": [],
      "stateMutability": "view",
      "type": "function"
    },
    {
      "inputs": [
        {
          "internalType": "address",
          "name": "to",
          "type": "address"
        }
      ],
      "name": "collectManager",
      "outputs": [],
      "stateMutability": "nonpayable",
      "type": "function"
    },
    {
      "inputs": [
        {
          "internalType": "address",
          "name": "to",
          "type": "address"
        }
      ],
      "name": "collectProtocol",
      "outputs": [],
      "stateMutability": "nonpayable",
      "type": "function"
    },
    {
      "inputs": [],
      "name": "decimals",
      "outputs": [
        {
          "internalType": "uint8",
          "name": "",
          "type": "uint8"
        }
      ],
      "stateMutability": "view",
      "type": "function"
    },
    {
      "inputs": [
        {
          "internalType": "address",
          "name": "spender",
          "type": "address"
        },
        {
          "internalType": "uint256",
          "name": "subtractedValue",
          "type": "uint256"
        }
      ],
      "name": "decreaseAllowance",
      "outputs": [
        {
          "internalType": "bool",
          "name": "",
          "type": "bool"
        }
      ],
      "stateMutability": "nonpayable",
      "type": "function"
    },
    {
      "inputs": [
        {
          "internalType": "uint256",
          "name": "amount0Desired",
          "type": "uint256"
        },
        {
          "internalType": "uint256",
          "name": "amount1Desired",
          "type": "uint256"
        },
        {
          "internalType": "uint256",
          "name": "amount0Min",
          "type": "uint256"
        },
        {
          "internalType": "uint256",
          "name": "amount1Min",
          "type": "uint256"
        },
        {
          "internalType": "address",
          "name": "to",
          "type": "address"
        }
      ],
      "name": "deposit",
      "outputs": [
        {
          "internalType": "uint256",
          "name": "shares",
          "type": "uint256"
        },
        {
          "internalType": "uint256",
          "name": "amount0",
          "type": "uint256"
        },
        {
          "internalType": "uint256",
          "name": "amount1",
          "type": "uint256"
        }
      ],
      "stateMutability": "nonpayable",
      "type": "function"
    },
    {
      "inputs": [
        {
          "internalType": "int24",
          "name": "tickLower",
          "type": "int24"
        },
        {
          "internalType": "int24",
          "name": "tickUpper",
          "type": "int24"
        },
        {
          "internalType": "uint128",
          "name": "liquidity",
          "type": "uint128"
        }
      ],
      "name": "emergencyBurn",
      "outputs": [],
      "stateMutability": "nonpayable",
      "type": "function"
    },
    {
      "inputs": [],
      "name": "factory",
      "outputs": [
        {
          "internalType": "contract AlphaProVaultFactory",
          "name": "",
          "type": "address"
        }
      ],
      "stateMutability": "view",
      "type": "function"
    },
    {
      "inputs": [],
      "name": "fullLower",
      "outputs": [
        {
          "internalType": "int24",
          "name": "",
          "type": "int24"
        }
      ],
      "stateMutability": "view",
      "type": "function"
    },
    {
      "inputs": [],
      "name": "fullRangeWeight",
      "outputs": [
        {
          "internalType": "uint256",
          "name": "",
          "type": "uint256"
        }
      ],
      "stateMutability": "view",
      "type": "function"
    },
    {
      "inputs": [],
      "name": "fullUpper",
      "outputs": [
        {
          "internalType": "int24",
          "name": "",
          "type": "int24"
        }
      ],
      "stateMutability": "view",
      "type": "function"
    },
    {
      "inputs": [],
      "name": "getBalance0",
      "outputs": [
        {
          "internalType": "uint256",
          "name": "",
          "type": "uint256"
        }
      ],
      "stateMutability": "view",
      "type": "function"
    },
    {
      "inputs": [],
      "name": "getBalance1",
      "outputs": [
        {
          "internalType": "uint256",
          "name": "",
          "type": "uint256"
        }
      ],
      "stateMutability": "view",
      "type": "function"
    },
    {
      "inputs": [
        {
          "internalType": "int24",
          "name": "tickLower",
          "type": "int24"
        },
        {
          "internalType": "int24",
          "name": "tickUpper",
          "type": "int24"
        }
      ],
      "name": "getPositionAmounts",
      "outputs": [
        {
          "internalType": "uint256",
          "name": "amount0",
          "type": "uint256"
        },
        {
          "internalType": "uint256",
          "name": "amount1",
          "type": "uint256"
        }
      ],
      "stateMutability": "view",
      "type": "function"
    },
    {
      "inputs": [],
      "name": "getTotalAmounts",
      "outputs": [
        {
          "internalType": "uint256",
          "name": "total0",
          "type": "uint256"
        },
        {
          "internalType": "uint256",
          "name": "total1",
          "type": "uint256"
        }
      ],
      "stateMutability": "view",
      "type": "function"
    },
    {
      "inputs": [],
      "name": "getTwap",
      "outputs": [
        {
          "internalType": "int24",
          "name": "",
          "type": "int24"
        }
      ],
      "stateMutability": "view",
      "type": "function"
    },
    {
      "inputs": [
        {
          "internalType": "address",
          "name": "spender",
          "type": "address"
        },
        {
          "internalType": "uint256",
          "name": "addedValue",
          "type": "uint256"
        }
      ],
      "name": "increaseAllowance",
      "outputs": [
        {
          "internalType": "bool",
          "name": "",
          "type": "bool"
        }
      ],
      "stateMutability": "nonpayable",
      "type": "function"
    },
    {
      "inputs": [
        {
          "components": [
            {
              "internalType": "address",
              "name": "pool",
              "type": "address"
            },
            {
              "internalType": "address",
              "name": "manager",
              "type": "address"
            },
            {
              "internalType": "uint256",
              "name": "managerFee",
              "type": "uint256"
            },
            {
              "internalType": "address",
              "name": "rebalanceDelegate",
              "type": "address"
            },
            {
              "internalType": "uint256",
              "name": "maxTotalSupply",
              "type": "uint256"
            },
            {
              "internalType": "int24",
              "name": "baseThreshold",
              "type": "int24"
            },
            {
              "internalType": "int24",
              "name": "limitThreshold",
              "type": "int24"
            },
            {
              "internalType": "uint256",
              "name": "fullRangeWeight",
              "type": "uint256"
            },
            {
              "internalType": "uint256",
              "name": "period",
              "type": "uint256"
            },
            {
              "internalType": "int24",
              "name": "minTickMove",
              "type": "int24"
            },
            {
              "internalType": "int24",
              "name": "maxTwapDeviation",
              "type": "int24"
            },
            {
              "internalType": "uint32",
              "name": "twapDuration",
              "type": "uint32"
            },
            {
              "internalType": "string",
              "name": "name",
              "type": "string"
            },
            {
              "internalType": "string",
              "name": "symbol",
              "type": "string"
            }
          ],
          "internalType": "struct VaultParams",
          "name": "_params",
          "type": "tuple"
        },
        {
          "internalType": "address",
          "name": "_factory",
          "type": "address"
        }
      ],
      "name": "initialize",
      "outputs": [],
      "stateMutability": "nonpayable",
      "type": "function"
    },
    {
      "inputs": [],
      "name": "lastTick",
      "outputs": [
        {
          "internalType": "int24",
          "name": "",
          "type": "int24"
        }
      ],
      "stateMutability": "view",
      "type": "function"
    },
    {
      "inputs": [],
      "name": "lastTimestamp",
      "outputs": [
        {
          "internalType": "uint256",
          "name": "",
          "type": "uint256"
        }
      ],
      "stateMutability": "view",
      "type": "function"
    },
    {
      "inputs": [],
      "name": "limitLower",
      "outputs": [
        {
          "internalType": "int24",
          "name": "",
          "type": "int24"
        }
      ],
      "stateMutability": "view",
      "type": "function"
    },
    {
      "inputs": [],
      "name": "limitThreshold",
      "outputs": [
        {
          "internalType": "int24",
          "name": "",
          "type": "int24"
        }
      ],
      "stateMutability": "view",
      "type": "function"
    },
    {
      "inputs": [],
      "name": "limitUpper",
      "outputs": [
        {
          "internalType": "int24",
          "name": "",
          "type": "int24"
        }
      ],
      "stateMutability": "view",
      "type": "function"
    },
    {
      "inputs": [],
      "name": "manager",
      "outputs": [
        {
          "internalType": "address",
          "name": "",
          "type": "address"
        }
      ],
      "stateMutability": "view",
      "type": "function"
    },
    {
      "inputs": [],
      "name": "managerFee",
      "outputs": [
        {
          "internalType": "uint256",
          "name": "",
          "type": "uint256"
        }
      ],
      "stateMutability": "view",
      "type": "function"
    },
    {
      "inputs": [],
      "name": "maxTotalSupply",
      "outputs": [
        {
          "internalType": "uint256",
          "name": "",
          "type": "uint256"
        }
      ],
      "stateMutability": "view",
      "type": "function"
    },
    {
      "inputs": [],
      "name": "maxTwapDeviation",
      "outputs": [
        {
          "internalType": "int24",
          "name": "",
          "type": "int24"
        }
      ],
      "stateMutability": "view",
      "type": "function"
    },
    {
      "inputs": [],
      "name": "minTickMove",
      "outputs": [
        {
          "internalType": "int24",
          "name": "",
          "type": "int24"
        }
      ],
      "stateMutability": "view",
      "type": "function"
    },
    {
      "inputs": [],
      "name": "name",
      "outputs": [
        {
          "internalType": "string",
          "name": "",
          "type": "string"
        }
      ],
      "stateMutability": "view",
      "type": "function"
    },
    {
      "inputs": [],
      "name": "pendingManager",
      "outputs": [
        {
          "internalType": "address",
          "name": "",
          "type": "address"
        }
      ],
      "stateMutability": "view",
      "type": "function"
    },
    {
      "inputs": [],
      "name": "pendingManagerFee",
      "outputs": [
        {
          "internalType": "uint256",
          "name": "",
          "type": "uint256"
        }
      ],
      "stateMutability": "view",
      "type": "function"
    },
    {
      "inputs": [],
      "name": "period",
      "outputs": [
        {
          "internalType": "uint256",
          "name": "",
          "type": "uint256"
        }
      ],
      "stateMutability": "view",
      "type": "function"
    },
    {
      "inputs": [],
      "name": "pool",
      "outputs": [
        {
          "internalType": "contract IUniswapV3Pool",
          "name": "",
          "type": "address"
        }
      ],
      "stateMutability": "view",
      "type": "function"
    },
    {
      "inputs": [],
      "name": "protocolFee",
      "outputs": [
        {
          "internalType": "uint256",
          "name": "",
          "type": "uint256"
        }
      ],
      "stateMutability": "view",
      "type": "function"
    },
    {
      "inputs": [],
      "name": "rebalance",
      "outputs": [],
      "stateMutability": "nonpayable",
      "type": "function"
    },
    {
      "inputs": [],
      "name": "rebalanceDelegate",
      "outputs": [
        {
          "internalType": "address",
          "name": "",
          "type": "address"
        }
      ],
      "stateMutability": "view",
      "type": "function"
    },
    {
      "inputs": [
        {
          "internalType": "int24",
          "name": "_baseThreshold",
          "type": "int24"
        }
      ],
      "name": "setBaseThreshold",
      "outputs": [],
      "stateMutability": "nonpayable",
      "type": "function"
    },
    {
      "inputs": [
        {
          "internalType": "uint256",
          "name": "_fullRangeWeight",
          "type": "uint256"
        }
      ],
      "name": "setFullRangeWeight",
      "outputs": [],
      "stateMutability": "nonpayable",
      "type": "function"
    },
    {
      "inputs": [
        {
          "internalType": "int24",
          "name": "_limitThreshold",
          "type": "int24"
        }
      ],
      "name": "setLimitThreshold",
      "outputs": [],
      "stateMutability": "nonpayable",
      "type": "function"
    },
    {
      "inputs": [
        {
          "internalType": "address",
          "name": "_manager",
          "type": "address"
        }
      ],
      "name": "setManager",
      "outputs": [],
      "stateMutability": "nonpayable",
      "type": "function"
    },
    {
      "inputs": [
        {
          "internalType": "uint256",
          "name": "_pendingManagerFee",
          "type": "uint256"
        }
      ],
      "name": "setManagerFee",
      "outputs": [],
      "stateMutability": "nonpayable",
      "type": "function"
    },
    {
      "inputs": [
        {
          "internalType": "uint256",
          "name": "_maxTotalSupply",
          "type": "uint256"
        }
      ],
      "name": "setMaxTotalSupply",
      "outputs": [],
      "stateMutability": "nonpayable",
      "type": "function"
    },
    {
      "inputs": [
        {
          "internalType": "int24",
          "name": "_maxTwapDeviation",
          "type": "int24"
        }
      ],
      "name": "setMaxTwapDeviation",
      "outputs": [],
      "stateMutability": "nonpayable",
      "type": "function"
    },
    {
      "inputs": [
        {
          "internalType": "int24",
          "name": "_minTickMove",
          "type": "int24"
        }
      ],
      "name": "setMinTickMove",
      "outputs": [],
      "stateMutability": "nonpayable",
      "type": "function"
    },
    {
      "inputs": [
        {
          "internalType": "uint256",
          "name": "_period",
          "type": "uint256"
        }
      ],
      "name": "setPeriod",
      "outputs": [],
      "stateMutability": "nonpayable",
      "type": "function"
    },
    {
      "inputs": [
        {
          "internalType": "address",
          "name": "_rebalanceDelegate",
          "type": "address"
        }
      ],
      "name": "setRebalanceDelegate",
      "outputs": [],
      "stateMutability": "nonpayable",
      "type": "function"
    },
    {
      "inputs": [
        {
          "internalType": "uint32",
          "name": "_twapDuration",
          "type": "uint32"
        }
      ],
      "name": "setTwapDuration",
      "outputs": [],
      "stateMutability": "nonpayable",
      "type": "function"
    },
    {
      "inputs": [
        {
          "internalType": "contract IERC20Upgradeable",
          "name": "token",
          "type": "address"
        },
        {
          "internalType": "uint256",
          "name": "amount",
          "type": "uint256"
        },
        {
          "internalType": "address",
          "name": "to",
          "type": "address"
        }
      ],
      "name": "sweep",
      "outputs": [],
      "stateMutability": "nonpayable",
      "type": "function"
    },
    {
      "inputs": [],
      "name": "symbol",
      "outputs": [
        {
          "internalType": "string",
          "name": "",
          "type": "string"
        }
      ],
      "stateMutability": "view",
      "type": "function"
    },
    {
      "inputs": [],
      "name": "tickSpacing",
      "outputs": [
        {
          "internalType": "int24",
          "name": "",
          "type": "int24"
        }
      ],
      "stateMutability": "view",
      "type": "function"
    },
    {
      "inputs": [],
      "name": "token0",
      "outputs": [
        {
          "internalType": "contract IERC20Upgradeable",
          "name": "",
          "type": "address"
        }
      ],
      "stateMutability": "view",
      "type": "function"
    },
    {
      "inputs": [],
      "name": "token1",
      "outputs": [
        {
          "internalType": "contract IERC20Upgradeable",
          "name": "",
          "type": "address"
        }
      ],
      "stateMutability": "view",
      "type": "function"
    },
    {
      "inputs": [],
      "name": "totalSupply",
      "outputs": [
        {
          "internalType": "uint256",
          "name": "",
          "type": "uint256"
        }
      ],
      "stateMutability": "view",
      "type": "function"
    },
    {
      "inputs": [
        {
          "internalType": "address",
          "name": "recipient",
          "type": "address"
        },
        {
          "internalType": "uint256",
          "name": "amount",
          "type": "uint256"
        }
      ],
      "name": "transfer",
      "outputs": [
        {
          "internalType": "bool",
          "name": "",
          "type": "bool"
        }
      ],
      "stateMutability": "nonpayable",
      "type": "function"
    },
    {
      "inputs": [
        {
          "internalType": "address",
          "name": "sender",
          "type": "address"
        },
        {
          "internalType": "address",
          "name": "recipient",
          "type": "address"
        },
        {
          "internalType": "uint256",
          "name": "amount",
          "type": "uint256"
        }
      ],
      "name": "transferFrom",
      "outputs": [
        {
          "internalType": "bool",
          "name": "",
          "type": "bool"
        }
      ],
      "stateMutability": "nonpayable",
      "type": "function"
    },
    {
      "inputs": [],
      "name": "twapDuration",
      "outputs": [
        {
          "internalType": "uint32",
          "name": "",
          "type": "uint32"
        }
      ],
      "stateMutability": "view",
      "type": "function"
    },
    {
      "inputs": [
        {
          "internalType": "uint256",
          "name": "amount0",
          "type": "uint256"
        },
        {
          "internalType": "uint256",
          "name": "amount1",
          "type": "uint256"
        },
        {
          "internalType": "bytes",
          "name": "data",
          "type": "bytes"
        }
      ],
      "name": "uniswapV3MintCallback",
      "outputs": [],
      "stateMutability": "nonpayable",
      "type": "function"
    },
    {
      "inputs": [
        {
          "internalType": "int256",
          "name": "amount0Delta",
          "type": "int256"
        },
        {
          "internalType": "int256",
          "name": "amount1Delta",
          "type": "int256"
        },
        {
          "internalType": "bytes",
          "name": "data",
          "type": "bytes"
        }
      ],
      "name": "uniswapV3SwapCallback",
      "outputs": [],
      "stateMutability": "nonpayable",
      "type": "function"
    },
    {
      "inputs": [
        {
          "internalType": "uint256",
          "name": "shares",
          "type": "uint256"
        },
        {
          "internalType": "uint256",
          "name": "amount0Min",
          "type": "uint256"
        },
        {
          "internalType": "uint256",
          "name": "amount1Min",
          "type": "uint256"
        },
        {
          "internalType": "address",
          "name": "to",
          "type": "address"
        }
      ],
      "name": "withdraw",
      "outputs": [
        {
          "internalType": "uint256",
          "name": "amount0",
          "type": "uint256"
        },
        {
          "internalType": "uint256",
          "name": "amount1",
          "type": "uint256"
        }
      ],
      "stateMutability": "nonpayable",
      "type": "function"
    }
  ],
  "transactionHash": "0xfa6bcb9e08b77cc99f9e2d36c4c8da033727e24d4c9e5b15bd3ce3d9b54061aa",
  "args": [],
  "numDeployments": 3,
  "solcInputHash": "932423981b8d3e9b2fcc77d2161eed25",
  "bytecode": "0x608060405234801561001057600080fd5b506158f680620000216000396000f3fe608060405234801561001057600080fd5b50600436106104125760003560e01c806395d89b4111610220578063d0ebdbe711610130578063ebaf2d3b116100b8578063f4005cae11610087578063f4005cae146107aa578063f8d01c9d146107bd578063fa082743146107d0578063fa461e33146107d8578063fa9430e1146107eb57610412565b8063ebaf2d3b1461077f578063ecb5468e14610787578063ef78d4fd1461078f578063f217c9291461079757610412565b8063dc2c256f116100ff578063dc2c256f14610741578063dd62ed3e14610754578063e4d2b8aa14610767578063e7c7cb911461076f578063eae989a21461077757610412565b8063d0ebdbe714610700578063d21220a714610713578063d331bef71461071b578063d34879971461072e57610412565b8063a91ef6eb116101b3578063bab1dd9e11610182578063bab1dd9e146106c2578063c433c80a146106d5578063c45a0155146106e8578063c4a7761e146106f0578063d0c93a7c146106f857610412565b8063a91ef6eb14610673578063abbffcb914610694578063af794480146106a7578063b0e21e8a146106ba57610412565b8063a457c2d7116101ef578063a457c2d714610632578063a632935514610645578063a87bab9c14610658578063a9059cbb1461066057610412565b806395d89b41146106125780639c7632fc1461061a578063a00fa77f14610622578063a00fff6f1461062a57610412565b80633dfa5d8711610326578063629d9405116102ae57806371bd0ea71161027d57806371bd0ea7146105df57806374113154146105e75780637d7c2a1c146105fa578063854360ef14610602578063888a91341461060a57610412565b8063629d9405146105b45780636c395821146105bc5780636f00b077146105c457806370a08231146105cc57610412565b806348ff15b3116102f557806348ff15b31461058c57806351e87af7146105945780635d752a9a1461059c5780635da07868146105a457806360e1592a146105ac57610412565b80633dfa5d87146105615780633f3e4c111461056957806341aec5381461057c578063481c6a751461058457610412565b806319d8ac61116103a95780632ab4d052116103785780632ab4d052146104fc578063313ce56714610504578063365d0ed714610519578063395093511461053b5780633cbff3fe1461054e57610412565b806319d8ac61146104b95780631d769828146104c157806323b872dd146104d457806326d89545146104e757610412565b80630f3a9f65116103e55780630f3a9f651461047f57806316c3e29d1461049457806316f0115b1461049c57806318160ddd146104a457610412565b806306fdde0314610417578063095ea7b3146104355780630dfe1681146104555780630f35bcac1461046a575b600080fd5b61041f6107fe565b60405161042c91906151c6565b60405180910390f35b610448610443366004614ae6565b610894565b60405161042c919061515e565b61045d6108b2565b60405161042c9190615081565b6104726108c1565b60405161042c9190615172565b61049261048d366004614f96565b6108d1565b005b610472610944565b61045d610954565b6104ac610963565b60405161042c9190615169565b6104ac610969565b6104926104cf366004614a36565b61096f565b6104486104e2366004614aa6565b610aaf565b6104ef610b37565b60405161042c9190615643565b6104ac610b4a565b61050c610b50565b60405161042c9190615654565b61052c610527366004615029565b610b59565b60405161042c93929190615605565b610448610549366004614ae6565b610dc0565b61049261055c366004614c1a565b610e0e565b610472610eb2565b610492610577366004614f96565b610ec2565b6104ac610f21565b61045d610fbf565b610492610fce565b610472611045565b61047261104e565b61045d61119d565b6104ac6111ac565b6104ac6111b2565b6104726111f5565b6104ac611205565b6104ac6105da366004614a36565b61120b565b61049261122a565b6104926105f5366004614f96565b611463565b6104926114e5565b6104726119ec565b6104726119fc565b61041f611a0c565b6104ac611a6d565b6104ac611a73565b61045d611a79565b610448610640366004614ae6565b611a88565b610492610653366004614c1a565b611af0565b610472611b79565b61044861066e366004614ae6565b611b82565b610686610681366004614c52565b611b96565b60405161042c9291906155f7565b6104926106a2366004614c7f565b611c3c565b6104926106b5366004614c1a565b611d84565b6104ac611e16565b6104926106d0366004614d0f565b611e1c565b6104926106e3366004615067565b61237b565b61045d612419565b610686612428565b6104726124e4565b61049261070e366004614a36565b6124f4565b61045d612569565b610686610729366004614fe9565b612578565b61049261073c366004614cbe565b6127fb565b61049261074f366004614bd9565b612852565b6104ac610762366004614a6e565b6128d8565b6104ac612903565b610472612909565b6104ac612919565b61047261291f565b6104ac61292f565b6104ac612935565b6104926107a5366004614f96565b61293b565b6104926107b8366004614c1a565b6129bd565b6104926107cb366004614a36565b612a5e565b610472612ad3565b6104926107e6366004614cbe565b612ae3565b6104926107f9366004614a36565b612b3a565b60368054604080516020601f600260001961010060018816150201909516949094049384018190048102820181019092528281526060939092909183018282801561088a5780601f1061085f5761010080835404028352916020019161088a565b820191906000526020600020905b81548152906001019060200180831161086d57829003601f168201915b5050505050905090565b60006108a86108a1612be1565b8484612be5565b5060015b92915050565b6098546001600160a01b031681565b60aa546301000000900460020b81565b609b546001600160a01b031633146109045760405162461bcd60e51b81526004016108fb906152f0565b60405180910390fd5b60a38190556040517fd1c043d38a3243c01780647a1340049807cd98af891021c89c32c99a8e0c59e790610939908390615169565b60405180910390a150565b60a9546301000000900460020b81565b6097546001600160a01b031681565b60355490565b60a85481565b609a60009054906101000a90046001600160a01b03166001600160a01b0316635aa6e6756040518163ffffffff1660e01b815260040160206040518083038186803b1580156109bd57600080fd5b505afa1580156109d1573d6000803e3d6000fd5b505050506040513d601f19601f820116820180604052508101906109f59190614a52565b6001600160a01b0316336001600160a01b031614610a255760405162461bcd60e51b81526004016108fb906154f5565b60a4805460a58054600093849055929055908115610a5457609854610a54906001600160a01b03168484612cd1565b8015610a7157609954610a71906001600160a01b03168483612cd1565b7fd63986ca13f11502796aee70ba80ac7317d99f08e5871fd9fd602a2764c7ef308282604051610aa29291906155f7565b60405180910390a1505050565b6000610abc848484612d23565b610b2c84610ac8612be1565b610b27856040518060600160405280602881526020016157e0602891396001600160a01b038a16600090815260346020526040812090610b06612be1565b6001600160a01b031681526020810191909152604001600020549190612e80565b612be5565b5060015b9392505050565b60a954600160601b900463ffffffff1681565b609e5481565b60385460ff1690565b600080600060026065541415610bb6576040805162461bcd60e51b815260206004820152601f60248201527f5265656e7472616e637947756172643a207265656e7472616e742063616c6c00604482015290519081900360640190fd5b600260655587151580610bc95750600087115b610be55760405162461bcd60e51b81526004016108fb9061545a565b6001600160a01b03841615801590610c0657506001600160a01b0384163014155b610c225760405162461bcd60e51b81526004016108fb906152d4565b60a954610c4490600160981b8104600290810b91600160b01b9004900b612f17565b60a954610c6690600160c81b8104600290810b91600160e01b9004900b612f17565b60aa54610c8190600281810b9163010000009004900b612f17565b610c8b8888612fc1565b9194509250905082610caf5760405162461bcd60e51b81526004016108fb90615519565b85821015610ccf5760405162461bcd60e51b81526004016108fb9061526c565b84811015610cef5760405162461bcd60e51b81526004016108fb90615558565b8115610d0d57609854610d0d906001600160a01b03163330856130eb565b8015610d2b57609954610d2b906001600160a01b03163330846130eb565b610d358484613145565b836001600160a01b0316336001600160a01b03167f4e2ca0515ed1aef1395f66b5303bb5d6f1bf9d61a353fa53f73f8ac9973fa9f6858585604051610d7c93929190615605565b60405180910390a3609e54610d8f610963565b1115610dad5760405162461bcd60e51b81526004016108fb90615598565b6001606581905550955095509592505050565b60006108a8610dcd612be1565b84610b278560346000610dde612be1565b6001600160a01b03908116825260208083019390935260409182016000908120918c168152925290205490613237565b609b546001600160a01b03163314610e385760405162461bcd60e51b81526004016108fb906152f0565b60008160020b1215610e5c5760405162461bcd60e51b81526004016108fb90615374565b60a980546bffffff0000000000000000001916600160481b62ffffff600285900b16021790556040517f957dddabc1ac2b52bf67ebbe53150c1b46f57ec0e1dc487632d5bcc3a36a2d8290610939908390615172565b60aa54600160301b900460020b81565b609b546001600160a01b03163314610eec5760405162461bcd60e51b81526004016108fb906152f0565b609e8190556040517f49e8da6bc2b1ffc75cb81c88d1a8e64d5b1224c626dc9be8787d6ff982b46a3990610939908390615169565b60a75460a5546099546040516370a0823160e01b8152600093610fba939092610fb4926001600160a01b03909116906370a0823190610f64903090600401615081565b60206040518083038186803b158015610f7c57600080fd5b505afa158015610f90573d6000803e3d6000fd5b505050506040513d601f19601f82011682018060405250810190610fb49190614fae565b90613291565b905090565b609b546001600160a01b031681565b609c546001600160a01b03163314610ff85760405162461bcd60e51b81526004016108fb90615290565b609b80546001600160a01b031916339081179091556040517f5c18ab5c697b63d102fc7e14c77bfaef0f1013206eca139920fd389277814e099161103b91615081565b60405180910390a1565b60aa5460020b81565b60a954604080516002808252606082018352600093600160601b900463ffffffff169284929190602083019080368337019050509050818160008151811061109257fe5b602002602001019063ffffffff16908163ffffffff16815250506000816001815181106110bb57fe5b63ffffffff9092166020928302919091019091015260975460405163883bdbfd60e01b81526000916001600160a01b03169063883bdbfd90611101908590600401615114565b60006040518083038186803b15801561111957600080fd5b505afa15801561112d573d6000803e3d6000fd5b505050506040513d6000823e601f3d908101601f191682016040526111559190810190614b11565b5090508263ffffffff168160008151811061116c57fe5b60200260200101518260018151811061118157fe5b60200260200101510360060b8161119457fe5b05935050505090565b609d546001600160a01b031681565b60a75481565b60a65460a4546098546040516370a0823160e01b8152600093610fba939092610fb4926001600160a01b03909116906370a0823190610f64903090600401615081565b60a954600160b01b900460020b81565b60a25481565b6001600160a01b0381166000908152603360205260409020545b919050565b60a85460a35461123b908290613237565b42101561125a5760405162461bcd60e51b81526004016108fb906152b8565b60975460408051633850c7bd60e01b815290516000926001600160a01b031691633850c7bd9160048083019260e0929190829003018186803b15801561129f57600080fd5b505afa1580156112b3573d6000803e3d6000fd5b505050506040513d601f19601f820116820180604052508101906112d79190614efc565b5050505050915050600060aa60069054906101000a900460020b60020b8260020b136113125760aa54600160301b900460020b829003611322565b60aa54600160301b900460020b82035b9050821580611344575060a954600160301b9004600290810b810b9082900b12155b6113605760405162461bcd60e51b81526004016108fb90615219565b600061136a61104e565b905060008160020b8460020b1361138357838203611387565b8184035b905060a960099054906101000a900460020b60020b8160020b13156113be5760405162461bcd60e51b81526004016108fb906154d9565b60a95460009063010000008104600290810b810b91810b900b136113ee5760a9546301000000900460020b6113f5565b60a95460020b5b905060a960109054906101000a900460020b81620d89e719010160020b8560020b1215801561143f575060a954600160801b9004600290810b620d89e883900303810b9086900b13155b61145b5760405162461bcd60e51b81526004016108fb9061557c565b505050505050565b609b546001600160a01b0316331461148d5760405162461bcd60e51b81526004016108fb906152f0565b620f42408111156114b05760405162461bcd60e51b81526004016108fb906153f4565b60a28190556040517fd247572e3cf078790410cd7a8fe4148ac82c8623e864dd798a22140f0de31d5290610939908390615169565b6002606554141561153d576040805162461bcd60e51b815260206004820152601f60248201527f5265656e7472616e637947756172643a207265656e7472616e742063616c6c00604482015290519081900360640190fd5b600260655561154a61122a565b609d546001600160a01b03161561159a57609b546001600160a01b031633148061157e5750609d546001600160a01b031633145b61159a5760405162461bcd60e51b81526004016108fb906154ae565b60a954600160981b8104600290810b91600160b01b9004900b60006115bf83836132ee565b505060a9549293506000926115ec9250600160c81b8104600290810b9250600160e01b909104900b6132ee565b505060aa549293506000926116129250600281810b92506301000000909104900b6132ee565b505050509050611623858585613397565b505060a95461164b9250600160c81b8104600290810b9250600160e01b909104900b84613397565b505060aa5461166c9250600281810b92506301000000909104900b83613397565b505060975460408051633850c7bd60e01b81529051600097506001600160a01b039092169550633850c7bd94506004808201945060e0935090829003018186803b1580156116b957600080fd5b505afa1580156116cd573d6000803e3d6000fd5b505050506040513d601f19601f820116820180604052508101906116f19190614efc565b5050505050915050600061170482613608565b60a954909150600160801b8104600290810b83019180820b808503929084019163010000009004900b8085039085908590810160006117416111b2565b9050600061174d610f21565b90507f210f60adf1db7a02e9db9a49ec7c2eb2060c516cbcfd01a0c05288144738ee5d8b838361177b610963565b60405161178b94939291906151a6565b60405180910390a160006117a18e8e858561367b565b905060006117d86117d3620f42406117cd60a254866001600160801b031661373390919063ffffffff16565b9061378c565b6137f3565b90506117e58f8f8361380a565b50506117ef6111b2565b91506117f9610f21565b905060006118098989858561367b565b905061181689898361380a565b5060a9805460028a810b62ffffff908116600160c81b0262ffffff60c81b19928c900b909116600160e01b0262ffffff60e01b19909316929092171617905561185d6111b2565b9150611867610f21565b905060006118778787858561367b565b905060006118878686868661367b565b9050806001600160801b0316826001600160801b031611156118e7576118ae88888461380a565b60aa805465ffffff0000001916630100000060028a810b62ffffff908116929092029290921762ffffff1916918b900b16179055611927565b6118f286868361380a565b60aa805465ffffff00000019166301000000600288810b62ffffff908116929092029290921762ffffff19169189900b161790555b4260a85560aa805460028f900b62ffffff16600160301b0268ffffff00000000000019909116179055609a54604080516358710f4560e11b815290516001600160a01b039092169163b0e21e8a91600480820192602092909190829003018186803b15801561199557600080fd5b505afa1580156119a9573d6000803e3d6000fd5b505050506040513d601f19601f820116820180604052508101906119cd9190614fae565b609f55505060a15460a055505060016065555050505050505050505050565b60a954600160301b900460020b81565b60a954600160e01b900460020b81565b60378054604080516020601f600260001961010060018816150201909516949094049384018190048102820181019092528281526060939092909183018282801561088a5780601f1061085f5761010080835404028352916020019161088a565b60a05481565b60a55481565b609c546001600160a01b031681565b60006108a8611a95612be1565b84610b278560405180606001604052806025815260200161589c6025913960346000611abf612be1565b6001600160a01b03908116825260208083019390935260409182016000908120918d16815292529020549190612e80565b609b546001600160a01b03163314611b1a5760405162461bcd60e51b81526004016108fb906152f0565b60a954611b32908290600160801b900460020b61384f565b60a9805462ffffff191662ffffff600284900b161790556040517ff1759909677b9c42577caba6b12efd5bcf3a398d02a2c1c97d23bbd312b561a790610939908390615172565b60a95460020b81565b60006108a8611b8f612be1565b8484612d23565b6000806000806000611ba887876132ee565b9450945050509250611bbb8787856138cd565b80955081965050506000611be360a054610fb4609f54620f424061329190919063ffffffff16565b9050611c09611c02620f42406117cd6001600160801b03871685613733565b8790613237565b9550611c2f611c28620f42406117cd6001600160801b03861685613733565b8690613237565b9450505050509250929050565b609b546001600160a01b03163314611c665760405162461bcd60e51b81526004016108fb906152f0565b60975460405163a34123a760e01b81526001600160a01b039091169063a34123a790611c9a90869086908690600401615180565b6040805180830381600087803b158015611cb357600080fd5b505af1158015611cc7573d6000803e3d6000fd5b505050506040513d601f19601f82011682018060405250810190611ceb9190614fc6565b50506097546040516309e3d67b60e31b81526001600160a01b0390911690634f1eb3d890611d2c903090879087906001600160801b039081906004016150d7565b6040805180830381600087803b158015611d4557600080fd5b505af1158015611d59573d6000803e3d6000fd5b505050506040513d601f19601f82011682018060405250810190611d7d9190614e6d565b5050505050565b609b546001600160a01b03163314611dae5760405162461bcd60e51b81526004016108fb906152f0565b60a954611dc6908290600160801b900460020b61384f565b60a9805465ffffff0000001916630100000062ffffff600285900b16021790556040517fc797ac22933a04255304effee6a7d3c3e4bbfaa0b2897c52c61a8b1fb027b9f290610939908390615172565b609f5481565b600054610100900460ff1680611e355750611e35613989565b80611e43575060005460ff16155b611e7e5760405162461bcd60e51b815260040180806020018281038252602e815260200180615791602e913960400191505060405180910390fd5b600054610100900460ff16158015611ea9576000805460ff1961ff0019909116610100171660011790555b611ebd836101800151846101a0015161399a565b611ec5613a4f565b8251609780546001600160a01b0319166001600160a01b03928316179081905560408051630dfe168160e01b815290519190921691630dfe1681916004808301926020929190829003018186803b158015611f1f57600080fd5b505afa158015611f33573d6000803e3d6000fd5b505050506040513d601f19601f82011682018060405250810190611f579190614a52565b609880546001600160a01b0319166001600160a01b039283161790556097546040805163d21220a760e01b81529051919092169163d21220a7916004808301926020929190829003018186803b158015611fb057600080fd5b505afa158015611fc4573d6000803e3d6000fd5b505050506040513d601f19601f82011682018060405250810190611fe89190614a52565b609980546001600160a01b0319166001600160a01b03928316179055609754604080516334324e9f60e21b81529051600093929092169163d0c93a7c91600480820192602092909190829003018186803b15801561204557600080fd5b505afa158015612059573d6000803e3d6000fd5b505050506040513d601f19601f8201168201806040525081019061207d9190614c36565b90508060a960106101000a81548162ffffff021916908360020b62ffffff1602179055508360200151609b60006101000a8154816001600160a01b0302191690836001600160a01b031602179055508360600151609d60006101000a8154816001600160a01b0302191690836001600160a01b03160217905550836040015160a1819055508360800151609e819055508360a0015160a960006101000a81548162ffffff021916908360020b62ffffff1602179055508360c0015160a960036101000a81548162ffffff021916908360020b62ffffff1602179055508360e0015160a28190555083610100015160a38190555083610120015160a960066101000a81548162ffffff021916908360020b62ffffff16021790555083610140015160a960096101000a81548162ffffff021916908360020b62ffffff16021790555083610160015160a9600c6101000a81548163ffffffff021916908363ffffffff16021790555082609a60006101000a8154816001600160a01b0302191690836001600160a01b03160217905550808160020b620d89e71960020b8161221f57fe5b050260a960136101000a81548162ffffff021916908360020b62ffffff160217905550808160020b620d89e71960000360020b8161225957fe5b050260a960166101000a81548162ffffff021916908360020b62ffffff16021790555061228a8460a001518261384f565b6122988460c001518261384f565b620f42408460e0015111156122bf5760405162461bcd60e51b81526004016108fb906153f4565b600084610120015160020b12156122e85760405162461bcd60e51b81526004016108fb90615311565b600084610140015160020b12156123115760405162461bcd60e51b81526004016108fb90615374565b600084610160015163ffffffff161161233c5760405162461bcd60e51b81526004016108fb90615235565b62030d40846040015111156123635760405162461bcd60e51b81526004016108fb906155c0565b508015612376576000805461ff00191690555b505050565b609b546001600160a01b031633146123a55760405162461bcd60e51b81526004016108fb906152f0565b60008163ffffffff16116123cb5760405162461bcd60e51b81526004016108fb90615235565b60a9805463ffffffff60601b1916600160601b63ffffffff8416021790556040517f2402faf0100aca3dc010189fd1fb0e310ab05da61ce9a65457e0fe7018e920d990610939908390615643565b609a546001600160a01b031681565b60a95460009081908190819061245390600160981b8104600290810b91600160b01b9004900b611b96565b60a9549193509150600090819061247f90600160c81b8104600290810b91600160e01b9004900b611b96565b60aa54919350915060009081906124a490600281810b9163010000009004900b611b96565b915091506124c2826124bc866124bc8a6124bc6111b2565b90613237565b97506124d8816124bc856124bc896124bc610f21565b96505050505050509091565b60a954600160801b900460020b81565b609b546001600160a01b0316331461251e5760405162461bcd60e51b81526004016108fb906152f0565b609c80546001600160a01b0319166001600160a01b0383161790556040517f4d3334a0a69f5f1c54636cf743914f0b34fb2e7849b55ee7c1faddd0e06b4dfd90610939908390615081565b6099546001600160a01b031681565b600080600260655414156125d3576040805162461bcd60e51b815260206004820152601f60248201527f5265656e7472616e637947756172643a207265656e7472616e742063616c6c00604482015290519081900360640190fd5b6002606555856125f55760405162461bcd60e51b81526004016108fb90615519565b6001600160a01b0383161580159061261657506001600160a01b0383163014155b6126325760405162461bcd60e51b81526004016108fb906152d4565b600061263c610963565b90506126483388613af9565b61265e816117cd896126586111b2565b90613733565b9250612670816117cd89612658610f21565b60a954909250600090819061269c90600160981b8104600290810b91600160b01b9004900b8b86613bf5565b60a954919350915060009081906126ca90600160c81b8104600290810b91600160e01b9004900b8d88613bf5565b60aa54919350915060009081906126f190600281810b9163010000009004900b8f8a613bf5565b9092509050612706826124bc86818d8b613237565b9850612718816124bc85818c8a613237565b97508b89101561273a5760405162461bcd60e51b81526004016108fb9061526c565b8a88101561275a5760405162461bcd60e51b81526004016108fb90615558565b881561277757609854612777906001600160a01b03168b8b612cd1565b871561279457609954612794906001600160a01b03168b8a612cd1565b896001600160a01b0316336001600160a01b03167febff2602b3f468259e1e99f613fed6691f3a6526effe6ef3e768ba7ae7a36c4f8f8c8c6040516127db93929190615605565b60405180910390a350505050505050600160658190555094509492505050565b6097546001600160a01b0316331461281257600080fd5b831561282f5760985461282f906001600160a01b03163386612cd1565b821561284c5760995461284c906001600160a01b03163385612cd1565b50505050565b609b546001600160a01b0316331461287c5760405162461bcd60e51b81526004016108fb906152f0565b6098546001600160a01b038481169116148015906128a857506099546001600160a01b03848116911614155b6128c45760405162461bcd60e51b81526004016108fb9061548f565b6123766001600160a01b0384168284612cd1565b6001600160a01b03918216600090815260346020908152604080832093909416825291909152205490565b60a15481565b60a954600160481b900460020b81565b60a45481565b60a954600160981b900460020b81565b60a65481565b60a35481565b609b546001600160a01b031633146129655760405162461bcd60e51b81526004016108fb906152f0565b62030d408111156129885760405162461bcd60e51b81526004016108fb906155c0565b60a18190556040517f9a0977911ac57c05c783ebaaa0ca332f40566081c4b6afdf23d79dc193a75af290610939908390615169565b609b546001600160a01b031633146129e75760405162461bcd60e51b81526004016108fb906152f0565b60008160020b1215612a0b5760405162461bcd60e51b81526004016108fb90615311565b60a9805468ffffff0000000000001916600160301b62ffffff600285900b16021790556040517f52a3cbe96b59de1055b9b043e8906557387b821f26af47beea677164a7f26b6290610939908390615172565b609b546001600160a01b03163314612a885760405162461bcd60e51b81526004016108fb906152f0565b609d80546001600160a01b0319166001600160a01b0383161790556040517f02d71f3b54d658df30617ce7b33fa5f9835dd21a1da2a6dce6368dc9e5a40a9790610939908390615081565b60a954600160c81b900460020b81565b6097546001600160a01b03163314612afa57600080fd5b6000841315612b1a57609854612b1a906001600160a01b03163386612cd1565b600083131561284c5760995461284c906001600160a01b03163385612cd1565b609b546001600160a01b03163314612b645760405162461bcd60e51b81526004016108fb906152f0565b60a6805460a78054600093849055929055908115612b9357609854612b93906001600160a01b03168484612cd1565b8015612bb057609954612bb0906001600160a01b03168483612cd1565b7f17f6807ba08fcbc6bc82aff717379b30802e04cff0756017bf22b2a490d0ab658282604051610aa29291906155f7565b3390565b6001600160a01b038316612c2a5760405162461bcd60e51b815260040180806020018281038252602481526020018061584e6024913960400191505060405180910390fd5b6001600160a01b038216612c6f5760405162461bcd60e51b81526004018080602001828103825260228152602001806157236022913960400191505060405180910390fd5b6001600160a01b03808416600081815260346020908152604080832094871680845294825291829020859055815185815291517f8c5be1e5ebec7d5bd14f71427d1e84f3dd0314c0f7b2291e5b200ac8c7c3b9259281900390910190a3505050565b604080516001600160a01b038416602482015260448082018490528251808303909101815260649091019091526020810180516001600160e01b031663a9059cbb60e01b179052612376908490613c9b565b6001600160a01b038316612d685760405162461bcd60e51b81526004018080602001828103825260258152602001806158296025913960400191505060405180910390fd5b6001600160a01b038216612dad5760405162461bcd60e51b81526004018080602001828103825260238152602001806156de6023913960400191505060405180910390fd5b612db8838383612376565b612df581604051806060016040528060268152602001615745602691396001600160a01b0386166000908152603360205260409020549190612e80565b6001600160a01b038085166000908152603360205260408082209390935590841681522054612e249082613237565b6001600160a01b0380841660008181526033602090815260409182902094909455805185815290519193928716927fddf252ad1be2c89b69c2b068fc378daa952ba7f163c4a11628f55a4df523b3ef92918290030190a3505050565b60008184841115612f0f5760405162461bcd60e51b81526004018080602001828103825283818151815260200191508051906020019080838360005b83811015612ed4578181015183820152602001612ebc565b50505050905090810190601f168015612f015780820380516001836020036101000a031916815260200191505b509250505060405180910390fd5b505050900390565b6000612f2383836132ee565b5050505090506000816001600160801b031611156123765760975460405163a34123a760e01b81526001600160a01b039091169063a34123a790612f709086908690600090600401615180565b6040805180830381600087803b158015612f8957600080fd5b505af1158015612f9d573d6000803e3d6000fd5b505050506040513d601f19601f82011682018060405250810190611d7d9190614fc6565b600080600080612fcf610963565b9050600080612fdc612428565b915091508260001480612fef5750600082115b80612ffa5750600081115b61300057fe5b826130265787945086935061301f620f4240858711611c2857856124bc565b95506130e1565b8161303c5786935061301f816117cd8686613733565b806130525787945061301f826117cd8786613733565b600061305e8983613733565b9050600061306c8985613733565b9050600081831161307d578261307f565b815b9050600081116130a15760405162461bcd60e51b81526004016108fb90615539565b6130b460016124bc866117cd8584613291565b97506130c960016124bc876117cd8584613291565b96506130db846117cd8781858b613733565b98505050505b5050509250925092565b604080516001600160a01b0380861660248301528416604482015260648082018490528251808303909101815260849091019091526020810180516001600160e01b03166323b872dd60e01b17905261284c908590613c9b565b6001600160a01b0382166131a0576040805162461bcd60e51b815260206004820152601f60248201527f45524332303a206d696e7420746f20746865207a65726f206164647265737300604482015290519081900360640190fd5b6131ac60008383612376565b6035546131b99082613237565b6035556001600160a01b0382166000908152603360205260409020546131df9082613237565b6001600160a01b03831660008181526033602090815260408083209490945583518581529351929391927fddf252ad1be2c89b69c2b068fc378daa952ba7f163c4a11628f55a4df523b3ef9281900390910190a35050565b600082820183811015610b30576040805162461bcd60e51b815260206004820152601b60248201527f536166654d6174683a206164646974696f6e206f766572666c6f770000000000604482015290519081900360640190fd5b6000828211156132e8576040805162461bcd60e51b815260206004820152601e60248201527f536166654d6174683a207375627472616374696f6e206f766572666c6f770000604482015290519081900360640190fd5b50900390565b600080600080600080613302308989613d4c565b60975460405163514ea4bf60e01b81529192506001600160a01b03169063514ea4bf90613333908490600401615169565b60a06040518083038186803b15801561334b57600080fd5b505afa15801561335f573d6000803e3d6000fd5b505050506040513d601f19601f820116820180604052508101906133839190614e9b565b939c929b5090995097509095509350505050565b60008080806001600160801b038516156134365760975460405163a34123a760e01b81526001600160a01b039091169063a34123a7906133df908a908a908a90600401615180565b6040805180830381600087803b1580156133f857600080fd5b505af115801561340c573d6000803e3d6000fd5b505050506040513d601f19601f820116820180604052508101906134309190614fc6565b90945092505b6097546040516309e3d67b60e31b815260009182916001600160a01b0390911690634f1eb3d89061347a9030908d908d906001600160801b039081906004016150d7565b6040805180830381600087803b15801561349357600080fd5b505af11580156134a7573d6000803e3d6000fd5b505050506040513d601f19601f820116820180604052508101906134cb9190614e6d565b6001600160801b0391821693501690506134e58287613291565b93506134f18186613291565b609f54909350600061350a620f42406117cd8885613733565b9050600061351f620f42406117cd8886613733565b60a45490915061352f9083613237565b60a45560a55461353f9082613237565b60a55560a05460008082156135965761355f620f42406117cd8c86613733565b9150613572620f42406117cd8b86613733565b60a6549091506135829083613237565b60a65560a7546135929082613237565b60a7555b6135a482610fb48c88613291565b99506135b481610fb48b87613291565b98507f3d6c49c42d0f03a60a09b6137b84abbd7a0bf738324602cb48343f830e3db4708a8a878786866040516135ef9695949392919061561b565b60405180910390a1505050505050505093509350935093565b60008060a960109054906101000a900460020b60020b8360020b8161362957fe5b05905060008360020b12801561365d575060a954600160801b9004600290810b810b9084900b8161365657fe5b0760020b15155b1561366757600019015b60a954600160801b900460020b0292915050565b600080609760009054906101000a90046001600160a01b03166001600160a01b0316633850c7bd6040518163ffffffff1660e01b815260040160e06040518083038186803b1580156136cc57600080fd5b505afa1580156136e0573d6000803e3d6000fd5b505050506040513d601f19601f820116820180604052508101906137049190614efc565b50505050505090506137298161371988613da2565b61372288613da2565b87876140d4565b9695505050505050565b600082613742575060006108ac565b8282028284828161374f57fe5b0414610b305760405162461bcd60e51b81526004018080602001828103825260218152602001806157bf6021913960400191505060405180910390fd5b60008082116137e2576040805162461bcd60e51b815260206004820152601a60248201527f536166654d6174683a206469766973696f6e206279207a65726f000000000000604482015290519081900360640190fd5b8183816137eb57fe5b049392505050565b60006001600160801b0382111561380657fe5b5090565b6001600160801b0381161561237657609754604051633c8a7d8d60e01b81526001600160a01b0390911690633c8a7d8d90612f70903090879087908790600401615095565b60008260020b136138725760405162461bcd60e51b81526004016108fb9061542b565b620d89e8600283900b13156138995760405162461bcd60e51b81526004016108fb90615348565b8060020b8260020b816138a857fe5b0760020b156138c95760405162461bcd60e51b81526004016108fb906153ab565b5050565b6000806000609760009054906101000a90046001600160a01b03166001600160a01b0316633850c7bd6040518163ffffffff1660e01b815260040160e06040518083038186803b15801561392057600080fd5b505afa158015613934573d6000803e3d6000fd5b505050506040513d601f19601f820116820180604052508101906139589190614efc565b505050505050905061397c8161396d88613da2565b61397688613da2565b87614198565b9250925050935093915050565b600061399430614234565b15905090565b600054610100900460ff16806139b357506139b3613989565b806139c1575060005460ff16155b6139fc5760405162461bcd60e51b815260040180806020018281038252602e815260200180615791602e913960400191505060405180910390fd5b600054610100900460ff16158015613a27576000805460ff1961ff0019909116610100171660011790555b613a2f61423a565b613a3983836142da565b8015612376576000805461ff0019169055505050565b600054610100900460ff1680613a685750613a68613989565b80613a76575060005460ff16155b613ab15760405162461bcd60e51b815260040180806020018281038252602e815260200180615791602e913960400191505060405180910390fd5b600054610100900460ff16158015613adc576000805460ff1961ff0019909116610100171660011790555b613ae46143b2565b8015613af6576000805461ff00191690555b50565b6001600160a01b038216613b3e5760405162461bcd60e51b81526004018080602001828103825260218152602001806158086021913960400191505060405180910390fd5b613b4a82600083612376565b613b8781604051806060016040528060228152602001615701602291396001600160a01b0385166000908152603360205260409020549190612e80565b6001600160a01b038316600090815260336020526040902055603554613bad9082613291565b6035556040805182815290516000916001600160a01b038516917fddf252ad1be2c89b69c2b068fc378daa952ba7f163c4a11628f55a4df523b3ef9181900360200190a35050565b6000806000613c0487876132ee565b5050505090506000613c2c856117cd88856001600160801b031661373390919063ffffffff16565b90508015613c9057600080600080613c4d8c8c613c48886137f3565b613397565b92965090945092509050613c6f613c688a6117cd858e613733565b8590613237565b9750613c89613c828a6117cd848e613733565b8490613237565b9650505050505b505094509492505050565b6000613cf0826040518060400160405280602081526020017f5361666545524332303a206c6f772d6c6576656c2063616c6c206661696c6564815250856001600160a01b03166144589092919063ffffffff16565b80519091501561237657808060200190516020811015613d0f57600080fd5b50516123765760405162461bcd60e51b815260040180806020018281038252602a815260200180615872602a913960400191505060405180910390fd5b6040805160609490941b6bffffffffffffffffffffffff1916602080860191909152600293840b60e890811b60348701529290930b90911b60378401528051808403601a018152603a9093019052815191012090565b60008060008360020b12613db9578260020b613dc1565b8260020b6000035b9050620d89e8811115613dff576040805162461bcd60e51b81526020600482015260016024820152601560fa1b604482015290519081900360640190fd5b600060018216613e1357600160801b613e25565b6ffffcb933bd6fad37aa2d162d1a5940015b70ffffffffffffffffffffffffffffffffff1690506002821615613e59576ffff97272373d413259a46990580e213a0260801c5b6004821615613e78576ffff2e50f5f656932ef12357cf3c7fdcc0260801c5b6008821615613e97576fffe5caca7e10e4e61c3624eaa0941cd00260801c5b6010821615613eb6576fffcb9843d60f6159c9db58835c9266440260801c5b6020821615613ed5576fff973b41fa98c081472e6896dfb254c00260801c5b6040821615613ef4576fff2ea16466c96a3843ec78b326b528610260801c5b6080821615613f13576ffe5dee046a99a2a811c461f1969c30530260801c5b610100821615613f33576ffcbe86c7900a88aedcffc83b479aa3a40260801c5b610200821615613f53576ff987a7253ac413176f2b074cf7815e540260801c5b610400821615613f73576ff3392b0822b70005940c7a398e4b70f30260801c5b610800821615613f93576fe7159475a2c29b7443b29c7fa6e889d90260801c5b611000821615613fb3576fd097f3bdfd2022b8845ad8f792aa58250260801c5b612000821615613fd3576fa9f746462d870fdf8a65dc1f90e061e50260801c5b614000821615613ff3576f70d869a156d2a1b890bb3df62baf32f70260801c5b618000821615614013576f31be135f97d08fd981231505542fcfa60260801c5b62010000821615614034576f09aa508b5b7a84e1c677de54f3e99bc90260801c5b62020000821615614054576e5d6af8dedb81196699c329225ee6040260801c5b62040000821615614073576d2216e584f5fa1ea926041bedfe980260801c5b62080000821615614090576b048a170391f7dc42444e8fa20260801c5b60008460020b13156140ab5780600019816140a757fe5b0490505b6401000000008106156140bf5760016140c2565b60005b60ff16602082901c0192505050919050565b6000836001600160a01b0316856001600160a01b031611156140f4579293925b846001600160a01b0316866001600160a01b03161161411f5761411885858561446f565b905061418f565b836001600160a01b0316866001600160a01b0316101561418157600061414687868661446f565b905060006141558789866144d2565b9050806001600160801b0316826001600160801b0316106141765780614178565b815b9250505061418f565b61418c8585846144d2565b90505b95945050505050565b600080836001600160a01b0316856001600160a01b031611156141b9579293925b846001600160a01b0316866001600160a01b0316116141e4576141dd85858561450f565b915061422b565b836001600160a01b0316866001600160a01b0316101561421d5761420986858561450f565b9150614216858785614578565b905061422b565b614228858585614578565b90505b94509492505050565b3b151590565b600054610100900460ff16806142535750614253613989565b80614261575060005460ff16155b61429c5760405162461bcd60e51b815260040180806020018281038252602e815260200180615791602e913960400191505060405180910390fd5b600054610100900460ff16158015613ae4576000805460ff1961ff0019909116610100171660011790558015613af6576000805461ff001916905550565b600054610100900460ff16806142f357506142f3613989565b80614301575060005460ff16155b61433c5760405162461bcd60e51b815260040180806020018281038252602e815260200180615791602e913960400191505060405180910390fd5b600054610100900460ff16158015614367576000805460ff1961ff0019909116610100171660011790555b825161437a906036906020860190614841565b50815161438e906037906020850190614841565b506038805460ff191660121790558015612376576000805461ff0019169055505050565b600054610100900460ff16806143cb57506143cb613989565b806143d9575060005460ff16155b6144145760405162461bcd60e51b815260040180806020018281038252602e815260200180615791602e913960400191505060405180910390fd5b600054610100900460ff1615801561443f576000805460ff1961ff0019909116610100171660011790555b60016065558015613af6576000805461ff001916905550565b606061446784846000856145bb565b949350505050565b6000826001600160a01b0316846001600160a01b0316111561448f579192915b60006144b2856001600160a01b0316856001600160a01b0316600160601b614716565b905061418f6144cd84838888036001600160a01b0316614716565b6147c5565b6000826001600160a01b0316846001600160a01b031611156144f2579192915b6144676144cd83600160601b8787036001600160a01b0316614716565b6000826001600160a01b0316846001600160a01b0316111561452f579192915b836001600160a01b0316614568606060ff16846001600160801b0316901b8686036001600160a01b0316866001600160a01b0316614716565b8161456f57fe5b04949350505050565b6000826001600160a01b0316846001600160a01b03161115614598579192915b614467826001600160801b03168585036001600160a01b0316600160601b614716565b6060824710156145fc5760405162461bcd60e51b815260040180806020018281038252602681526020018061576b6026913960400191505060405180910390fd5b61460585614234565b614656576040805162461bcd60e51b815260206004820152601d60248201527f416464726573733a2063616c6c20746f206e6f6e2d636f6e7472616374000000604482015290519081900360640190fd5b600080866001600160a01b031685876040518082805190602001908083835b602083106146945780518252601f199092019160209182019101614675565b6001836020036101000a03801982511681845116808217855250505050505090500191505060006040518083038185875af1925050503d80600081146146f6576040519150601f19603f3d011682016040523d82523d6000602084013e6146fb565b606091505b509150915061470b8282866147db565b979650505050505050565b600080806000198587098686029250828110908390030390508061474c576000841161474157600080fd5b508290049050610b30565b80841161475857600080fd5b6000848688096000868103871696879004966002600389028118808a02820302808a02820302808a02820302808a02820302808a02820302808a02909103029181900381900460010186841190950394909402919094039290920491909117919091029150509392505050565b806001600160801b038116811461122557600080fd5b606083156147ea575081610b30565b8251156147fa5782518084602001fd5b60405162461bcd60e51b8152602060048201818152845160248401528451859391928392604401919085019080838360008315612ed4578181015183820152602001612ebc565b828054600181600116156101000203166002900490600052602060002090601f01602090048101928261487757600085556148bd565b82601f1061489057805160ff19168380011785556148bd565b828001600101855582156148bd579182015b828111156148bd5782518255916020019190600101906148a2565b506138069291505b8082111561380657600081556001016148c5565b8035611225816156a4565b600082601f8301126148f4578081fd5b8151602061490961490483615686565b615662565b8281528181019085830183850287018401881015614925578586fd5b855b8581101561494c57815161493a816156a4565b84529284019290840190600101614927565b5090979650505050505050565b60008083601f84011261496a578182fd5b50813567ffffffffffffffff811115614981578182fd5b60208301915083602082850101111561499957600080fd5b9250929050565b8035611225816156b9565b600082601f8301126149bb578081fd5b813567ffffffffffffffff8111156149cf57fe5b6149e2601f8201601f1916602001615662565b8181528460208386010111156149f6578283fd5b816020850160208301379081016020019190915292915050565b805161ffff8116811461122557600080fd5b803563ffffffff8116811461122557600080fd5b600060208284031215614a47578081fd5b8135610b30816156a4565b600060208284031215614a63578081fd5b8151610b30816156a4565b60008060408385031215614a80578081fd5b8235614a8b816156a4565b91506020830135614a9b816156a4565b809150509250929050565b600080600060608486031215614aba578081fd5b8335614ac5816156a4565b92506020840135614ad5816156a4565b929592945050506040919091013590565b60008060408385031215614af8578182fd5b8235614b03816156a4565b946020939093013593505050565b60008060408385031215614b23578182fd5b825167ffffffffffffffff80821115614b3a578384fd5b818501915085601f830112614b4d578384fd5b81516020614b5d61490483615686565b82815281810190858301838502870184018b1015614b79578889fd5b8896505b84871015614ba95780518060060b8114614b9557898afd5b835260019690960195918301918301614b7d565b5091880151919650909350505080821115614bc2578283fd5b50614bcf858286016148e4565b9150509250929050565b600080600060608486031215614bed578081fd5b8335614bf8816156a4565b9250602084013591506040840135614c0f816156a4565b809150509250925092565b600060208284031215614c2b578081fd5b8135610b30816156b9565b600060208284031215614c47578081fd5b8151610b30816156b9565b60008060408385031215614c64578182fd5b8235614c6f816156b9565b91506020830135614a9b816156b9565b600080600060608486031215614c93578081fd5b8335614c9e816156b9565b92506020840135614cae816156b9565b91506040840135614c0f816156c8565b60008060008060608587031215614cd3578182fd5b8435935060208501359250604085013567ffffffffffffffff811115614cf7578283fd5b614d0387828801614959565b95989497509550505050565b60008060408385031215614d21578182fd5b823567ffffffffffffffff80821115614d38578384fd5b81850191506101c0808388031215614d4e578485fd5b614d5781615662565b9050614d62836148d9565b8152614d70602084016148d9565b602082015260408301356040820152614d8b606084016148d9565b606082015260808301356080820152614da660a084016149a0565b60a0820152614db760c084016149a0565b60c082015260e083013560e0820152610100808401358183015250610120614de08185016149a0565b90820152610140614df28482016149a0565b90820152610160614e04848201614a22565b908201526101808381013583811115614e1b578687fd5b614e27898287016149ab565b8284015250506101a08084013583811115614e40578687fd5b614e4c898287016149ab565b828401525050809450505050614e64602084016148d9565b90509250929050565b60008060408385031215614e7f578182fd5b8251614e8a816156c8565b6020840151909250614a9b816156c8565b600080600080600060a08688031215614eb2578283fd5b8551614ebd816156c8565b8095505060208601519350604086015192506060860151614edd816156c8565b6080870151909250614eee816156c8565b809150509295509295909350565b600080600080600080600060e0888a031215614f16578485fd5b8751614f21816156a4565b6020890151909750614f32816156b9565b9550614f4060408901614a10565b9450614f4e60608901614a10565b9350614f5c60808901614a10565b925060a088015160ff81168114614f71578283fd5b60c08901519092508015158114614f86578182fd5b8091505092959891949750929550565b600060208284031215614fa7578081fd5b5035919050565b600060208284031215614fbf578081fd5b5051919050565b60008060408385031215614fd8578182fd5b505080516020909101519092909150565b60008060008060808587031215614ffe578182fd5b843593506020850135925060408501359150606085013561501e816156a4565b939692955090935050565b600080600080600060a08688031215615040578283fd5b853594506020860135935060408601359250606086013591506080860135614eee816156a4565b600060208284031215615078578081fd5b610b3082614a22565b6001600160a01b0391909116815260200190565b6001600160a01b03949094168452600292830b6020850152910b60408301526001600160801b0316606082015260a06080820181905260009082015260c00190565b6001600160a01b03959095168552600293840b60208601529190920b60408401526001600160801b03918216606084015216608082015260a00190565b6020808252825182820181905260009190848201906040850190845b8181101561515257835163ffffffff1683529284019291840191600101615130565b50909695505050505050565b901515815260200190565b90815260200190565b60029190910b815260200190565b600293840b81529190920b60208201526001600160801b03909116604082015260600190565b60029490940b845260208401929092526040830152606082015260800190565b6000602080835283518082850152825b818110156151f2578581018301518582016040015282016151d6565b818111156152035783604083870101525b50601f01601f1916929092016040019392505050565b602080825260029082015261544d60f01b604082015260600190565b60208082526018908201527f747761704475726174696f6e206d757374206265203e20300000000000000000604082015260600190565b6020808252600a908201526930b6b7bab73a1826b4b760b11b604082015260600190565b6020808252600e908201526d3832b73234b733a6b0b730b3b2b960911b604082015260600190565b602080825260029082015261504560f01b604082015260600190565b602080825260029082015261746f60f01b604082015260600190565b60208082526007908201526636b0b730b3b2b960c91b604082015260600190565b60208082526018908201527f6d696e5469636b4d6f7665206d757374206265203e3d20300000000000000000604082015260600190565b6020808252601290820152710e8d0e4cae6d0ded8c840e8dede40d0d2ced60731b604082015260600190565b6020808252601d908201527f6d617854776170446576696174696f6e206d757374206265203e3d2030000000604082015260600190565b60208082526029908201527f7468726573686f6c64206d757374206265206d756c7469706c65206f66207469604082015268636b53706163696e6760b81b606082015260800190565b6020808252601e908201527f66756c6c52616e6765576569676874206d757374206265203c3d203165360000604082015260600190565b60208082526015908201527407468726573686f6c64206d757374206265203e203605c1b604082015260600190565b6020808252818101527f616d6f756e743044657369726564206f7220616d6f756e743144657369726564604082015260600190565b6020808252600590820152643a37b5b2b760d91b604082015260600190565b602080825260119082015270726562616c616e636544656c656761746560781b604082015260600190565b602080825260029082015261054560f41b604082015260600190565b6020808252600a9082015269676f7665726e616e636560b01b604082015260600190565b60208082526006908201526573686172657360d01b604082015260600190565b60208082526005908201526463726f737360d81b604082015260600190565b6020808252600a908201526930b6b7bab73a18a6b4b760b11b604082015260600190565b602080825260029082015261282160f11b604082015260600190565b6020808252600e908201526d6d6178546f74616c537570706c7960901b604082015260600190565b6020808252601c908201527f6d616e61676572466565206d757374206265203c3d2032303030303000000000604082015260600190565b918252602082015260400190565b9283526020830191909152604082015260600190565b958652602086019490945260408501929092526060840152608083015260a082015260c00190565b63ffffffff91909116815260200190565b60ff91909116815260200190565b60405181810167ffffffffffffffff8111828210171561567e57fe5b604052919050565b600067ffffffffffffffff82111561569a57fe5b5060209081020190565b6001600160a01b0381168114613af657600080fd5b8060020b8114613af657600080fd5b6001600160801b0381168114613af657600080fdfe45524332303a207472616e7366657220746f20746865207a65726f206164647265737345524332303a206275726e20616d6f756e7420657863656564732062616c616e636545524332303a20617070726f766520746f20746865207a65726f206164647265737345524332303a207472616e7366657220616d6f756e7420657863656564732062616c616e6365416464726573733a20696e73756666696369656e742062616c616e636520666f722063616c6c496e697469616c697a61626c653a20636f6e747261637420697320616c726561647920696e697469616c697a6564536166654d6174683a206d756c7469706c69636174696f6e206f766572666c6f7745524332303a207472616e7366657220616d6f756e74206578636565647320616c6c6f77616e636545524332303a206275726e2066726f6d20746865207a65726f206164647265737345524332303a207472616e736665722066726f6d20746865207a65726f206164647265737345524332303a20617070726f76652066726f6d20746865207a65726f20616464726573735361666545524332303a204552433230206f7065726174696f6e20646964206e6f74207375636365656445524332303a2064656372656173656420616c6c6f77616e63652062656c6f77207a65726fa26469706673582212203e55e973b514b30488204367545624bed06a56ad8a1b27a0df4d68e5d40d4eb064736f6c63430007060033",
  "devdoc": {
    "kind": "dev",
    "methods": {
      "allowance(address,address)": {
        "details": "See {IERC20-allowance}."
      },
      "approve(address,uint256)": {
        "details": "See {IERC20-approve}. Requirements: - `spender` cannot be the zero address."
      },
      "balanceOf(address)": {
        "details": "See {IERC20-balanceOf}."
      },
      "decimals()": {
        "details": "Returns the number of decimals used to get its user representation. For example, if `decimals` equals `2`, a balance of `505` tokens should be displayed to a user as `5,05` (`505 / 10 ** 2`). Tokens usually opt for a value of 18, imitating the relationship between Ether and Wei. This is the value {ERC20} uses, unless {_setupDecimals} is called. NOTE: This information is only used for _display_ purposes: it in no way affects any of the arithmetic of the contract, including {IERC20-balanceOf} and {IERC20-transfer}."
      },
      "decreaseAllowance(address,uint256)": {
        "details": "Atomically decreases the allowance granted to `spender` by the caller. This is an alternative to {approve} that can be used as a mitigation for problems described in {IERC20-approve}. Emits an {Approval} event indicating the updated allowance. Requirements: - `spender` cannot be the zero address. - `spender` must have allowance for the caller of at least `subtractedValue`."
      },
      "deposit(uint256,uint256,uint256,uint256,address)": {
        "details": "These tokens sit in the vault and are not used for liquidity on Uniswap until the next rebalance. Also note it's not necessary to check if user manipulated price to deposit cheaper, as the value of range orders can only by manipulated higher.",
        "params": {
          "amount0Desired": "Max amount of token0 to deposit",
          "amount0Min": "Revert if resulting `amount0` is less than this",
          "amount1Desired": "Max amount of token1 to deposit",
          "amount1Min": "Revert if resulting `amount1` is less than this",
          "to": "Recipient of shares"
        },
        "returns": {
          "amount0": "Amount of token0 deposited",
          "amount1": "Amount of token1 deposited",
          "shares": "Number of shares minted"
        }
      },
      "getTwap()": {
        "details": "Fetches time-weighted average price in ticks from Uniswap pool."
      },
      "increaseAllowance(address,uint256)": {
        "details": "Atomically increases the allowance granted to `spender` by the caller. This is an alternative to {approve} that can be used as a mitigation for problems described in {IERC20-approve}. Emits an {Approval} event indicating the updated allowance. Requirements: - `spender` cannot be the zero address."
      },
      "name()": {
        "details": "Returns the name of the token."
      },
      "rebalance()": {
        "details": "Three orders are placed - a full-range order, a base order and a limit order. The full-range order is placed first. Then the base order is placed with as much remaining liquidity as possible. This order should use up all of one token, leaving only the other one. This excess amount is then placed as a single-sided bid or ask order."
      },
      "symbol()": {
        "details": "Returns the symbol of the token, usually a shorter version of the name."
      },
      "totalSupply()": {
        "details": "See {IERC20-totalSupply}."
      },
      "transfer(address,uint256)": {
        "details": "See {IERC20-transfer}. Requirements: - `recipient` cannot be the zero address. - the caller must have a balance of at least `amount`."
      },
      "transferFrom(address,address,uint256)": {
        "details": "See {IERC20-transferFrom}. Emits an {Approval} event indicating the updated allowance. This is not required by the EIP. See the note at the beginning of {ERC20}. Requirements: - `sender` and `recipient` cannot be the zero address. - `sender` must have a balance of at least `amount`. - the caller must have allowance for ``sender``'s tokens of at least `amount`."
      },
      "uniswapV3MintCallback(uint256,uint256,bytes)": {
        "details": "Callback for Uniswap V3 pool."
      },
      "uniswapV3SwapCallback(int256,int256,bytes)": {
        "details": "Callback for Uniswap V3 pool."
      },
      "withdraw(uint256,uint256,uint256,address)": {
        "params": {
          "amount0Min": "Revert if resulting `amount0` is smaller than this",
          "amount1Min": "Revert if resulting `amount1` is smaller than this",
          "shares": "Shares burned by sender",
          "to": "Recipient of tokens"
        },
        "returns": {
          "amount0": "Amount of token0 sent to recipient",
          "amount1": "Amount of token1 sent to recipient"
        }
      }
    },
    "title": "Alpha Pro Vault",
    "version": 1
  },
  "userdoc": {
    "kind": "user",
    "methods": {
      "acceptManager()": {
        "notice": "`setManager()` should be called by the existing manager address prior to calling this function."
      },
      "collectProtocol(address)": {
        "notice": "Used to collect accumulated protocol fees."
      },
      "deposit(uint256,uint256,uint256,uint256,address)": {
        "notice": "Deposits tokens in proportion to the vault's current holdings."
      },
      "emergencyBurn(int24,int24,uint128)": {
        "notice": "Removes liquidity in case of emergency."
      },
      "getBalance0()": {
        "notice": "Balance of token0 in vault not used in any position."
      },
      "getBalance1()": {
        "notice": "Balance of token1 in vault not used in any position."
      },
      "getPositionAmounts(int24,int24)": {
        "notice": "Amounts of token0 and token1 held in vault's position. Includes owed fees but excludes the proportion of fees that will be paid to the protocol. Doesn't include fees accrued since last poke."
      },
      "getTotalAmounts()": {
        "notice": "Calculates the vault's total holdings of token0 and token1 - in other words, how much of each token the vault would hold if it withdrew all its liquidity from Uniswap."
      },
      "rebalance()": {
        "notice": "Updates vault's positions."
      },
      "setManager(address)": {
        "notice": "Manager address is not updated until the new manager address has called `acceptManager()` to accept this responsibility."
      },
      "setManagerFee(uint256)": {
        "notice": "Change the manager fee charged on pool fees earned from Uniswap, expressed as multiple of 1e-6. Fee is hard capped at 20%."
      },
      "setMaxTotalSupply(uint256)": {
        "notice": "Used to change deposit cap for a guarded launch or to ensure vault doesn't grow too large relative to the pool. Cap is on total supply rather than amounts of token0 and token1 as those amounts fluctuate naturally over time."
      },
      "sweep(address,uint256,address)": {
        "notice": "Removes tokens accidentally sent to this vault."
      },
      "withdraw(uint256,uint256,uint256,address)": {
        "notice": "Withdraws tokens in proportion to the vault's holdings."
      }
    },
    "notice": "A vault that provides liquidity on Uniswap V3.",
    "version": 1
  },
  "storageLayout": {
    "storage": [
      {
        "astId": 361,
        "contract": "contracts/AlphaProVault.sol:AlphaProVault",
        "label": "_initialized",
        "offset": 0,
        "slot": "0",
        "type": "t_bool"
      },
      {
        "astId": 364,
        "contract": "contracts/AlphaProVault.sol:AlphaProVault",
        "label": "_initializing",
        "offset": 1,
        "slot": "0",
        "type": "t_bool"
      },
      {
        "astId": 1529,
        "contract": "contracts/AlphaProVault.sol:AlphaProVault",
        "label": "__gap",
        "offset": 0,
        "slot": "1",
        "type": "t_array(t_uint256)50_storage"
      },
      {
        "astId": 440,
        "contract": "contracts/AlphaProVault.sol:AlphaProVault",
        "label": "_balances",
        "offset": 0,
        "slot": "51",
        "type": "t_mapping(t_address,t_uint256)"
      },
      {
        "astId": 446,
        "contract": "contracts/AlphaProVault.sol:AlphaProVault",
        "label": "_allowances",
        "offset": 0,
        "slot": "52",
        "type": "t_mapping(t_address,t_mapping(t_address,t_uint256))"
      },
      {
        "astId": 448,
        "contract": "contracts/AlphaProVault.sol:AlphaProVault",
        "label": "_totalSupply",
        "offset": 0,
        "slot": "53",
        "type": "t_uint256"
      },
      {
        "astId": 450,
        "contract": "contracts/AlphaProVault.sol:AlphaProVault",
        "label": "_name",
        "offset": 0,
        "slot": "54",
        "type": "t_string_storage"
      },
      {
        "astId": 452,
        "contract": "contracts/AlphaProVault.sol:AlphaProVault",
        "label": "_symbol",
        "offset": 0,
        "slot": "55",
        "type": "t_string_storage"
      },
      {
        "astId": 454,
        "contract": "contracts/AlphaProVault.sol:AlphaProVault",
        "label": "_decimals",
        "offset": 0,
        "slot": "56",
        "type": "t_uint8"
      },
      {
        "astId": 949,
        "contract": "contracts/AlphaProVault.sol:AlphaProVault",
        "label": "__gap",
        "offset": 0,
        "slot": "57",
        "type": "t_array(t_uint256)44_storage"
      },
      {
        "astId": 1544,
        "contract": "contracts/AlphaProVault.sol:AlphaProVault",
        "label": "_status",
        "offset": 0,
        "slot": "101",
        "type": "t_uint256"
      },
      {
        "astId": 1587,
        "contract": "contracts/AlphaProVault.sol:AlphaProVault",
        "label": "__gap",
        "offset": 0,
        "slot": "102",
        "type": "t_array(t_uint256)49_storage"
      },
      {
        "astId": 3923,
        "contract": "contracts/AlphaProVault.sol:AlphaProVault",
        "label": "pool",
        "offset": 0,
        "slot": "151",
        "type": "t_contract(IUniswapV3Pool)1693"
      },
      {
        "astId": 3925,
        "contract": "contracts/AlphaProVault.sol:AlphaProVault",
        "label": "token0",
        "offset": 0,
        "slot": "152",
        "type": "t_contract(IERC20Upgradeable)1028"
      },
      {
        "astId": 3927,
        "contract": "contracts/AlphaProVault.sol:AlphaProVault",
        "label": "token1",
        "offset": 0,
        "slot": "153",
        "type": "t_contract(IERC20Upgradeable)1028"
      },
      {
        "astId": 3929,
        "contract": "contracts/AlphaProVault.sol:AlphaProVault",
        "label": "factory",
        "offset": 0,
        "slot": "154",
        "type": "t_contract(AlphaProVaultFactory)6608"
      },
      {
        "astId": 3932,
        "contract": "contracts/AlphaProVault.sol:AlphaProVault",
        "label": "manager",
        "offset": 0,
        "slot": "155",
        "type": "t_address"
      },
      {
        "astId": 3935,
        "contract": "contracts/AlphaProVault.sol:AlphaProVault",
        "label": "pendingManager",
        "offset": 0,
        "slot": "156",
        "type": "t_address"
      },
      {
        "astId": 3938,
        "contract": "contracts/AlphaProVault.sol:AlphaProVault",
        "label": "rebalanceDelegate",
        "offset": 0,
        "slot": "157",
        "type": "t_address"
      },
      {
        "astId": 3941,
        "contract": "contracts/AlphaProVault.sol:AlphaProVault",
        "label": "maxTotalSupply",
        "offset": 0,
        "slot": "158",
        "type": "t_uint256"
      },
      {
        "astId": 3944,
        "contract": "contracts/AlphaProVault.sol:AlphaProVault",
        "label": "protocolFee",
        "offset": 0,
        "slot": "159",
        "type": "t_uint256"
      },
      {
        "astId": 3947,
        "contract": "contracts/AlphaProVault.sol:AlphaProVault",
        "label": "managerFee",
        "offset": 0,
        "slot": "160",
        "type": "t_uint256"
      },
      {
        "astId": 3950,
        "contract": "contracts/AlphaProVault.sol:AlphaProVault",
        "label": "pendingManagerFee",
        "offset": 0,
        "slot": "161",
        "type": "t_uint256"
      },
      {
        "astId": 3953,
        "contract": "contracts/AlphaProVault.sol:AlphaProVault",
        "label": "fullRangeWeight",
        "offset": 0,
        "slot": "162",
        "type": "t_uint256"
      },
      {
        "astId": 3956,
        "contract": "contracts/AlphaProVault.sol:AlphaProVault",
        "label": "period",
        "offset": 0,
        "slot": "163",
        "type": "t_uint256"
      },
      {
        "astId": 3959,
        "contract": "contracts/AlphaProVault.sol:AlphaProVault",
        "label": "accruedProtocolFees0",
        "offset": 0,
        "slot": "164",
        "type": "t_uint256"
      },
      {
        "astId": 3962,
        "contract": "contracts/AlphaProVault.sol:AlphaProVault",
        "label": "accruedProtocolFees1",
        "offset": 0,
        "slot": "165",
        "type": "t_uint256"
      },
      {
        "astId": 3965,
        "contract": "contracts/AlphaProVault.sol:AlphaProVault",
        "label": "accruedManagerFees0",
        "offset": 0,
        "slot": "166",
        "type": "t_uint256"
      },
      {
        "astId": 3968,
        "contract": "contracts/AlphaProVault.sol:AlphaProVault",
        "label": "accruedManagerFees1",
        "offset": 0,
        "slot": "167",
        "type": "t_uint256"
      },
      {
        "astId": 3971,
        "contract": "contracts/AlphaProVault.sol:AlphaProVault",
        "label": "lastTimestamp",
        "offset": 0,
        "slot": "168",
        "type": "t_uint256"
      },
      {
        "astId": 3974,
        "contract": "contracts/AlphaProVault.sol:AlphaProVault",
        "label": "baseThreshold",
        "offset": 0,
        "slot": "169",
        "type": "t_int24"
      },
      {
        "astId": 3977,
        "contract": "contracts/AlphaProVault.sol:AlphaProVault",
        "label": "limitThreshold",
        "offset": 3,
        "slot": "169",
        "type": "t_int24"
      },
      {
        "astId": 3980,
        "contract": "contracts/AlphaProVault.sol:AlphaProVault",
        "label": "minTickMove",
        "offset": 6,
        "slot": "169",
        "type": "t_int24"
      },
      {
        "astId": 3983,
        "contract": "contracts/AlphaProVault.sol:AlphaProVault",
        "label": "maxTwapDeviation",
        "offset": 9,
        "slot": "169",
        "type": "t_int24"
      },
      {
        "astId": 3986,
        "contract": "contracts/AlphaProVault.sol:AlphaProVault",
        "label": "twapDuration",
        "offset": 12,
        "slot": "169",
        "type": "t_uint32"
      },
      {
        "astId": 3989,
        "contract": "contracts/AlphaProVault.sol:AlphaProVault",
        "label": "tickSpacing",
        "offset": 16,
        "slot": "169",
        "type": "t_int24"
      },
      {
        "astId": 3992,
        "contract": "contracts/AlphaProVault.sol:AlphaProVault",
        "label": "fullLower",
        "offset": 19,
        "slot": "169",
        "type": "t_int24"
      },
      {
        "astId": 3995,
        "contract": "contracts/AlphaProVault.sol:AlphaProVault",
        "label": "fullUpper",
        "offset": 22,
        "slot": "169",
        "type": "t_int24"
      },
      {
        "astId": 3998,
        "contract": "contracts/AlphaProVault.sol:AlphaProVault",
        "label": "baseLower",
        "offset": 25,
        "slot": "169",
        "type": "t_int24"
      },
      {
        "astId": 4001,
        "contract": "contracts/AlphaProVault.sol:AlphaProVault",
        "label": "baseUpper",
        "offset": 28,
        "slot": "169",
        "type": "t_int24"
      },
      {
        "astId": 4004,
        "contract": "contracts/AlphaProVault.sol:AlphaProVault",
        "label": "limitLower",
        "offset": 0,
        "slot": "170",
        "type": "t_int24"
      },
      {
        "astId": 4007,
        "contract": "contracts/AlphaProVault.sol:AlphaProVault",
        "label": "limitUpper",
        "offset": 3,
        "slot": "170",
        "type": "t_int24"
      },
      {
        "astId": 4010,
        "contract": "contracts/AlphaProVault.sol:AlphaProVault",
        "label": "lastTick",
        "offset": 6,
        "slot": "170",
        "type": "t_int24"
      }
    ],
    "types": {
      "t_address": {
        "encoding": "inplace",
        "label": "address",
        "numberOfBytes": "20"
      },
      "t_array(t_uint256)44_storage": {
        "base": "t_uint256",
        "encoding": "inplace",
        "label": "uint256[44]",
        "numberOfBytes": "1408"
      },
      "t_array(t_uint256)49_storage": {
        "base": "t_uint256",
        "encoding": "inplace",
        "label": "uint256[49]",
        "numberOfBytes": "1568"
      },
      "t_array(t_uint256)50_storage": {
        "base": "t_uint256",
        "encoding": "inplace",
        "label": "uint256[50]",
        "numberOfBytes": "1600"
      },
      "t_bool": {
        "encoding": "inplace",
        "label": "bool",
        "numberOfBytes": "1"
      },
      "t_contract(AlphaProVaultFactory)6608": {
        "encoding": "inplace",
        "label": "contract AlphaProVaultFactory",
        "numberOfBytes": "20"
      },
      "t_contract(IERC20Upgradeable)1028": {
        "encoding": "inplace",
        "label": "contract IERC20Upgradeable",
        "numberOfBytes": "20"
      },
      "t_contract(IUniswapV3Pool)1693": {
        "encoding": "inplace",
        "label": "contract IUniswapV3Pool",
        "numberOfBytes": "20"
      },
      "t_int24": {
        "encoding": "inplace",
        "label": "int24",
        "numberOfBytes": "3"
      },
      "t_mapping(t_address,t_mapping(t_address,t_uint256))": {
        "encoding": "mapping",
        "key": "t_address",
        "label": "mapping(address => mapping(address => uint256))",
        "numberOfBytes": "32",
        "value": "t_mapping(t_address,t_uint256)"
      },
      "t_mapping(t_address,t_uint256)": {
        "encoding": "mapping",
        "key": "t_address",
        "label": "mapping(address => uint256)",
        "numberOfBytes": "32",
        "value": "t_uint256"
      },
      "t_string_storage": {
        "encoding": "bytes",
        "label": "string",
        "numberOfBytes": "32"
      },
      "t_uint256": {
        "encoding": "inplace",
        "label": "uint256",
        "numberOfBytes": "32"
      },
      "t_uint32": {
        "encoding": "inplace",
        "label": "uint32",
        "numberOfBytes": "4"
      },
      "t_uint8": {
        "encoding": "inplace",
        "label": "uint8",
        "numberOfBytes": "1"
      }
    }
  }
}