{
  "address": "0xDAFa34052aAc1840B42229b5085Cd9591B6A8526",
  "abi": [
    {
      "anonymous": false,
      "inputs": [
        {
          "indexed": true,
          "internalType": "address",
          "name": "owner",
          "type": "address"
        },
        {
          "indexed": true,
          "internalType": "address",
          "name": "spender",
          "type": "address"
        },
        {
          "indexed": false,
          "internalType": "uint256",
          "name": "value",
          "type": "uint256"
        }
      ],
      "name": "Approval",
      "type": "event"
    },
    {
      "anonymous": false,
      "inputs": [
        {
          "indexed": false,
          "internalType": "uint256",
          "name": "feesToVault0",
          "type": "uint256"
        },
        {
          "indexed": false,
          "internalType": "uint256",
          "name": "feesToVault1",
          "type": "uint256"
        },
        {
          "indexed": false,
          "internalType": "uint256",
          "name": "feesToProtocol0",
          "type": "uint256"
        },
        {
          "indexed": false,
          "internalType": "uint256",
          "name": "feesToProtocol1",
          "type": "uint256"
        }
      ],
      "name": "CollectFees",
      "type": "event"
    },
    {
      "anonymous": false,
      "inputs": [
        {
          "indexed": false,
          "internalType": "uint256",
          "name": "amount0",
          "type": "uint256"
        },
        {
          "indexed": false,
          "internalType": "uint256",
          "name": "amount1",
          "type": "uint256"
        }
      ],
      "name": "CollectProtocol",
      "type": "event"
    },
    {
      "anonymous": false,
      "inputs": [
        {
          "indexed": true,
          "internalType": "address",
          "name": "sender",
          "type": "address"
        },
        {
          "indexed": true,
          "internalType": "address",
          "name": "to",
          "type": "address"
        },
        {
          "indexed": false,
          "internalType": "uint256",
          "name": "shares",
          "type": "uint256"
        },
        {
          "indexed": false,
          "internalType": "uint256",
          "name": "amount0",
          "type": "uint256"
        },
        {
          "indexed": false,
          "internalType": "uint256",
          "name": "amount1",
          "type": "uint256"
        }
      ],
      "name": "Deposit",
      "type": "event"
    },
    {
      "anonymous": false,
      "inputs": [
        {
          "indexed": false,
          "internalType": "int24",
          "name": "tick",
          "type": "int24"
        },
        {
          "indexed": false,
          "internalType": "uint256",
          "name": "totalAmount0",
          "type": "uint256"
        },
        {
          "indexed": false,
          "internalType": "uint256",
          "name": "totalAmount1",
          "type": "uint256"
        },
        {
          "indexed": false,
          "internalType": "uint256",
          "name": "totalSupply",
          "type": "uint256"
        }
      ],
      "name": "Snapshot",
      "type": "event"
    },
    {
      "anonymous": false,
      "inputs": [
        {
          "indexed": true,
          "internalType": "address",
          "name": "from",
          "type": "address"
        },
        {
          "indexed": true,
          "internalType": "address",
          "name": "to",
          "type": "address"
        },
        {
          "indexed": false,
          "internalType": "uint256",
          "name": "value",
          "type": "uint256"
        }
      ],
      "name": "Transfer",
      "type": "event"
    },
    {
      "anonymous": false,
      "inputs": [
        {
          "indexed": false,
          "internalType": "address",
          "name": "manager",
          "type": "address"
        }
      ],
      "name": "UpdateManager",
      "type": "event"
    },
    {
      "anonymous": false,
      "inputs": [
        {
          "indexed": true,
          "internalType": "address",
          "name": "sender",
          "type": "address"
        },
        {
          "indexed": true,
          "internalType": "address",
          "name": "to",
          "type": "address"
        },
        {
          "indexed": false,
          "internalType": "uint256",
          "name": "shares",
          "type": "uint256"
        },
        {
          "indexed": false,
          "internalType": "uint256",
          "name": "amount0",
          "type": "uint256"
        },
        {
          "indexed": false,
          "internalType": "uint256",
          "name": "amount1",
          "type": "uint256"
        }
      ],
      "name": "Withdraw",
      "type": "event"
    },
    {
      "inputs": [],
      "name": "acceptManager",
      "outputs": [],
      "stateMutability": "nonpayable",
      "type": "function"
    },
    {
      "inputs": [],
      "name": "accruedProtocolFees0",
      "outputs": [
        {
          "internalType": "uint256",
          "name": "",
          "type": "uint256"
        }
      ],
      "stateMutability": "view",
      "type": "function"
    },
    {
      "inputs": [],
      "name": "accruedProtocolFees1",
      "outputs": [
        {
          "internalType": "uint256",
          "name": "",
          "type": "uint256"
        }
      ],
      "stateMutability": "view",
      "type": "function"
    },
    {
      "inputs": [
        {
          "internalType": "address",
          "name": "owner",
          "type": "address"
        },
        {
          "internalType": "address",
          "name": "spender",
          "type": "address"
        }
      ],
      "name": "allowance",
      "outputs": [
        {
          "internalType": "uint256",
          "name": "",
          "type": "uint256"
        }
      ],
      "stateMutability": "view",
      "type": "function"
    },
    {
      "inputs": [
        {
          "internalType": "address",
          "name": "spender",
          "type": "address"
        },
        {
          "internalType": "uint256",
          "name": "amount",
          "type": "uint256"
        }
      ],
      "name": "approve",
      "outputs": [
        {
          "internalType": "bool",
          "name": "",
          "type": "bool"
        }
      ],
      "stateMutability": "nonpayable",
      "type": "function"
    },
    {
      "inputs": [
        {
          "internalType": "address",
          "name": "account",
          "type": "address"
        }
      ],
      "name": "balanceOf",
      "outputs": [
        {
          "internalType": "uint256",
          "name": "",
          "type": "uint256"
        }
      ],
      "stateMutability": "view",
      "type": "function"
    },
    {
      "inputs": [],
      "name": "baseLower",
      "outputs": [
        {
          "internalType": "int24",
          "name": "",
          "type": "int24"
        }
      ],
      "stateMutability": "view",
      "type": "function"
    },
    {
      "inputs": [],
      "name": "baseThreshold",
      "outputs": [
        {
          "internalType": "int24",
          "name": "",
          "type": "int24"
        }
      ],
      "stateMutability": "view",
      "type": "function"
    },
    {
      "inputs": [],
      "name": "baseUpper",
      "outputs": [
        {
          "internalType": "int24",
          "name": "",
          "type": "int24"
        }
      ],
      "stateMutability": "view",
      "type": "function"
    },
    {
      "inputs": [
        {
          "internalType": "uint256",
          "name": "amount0",
          "type": "uint256"
        },
        {
          "internalType": "uint256",
          "name": "amount1",
          "type": "uint256"
        },
        {
          "internalType": "address",
          "name": "to",
          "type": "address"
        }
      ],
      "name": "collectProtocol",
      "outputs": [],
      "stateMutability": "nonpayable",
      "type": "function"
    },
    {
      "inputs": [],
      "name": "decimals",
      "outputs": [
        {
          "internalType": "uint8",
          "name": "",
          "type": "uint8"
        }
      ],
      "stateMutability": "view",
      "type": "function"
    },
    {
      "inputs": [
        {
          "internalType": "address",
          "name": "spender",
          "type": "address"
        },
        {
          "internalType": "uint256",
          "name": "subtractedValue",
          "type": "uint256"
        }
      ],
      "name": "decreaseAllowance",
      "outputs": [
        {
          "internalType": "bool",
          "name": "",
          "type": "bool"
        }
      ],
      "stateMutability": "nonpayable",
      "type": "function"
    },
    {
      "inputs": [
        {
          "internalType": "uint256",
          "name": "amount0Desired",
          "type": "uint256"
        },
        {
          "internalType": "uint256",
          "name": "amount1Desired",
          "type": "uint256"
        },
        {
          "internalType": "uint256",
          "name": "amount0Min",
          "type": "uint256"
        },
        {
          "internalType": "uint256",
          "name": "amount1Min",
          "type": "uint256"
        },
        {
          "internalType": "address",
          "name": "to",
          "type": "address"
        }
      ],
      "name": "deposit",
      "outputs": [
        {
          "internalType": "uint256",
          "name": "shares",
          "type": "uint256"
        },
        {
          "internalType": "uint256",
          "name": "amount0",
          "type": "uint256"
        },
        {
          "internalType": "uint256",
          "name": "amount1",
          "type": "uint256"
        }
      ],
      "stateMutability": "nonpayable",
      "type": "function"
    },
    {
      "inputs": [
        {
          "internalType": "int24",
          "name": "tickLower",
          "type": "int24"
        },
        {
          "internalType": "int24",
          "name": "tickUpper",
          "type": "int24"
        },
        {
          "internalType": "uint128",
          "name": "liquidity",
          "type": "uint128"
        }
      ],
      "name": "emergencyBurn",
      "outputs": [],
      "stateMutability": "nonpayable",
      "type": "function"
    },
    {
      "inputs": [],
      "name": "factory",
      "outputs": [
        {
          "internalType": "contract AlphaProVaultFactory",
          "name": "",
          "type": "address"
        }
      ],
      "stateMutability": "view",
      "type": "function"
    },
    {
      "inputs": [],
      "name": "fullLower",
      "outputs": [
        {
          "internalType": "int24",
          "name": "",
          "type": "int24"
        }
      ],
      "stateMutability": "view",
      "type": "function"
    },
    {
      "inputs": [],
      "name": "fullRangeWeight",
      "outputs": [
        {
          "internalType": "uint256",
          "name": "",
          "type": "uint256"
        }
      ],
      "stateMutability": "view",
      "type": "function"
    },
    {
      "inputs": [],
      "name": "fullUpper",
      "outputs": [
        {
          "internalType": "int24",
          "name": "",
          "type": "int24"
        }
      ],
      "stateMutability": "view",
      "type": "function"
    },
    {
      "inputs": [],
      "name": "getBalance0",
      "outputs": [
        {
          "internalType": "uint256",
          "name": "",
          "type": "uint256"
        }
      ],
      "stateMutability": "view",
      "type": "function"
    },
    {
      "inputs": [],
      "name": "getBalance1",
      "outputs": [
        {
          "internalType": "uint256",
          "name": "",
          "type": "uint256"
        }
      ],
      "stateMutability": "view",
      "type": "function"
    },
    {
      "inputs": [
        {
          "internalType": "int24",
          "name": "tickLower",
          "type": "int24"
        },
        {
          "internalType": "int24",
          "name": "tickUpper",
          "type": "int24"
        }
      ],
      "name": "getPositionAmounts",
      "outputs": [
        {
          "internalType": "uint256",
          "name": "amount0",
          "type": "uint256"
        },
        {
          "internalType": "uint256",
          "name": "amount1",
          "type": "uint256"
        }
      ],
      "stateMutability": "view",
      "type": "function"
    },
    {
      "inputs": [],
      "name": "getTotalAmounts",
      "outputs": [
        {
          "internalType": "uint256",
          "name": "total0",
          "type": "uint256"
        },
        {
          "internalType": "uint256",
          "name": "total1",
          "type": "uint256"
        }
      ],
      "stateMutability": "view",
      "type": "function"
    },
    {
      "inputs": [],
      "name": "getTwap",
      "outputs": [
        {
          "internalType": "int24",
          "name": "",
          "type": "int24"
        }
      ],
      "stateMutability": "view",
      "type": "function"
    },
    {
      "inputs": [
        {
          "internalType": "address",
          "name": "spender",
          "type": "address"
        },
        {
          "internalType": "uint256",
          "name": "addedValue",
          "type": "uint256"
        }
      ],
      "name": "increaseAllowance",
      "outputs": [
        {
          "internalType": "bool",
          "name": "",
          "type": "bool"
        }
      ],
      "stateMutability": "nonpayable",
      "type": "function"
    },
    {
      "inputs": [
        {
          "internalType": "address",
          "name": "_pool",
          "type": "address"
        },
        {
          "internalType": "address",
          "name": "_manager",
          "type": "address"
        },
        {
          "internalType": "uint256",
          "name": "_maxTotalSupply",
          "type": "uint256"
        },
        {
          "internalType": "int24",
          "name": "_baseThreshold",
          "type": "int24"
        },
        {
          "internalType": "int24",
          "name": "_limitThreshold",
          "type": "int24"
        },
        {
          "internalType": "uint256",
          "name": "_fullRangeWeight",
          "type": "uint256"
        },
        {
          "internalType": "uint256",
          "name": "_period",
          "type": "uint256"
        },
        {
          "internalType": "int24",
          "name": "_minTickMove",
          "type": "int24"
        },
        {
          "internalType": "int24",
          "name": "_maxTwapDeviation",
          "type": "int24"
        },
        {
          "internalType": "uint32",
          "name": "_twapDuration",
          "type": "uint32"
        },
        {
          "internalType": "address",
          "name": "_factory",
          "type": "address"
        },
        {
          "internalType": "string",
          "name": "name",
          "type": "string"
        },
        {
          "internalType": "string",
          "name": "symbol",
          "type": "string"
        }
      ],
      "name": "initialize",
      "outputs": [],
      "stateMutability": "nonpayable",
      "type": "function"
    },
    {
      "inputs": [],
      "name": "lastTick",
      "outputs": [
        {
          "internalType": "int24",
          "name": "",
          "type": "int24"
        }
      ],
      "stateMutability": "view",
      "type": "function"
    },
    {
      "inputs": [],
      "name": "lastTimestamp",
      "outputs": [
        {
          "internalType": "uint256",
          "name": "",
          "type": "uint256"
        }
      ],
      "stateMutability": "view",
      "type": "function"
    },
    {
      "inputs": [],
      "name": "limitLower",
      "outputs": [
        {
          "internalType": "int24",
          "name": "",
          "type": "int24"
        }
      ],
      "stateMutability": "view",
      "type": "function"
    },
    {
      "inputs": [],
      "name": "limitThreshold",
      "outputs": [
        {
          "internalType": "int24",
          "name": "",
          "type": "int24"
        }
      ],
      "stateMutability": "view",
      "type": "function"
    },
    {
      "inputs": [],
      "name": "limitUpper",
      "outputs": [
        {
          "internalType": "int24",
          "name": "",
          "type": "int24"
        }
      ],
      "stateMutability": "view",
      "type": "function"
    },
    {
      "inputs": [],
      "name": "manager",
      "outputs": [
        {
          "internalType": "address",
          "name": "",
          "type": "address"
        }
      ],
      "stateMutability": "view",
      "type": "function"
    },
    {
      "inputs": [],
      "name": "maxTotalSupply",
      "outputs": [
        {
          "internalType": "uint256",
          "name": "",
          "type": "uint256"
        }
      ],
      "stateMutability": "view",
      "type": "function"
    },
    {
      "inputs": [],
      "name": "maxTwapDeviation",
      "outputs": [
        {
          "internalType": "int24",
          "name": "",
          "type": "int24"
        }
      ],
      "stateMutability": "view",
      "type": "function"
    },
    {
      "inputs": [],
      "name": "minTickMove",
      "outputs": [
        {
          "internalType": "int24",
          "name": "",
          "type": "int24"
        }
      ],
      "stateMutability": "view",
      "type": "function"
    },
    {
      "inputs": [],
      "name": "name",
      "outputs": [
        {
          "internalType": "string",
          "name": "",
          "type": "string"
        }
      ],
      "stateMutability": "view",
      "type": "function"
    },
    {
      "inputs": [],
      "name": "pendingManager",
      "outputs": [
        {
          "internalType": "address",
          "name": "",
          "type": "address"
        }
      ],
      "stateMutability": "view",
      "type": "function"
    },
    {
      "inputs": [],
      "name": "period",
      "outputs": [
        {
          "internalType": "uint256",
          "name": "",
          "type": "uint256"
        }
      ],
      "stateMutability": "view",
      "type": "function"
    },
    {
      "inputs": [],
      "name": "pool",
      "outputs": [
        {
          "internalType": "contract IUniswapV3Pool",
          "name": "",
          "type": "address"
        }
      ],
      "stateMutability": "view",
      "type": "function"
    },
    {
      "inputs": [],
      "name": "protocolFee",
      "outputs": [
        {
          "internalType": "uint256",
          "name": "",
          "type": "uint256"
        }
      ],
      "stateMutability": "view",
      "type": "function"
    },
    {
      "inputs": [],
      "name": "rebalance",
      "outputs": [],
      "stateMutability": "nonpayable",
      "type": "function"
    },
    {
      "inputs": [
        {
          "internalType": "int24",
          "name": "_baseThreshold",
          "type": "int24"
        }
      ],
      "name": "setBaseThreshold",
      "outputs": [],
      "stateMutability": "nonpayable",
      "type": "function"
    },
    {
      "inputs": [
        {
          "internalType": "uint256",
          "name": "_fullRangeWeight",
          "type": "uint256"
        }
      ],
      "name": "setFullRangeWeight",
      "outputs": [],
      "stateMutability": "nonpayable",
      "type": "function"
    },
    {
      "inputs": [
        {
          "internalType": "int24",
          "name": "_limitThreshold",
          "type": "int24"
        }
      ],
      "name": "setLimitThreshold",
      "outputs": [],
      "stateMutability": "nonpayable",
      "type": "function"
    },
    {
      "inputs": [
        {
          "internalType": "address",
          "name": "_manager",
          "type": "address"
        }
      ],
      "name": "setManager",
      "outputs": [],
      "stateMutability": "nonpayable",
      "type": "function"
    },
    {
      "inputs": [
        {
          "internalType": "uint256",
          "name": "_maxTotalSupply",
          "type": "uint256"
        }
      ],
      "name": "setMaxTotalSupply",
      "outputs": [],
      "stateMutability": "nonpayable",
      "type": "function"
    },
    {
      "inputs": [
        {
          "internalType": "int24",
          "name": "_maxTwapDeviation",
          "type": "int24"
        }
      ],
      "name": "setMaxTwapDeviation",
      "outputs": [],
      "stateMutability": "nonpayable",
      "type": "function"
    },
    {
      "inputs": [
        {
          "internalType": "int24",
          "name": "_minTickMove",
          "type": "int24"
        }
      ],
      "name": "setMinTickMove",
      "outputs": [],
      "stateMutability": "nonpayable",
      "type": "function"
    },
    {
      "inputs": [
        {
          "internalType": "uint256",
          "name": "_period",
          "type": "uint256"
        }
      ],
      "name": "setPeriod",
      "outputs": [],
      "stateMutability": "nonpayable",
      "type": "function"
    },
    {
      "inputs": [
        {
          "internalType": "uint32",
          "name": "_twapDuration",
          "type": "uint32"
        }
      ],
      "name": "setTwapDuration",
      "outputs": [],
      "stateMutability": "nonpayable",
      "type": "function"
    },
    {
      "inputs": [],
      "name": "shouldRebalance",
      "outputs": [
        {
          "internalType": "bool",
          "name": "",
          "type": "bool"
        }
      ],
      "stateMutability": "view",
      "type": "function"
    },
    {
      "inputs": [
        {
          "internalType": "contract IERC20Upgradeable",
          "name": "token",
          "type": "address"
        },
        {
          "internalType": "uint256",
          "name": "amount",
          "type": "uint256"
        },
        {
          "internalType": "address",
          "name": "to",
          "type": "address"
        }
      ],
      "name": "sweep",
      "outputs": [],
      "stateMutability": "nonpayable",
      "type": "function"
    },
    {
      "inputs": [],
      "name": "symbol",
      "outputs": [
        {
          "internalType": "string",
          "name": "",
          "type": "string"
        }
      ],
      "stateMutability": "view",
      "type": "function"
    },
    {
      "inputs": [],
      "name": "tickSpacing",
      "outputs": [
        {
          "internalType": "int24",
          "name": "",
          "type": "int24"
        }
      ],
      "stateMutability": "view",
      "type": "function"
    },
    {
      "inputs": [],
      "name": "token0",
      "outputs": [
        {
          "internalType": "contract IERC20Upgradeable",
          "name": "",
          "type": "address"
        }
      ],
      "stateMutability": "view",
      "type": "function"
    },
    {
      "inputs": [],
      "name": "token1",
      "outputs": [
        {
          "internalType": "contract IERC20Upgradeable",
          "name": "",
          "type": "address"
        }
      ],
      "stateMutability": "view",
      "type": "function"
    },
    {
      "inputs": [],
      "name": "totalSupply",
      "outputs": [
        {
          "internalType": "uint256",
          "name": "",
          "type": "uint256"
        }
      ],
      "stateMutability": "view",
      "type": "function"
    },
    {
      "inputs": [
        {
          "internalType": "address",
          "name": "recipient",
          "type": "address"
        },
        {
          "internalType": "uint256",
          "name": "amount",
          "type": "uint256"
        }
      ],
      "name": "transfer",
      "outputs": [
        {
          "internalType": "bool",
          "name": "",
          "type": "bool"
        }
      ],
      "stateMutability": "nonpayable",
      "type": "function"
    },
    {
      "inputs": [
        {
          "internalType": "address",
          "name": "sender",
          "type": "address"
        },
        {
          "internalType": "address",
          "name": "recipient",
          "type": "address"
        },
        {
          "internalType": "uint256",
          "name": "amount",
          "type": "uint256"
        }
      ],
      "name": "transferFrom",
      "outputs": [
        {
          "internalType": "bool",
          "name": "",
          "type": "bool"
        }
      ],
      "stateMutability": "nonpayable",
      "type": "function"
    },
    {
      "inputs": [],
      "name": "twapDuration",
      "outputs": [
        {
          "internalType": "uint32",
          "name": "",
          "type": "uint32"
        }
      ],
      "stateMutability": "view",
      "type": "function"
    },
    {
      "inputs": [
        {
          "internalType": "uint256",
          "name": "amount0",
          "type": "uint256"
        },
        {
          "internalType": "uint256",
          "name": "amount1",
          "type": "uint256"
        },
        {
          "internalType": "bytes",
          "name": "data",
          "type": "bytes"
        }
      ],
      "name": "uniswapV3MintCallback",
      "outputs": [],
      "stateMutability": "nonpayable",
      "type": "function"
    },
    {
      "inputs": [
        {
          "internalType": "int256",
          "name": "amount0Delta",
          "type": "int256"
        },
        {
          "internalType": "int256",
          "name": "amount1Delta",
          "type": "int256"
        },
        {
          "internalType": "bytes",
          "name": "data",
          "type": "bytes"
        }
      ],
      "name": "uniswapV3SwapCallback",
      "outputs": [],
      "stateMutability": "nonpayable",
      "type": "function"
    },
    {
      "inputs": [
        {
          "internalType": "uint256",
          "name": "shares",
          "type": "uint256"
        },
        {
          "internalType": "uint256",
          "name": "amount0Min",
          "type": "uint256"
        },
        {
          "internalType": "uint256",
          "name": "amount1Min",
          "type": "uint256"
        },
        {
          "internalType": "address",
          "name": "to",
          "type": "address"
        }
      ],
      "name": "withdraw",
      "outputs": [
        {
          "internalType": "uint256",
          "name": "amount0",
          "type": "uint256"
        },
        {
          "internalType": "uint256",
          "name": "amount1",
          "type": "uint256"
        }
      ],
      "stateMutability": "nonpayable",
      "type": "function"
    }
  ],
  "transactionHash": "0xb3b605f3f737acafec15f229aaa9ece8c77f88236571db5fd2014089fb8ed158",
  "args": [],
  "numDeployments": 1,
  "solcInputHash": "e5ba7bd821cfeda9aca593492638dfd6",
  "bytecode": "0x608060405234801561001057600080fd5b506151fc806100206000396000f3fe608060405234801561001057600080fd5b50600436106103ba5760003560e01c8063854360ef116101f4578063c45a01551161011a578063dd62ed3e116100ad578063ef78d4fd1161007c578063ef78d4fd14610b94578063f4005cae14610b9c578063fa08274314610bbc578063fa461e3314610bc4576103ba565b8063dd62ed3e14610b4e578063e7c7cb9114610b7c578063eae989a214610b84578063ebaf2d3b14610b8c576103ba565b8063d21220a7116100e9578063d21220a714610a5e578063d331bef714610a66578063d348799714610a9e578063dc2c256f14610b18576103ba565b8063c45a015514610a20578063c4a7761e14610a28578063d0c93a7c14610a30578063d0ebdbe714610a38576103ba565b8063a87bab9c11610192578063ae2c1d5f11610161578063ae2c1d5f146109cd578063af794480146109d5578063b0e21e8a146109f5578063c433c80a146109fd576103ba565b8063a87bab9c1461091c578063a9059cbb14610924578063a91ef6eb14610950578063abbffcb914610993576103ba565b8063a00fa77f116101ce578063a00fa77f146108c0578063a00fff6f146108c8578063a457c2d7146108d0578063a6329355146108fc576103ba565b8063854360ef146108a8578063888a9134146108b057806395d89b41146108b8576103ba565b806339509351116102e45780635d752a9a1161027757806370a082311161024657806370a08231146106cc57806374113154146106f25780637d7c2a1c1461070f5780637e196de114610717576103ba565b80635d752a9a146106ac578063629d9405146106b45780636c395821146106bc5780636f00b077146106c4576103ba565b806341aec538116102b357806341aec5381461068c578063481c6a751461069457806348ff15b31461069c57806351e87af7146106a4576103ba565b8063395093511461061b5780633cbff3fe146106475780633dfa5d87146106675780633f3e4c111461066f576103ba565b806316f0115b1161035c57806326d895451161032b57806326d89545146105785780632ab4d05214610599578063313ce567146105a1578063365d0ed7146105bf576103ba565b806316f0115b1461051857806318160ddd1461052057806319d8ac611461053a57806323b872dd14610542576103ba565b80630dfe1681116103985780630dfe1681146104b05780630f35bcac146104d45780630f3a9f65146104f357806316c3e29d14610510576103ba565b80630430c130146103bf57806306fdde03146103f3578063095ea7b314610470575b600080fd5b6103f1600480360360608110156103d557600080fd5b50803590602081013590604001356001600160a01b0316610c3e565b005b6103fb610d9b565b6040805160208082528351818301528351919283929083019185019080838360005b8381101561043557818101518382015260200161041d565b50505050905090810190601f1680156104625780820380516001836020036101000a031916815260200191505b509250505060405180910390f35b61049c6004803603604081101561048657600080fd5b506001600160a01b038135169060200135610e32565b604080519115158252519081900360200190f35b6104b8610e50565b604080516001600160a01b039092168252519081900360200190f35b6104dc610e5f565b6040805160029290920b8252519081900360200190f35b6103f16004803603602081101561050957600080fd5b5035610e6f565b6104dc610ebd565b6104b8610ecd565b610528610edc565b60408051918252519081900360200190f35b610528610ee2565b61049c6004803603606081101561055857600080fd5b506001600160a01b03813581169160208101359091169060400135610ee8565b610580610f70565b6040805163ffffffff9092168252519081900360200190f35b610528610f83565b6105a9610f89565b6040805160ff9092168252519081900360200190f35b6105fd600480360360a08110156105d557600080fd5b50803590602081013590604081013590606081013590608001356001600160a01b0316610f92565b60408051938452602084019290925282820152519081900360600190f35b61049c6004803603604081101561063157600080fd5b506001600160a01b0381351690602001356112d5565b6103f16004803603602081101561065d57600080fd5b503560020b611323565b6104dc6113ed565b6103f16004803603602081101561068557600080fd5b50356113f6565b610528611444565b6104b86114d2565b6103f16114e1565b6104dc61157a565b6104dc61158a565b610528611825565b6104dc61187c565b61052861188c565b610528600480360360208110156106e257600080fd5b50356001600160a01b0316611892565b6103f16004803603602081101561070857600080fd5b50356118b1565b6103f1611957565b6103f160048036036101a081101561072e57600080fd5b6001600160a01b03823581169260208101358216926040820135926060830135600290810b936080810135820b9360a08201359360c08301359360e0840135810b9361010081013590910b9263ffffffff61012083013516926101408301351691908101906101808101610160820135600160201b8111156107af57600080fd5b8201836020820111156107c157600080fd5b803590602001918460018302840111600160201b831117156107e257600080fd5b91908080601f0160208091040260200160405190810160405280939291908181526020018383808284376000920191909152509295949360208101935035915050600160201b81111561083457600080fd5b82018360208201111561084657600080fd5b803590602001918460018302840111600160201b8311171561086757600080fd5b91908080601f016020809104026020016040519081016040528093929190818152602001838380828437600092019190915250929550611e5c945050505050565b6104dc61247a565b6104dc612483565b6103fb612493565b6105286124f4565b6104b86124fa565b61049c600480360360408110156108e657600080fd5b506001600160a01b038135169060200135612509565b6103f16004803603602081101561091257600080fd5b503560020b612571565b6104dc6125f1565b61049c6004803603604081101561093a57600080fd5b506001600160a01b0381351690602001356125fa565b61097a6004803603604081101561096657600080fd5b508035600290810b9160200135900b61260e565b6040805192835260208301919091528051918290030190f35b6103f1600480360360608110156109a957600080fd5b508035600290810b91602081013590910b90604001356001600160801b03166126a5565b61049c612820565b6103f1600480360360208110156109eb57600080fd5b503560020b612a0b565b610528612a94565b6103f160048036036020811015610a1357600080fd5b503563ffffffff16612a9a565b6104b8612b62565b61097a612b71565b6104dc612c34565b6103f160048036036020811015610a4e57600080fd5b50356001600160a01b0316612c44565b6104b8612caf565b61097a60048036036080811015610a7c57600080fd5b50803590602081013590604081013590606001356001600160a01b0316612cbe565b6103f160048036036060811015610ab457600080fd5b813591602081013591810190606081016040820135600160201b811115610ada57600080fd5b820183602082011115610aec57600080fd5b803590602001918460018302840111600160201b83111715610b0d57600080fd5b509092509050612fc2565b6103f160048036036060811015610b2e57600080fd5b506001600160a01b03813581169160208101359160409091013516613019565b61052860048036036040811015610b6457600080fd5b506001600160a01b03813581169160200135166130e0565b6104dc61310b565b61052861311b565b6104dc613121565b610528613131565b6103f160048036036020811015610bb257600080fd5b503560020b613137565b6104dc6131f3565b6103f160048036036060811015610bda57600080fd5b813591602081013591810190606081016040820135600160201b811115610c0057600080fd5b820183602082011115610c1257600080fd5b803590602001918460018302840111600160201b83111715610c3357600080fd5b509092509050613203565b609a60009054906101000a90046001600160a01b03166001600160a01b0316635aa6e6756040518163ffffffff1660e01b815260040160206040518083038186803b158015610c8c57600080fd5b505afa158015610ca0573d6000803e3d6000fd5b505050506040513d6020811015610cb657600080fd5b50516001600160a01b03163314610d01576040805162461bcd60e51b815260206004820152600a602482015269676f7665726e616e636560b01b604482015290519081900360640190fd5b60a354610d0e908461325a565b60a35560a454610d1e908361325a565b60a4558215610d3e57609854610d3e906001600160a01b031682856132b7565b8115610d5b57609954610d5b906001600160a01b031682846132b7565b604080518481526020810184905281517fd63986ca13f11502796aee70ba80ac7317d99f08e5871fd9fd602a2764c7ef30929181900390910190a1505050565b60368054604080516020601f6002600019610100600188161502019095169490940493840181900481028201810190925282815260609390929091830182828015610e275780601f10610dfc57610100808354040283529160200191610e27565b820191906000526020600020905b815481529060010190602001808311610e0a57829003601f168201915b505050505090505b90565b6000610e46610e3f613309565b848461330d565b5060015b92915050565b6098546001600160a01b031681565b60a254600160c81b900460020b81565b609b546001600160a01b03163314610eb8576040805162461bcd60e51b815260206004820152600760248201526636b0b730b3b2b960c91b604482015290519081900360640190fd5b60a155565b609f546301000000900460020b81565b6097546001600160a01b031681565b60355490565b60a55481565b6000610ef58484846133f9565b610f6584610f01613309565b610f60856040518060600160405280602881526020016150e6602891396001600160a01b038a16600090815260346020526040812090610f3f613309565b6001600160a01b031681526020810191909152604001600020549190613556565b61330d565b5060015b9392505050565b60a254600160301b900463ffffffff1681565b609d5481565b60385460ff1690565b600080600060026065541415610fef576040805162461bcd60e51b815260206004820152601f60248201527f5265656e7472616e637947756172643a207265656e7472616e742063616c6c00604482015290519081900360640190fd5b6002606555871515806110025750600087115b611053576040805162461bcd60e51b815260206004820181905260248201527f616d6f756e743044657369726564206f7220616d6f756e743144657369726564604482015290519081900360640190fd5b6001600160a01b0384161580159061107457506001600160a01b0384163014155b6110aa576040805162461bcd60e51b8152602060048201526002602482015261746f60f01b604482015290519081900360640190fd5b60a2546110cc90600160501b8104600290810b91600160681b9004900b6135ed565b60a2546110ee90600160801b8104600290810b91600160981b9004900b6135ed565b60a25461111090600160b01b8104600290810b91600160c81b9004900b6135ed565b61111a8888613670565b919450925090508261115c576040805162461bcd60e51b815260206004820152600660248201526573686172657360d01b604482015290519081900360640190fd5b8582101561119e576040805162461bcd60e51b815260206004820152600a60248201526930b6b7bab73a1826b4b760b11b604482015290519081900360640190fd5b848110156111e0576040805162461bcd60e51b815260206004820152600a60248201526930b6b7bab73a18a6b4b760b11b604482015290519081900360640190fd5b81156111fe576098546111fe906001600160a01b03163330856137b2565b801561121c5760995461121c906001600160a01b03163330846137b2565b611226848461380c565b604080518481526020810184905280820183905290516001600160a01b0386169133917f4e2ca0515ed1aef1395f66b5303bb5d6f1bf9d61a353fa53f73f8ac9973fa9f69181900360600190a3609d5461127e610edc565b11156112c2576040805162461bcd60e51b815260206004820152600e60248201526d6d6178546f74616c537570706c7960901b604482015290519081900360640190fd5b6001606581905550955095509592505050565b6000610e466112e2613309565b84610f6085603460006112f3613309565b6001600160a01b03908116825260208083019390935260409182016000908120918c1681529252902054906138fe565b609b546001600160a01b0316331461136c576040805162461bcd60e51b815260206004820152600760248201526636b0b730b3b2b960c91b604482015290519081900360640190fd5b60008160020b12156113c5576040805162461bcd60e51b815260206004820152601d60248201527f6d617854776170446576696174696f6e206d757374206265203e3d2030000000604482015290519081900360640190fd5b60a2805460029290920b62ffffff1663010000000265ffffff00000019909216919091179055565b60a65460020b81565b609b546001600160a01b0316331461143f576040805162461bcd60e51b815260206004820152600760248201526636b0b730b3b2b960c91b604482015290519081900360640190fd5b609d55565b60a454609954604080516370a0823160e01b815230600482015290516000936114cd9390926001600160a01b03909116916370a0823191602480820192602092909190829003018186803b15801561149b57600080fd5b505afa1580156114af573d6000803e3d6000fd5b505050506040513d60208110156114c557600080fd5b50519061325a565b905090565b609b546001600160a01b031681565b609c546001600160a01b03163314611531576040805162461bcd60e51b815260206004820152600e60248201526d3832b73234b733a6b0b730b3b2b960911b604482015290519081900360640190fd5b609b80546001600160a01b0319163390811790915560408051918252517f5c18ab5c697b63d102fc7e14c77bfaef0f1013206eca139920fd389277814e099181900360200190a1565b60a254600160b01b900460020b81565b60a254604080516002808252606082018352600093600160301b900463ffffffff16928492919060208301908036833701905050905081816000815181106115ce57fe5b602002602001019063ffffffff16908163ffffffff16815250506000816001815181106115f757fe5b63ffffffff90921660209283029190910182015260975460405163883bdbfd60e01b8152600481018381528451602483015284516000946001600160a01b039094169363883bdbfd93879392839260449092019185810191028083838b5b8381101561166d578181015183820152602001611655565b505050509050019250505060006040518083038186803b15801561169057600080fd5b505afa1580156116a4573d6000803e3d6000fd5b505050506040513d6000823e601f3d908101601f1916820160409081528110156116cd57600080fd5b8101908080516040519392919084600160201b8211156116ec57600080fd5b90830190602082018581111561170157600080fd5b82518660208202830111600160201b8211171561171d57600080fd5b82525081516020918201928201910280838360005b8381101561174a578181015183820152602001611732565b5050505090500160405260200180516040519392919084600160201b82111561177257600080fd5b90830190602082018581111561178757600080fd5b82518660208202830111600160201b821117156117a357600080fd5b82525081516020918201928201910280838360005b838110156117d05781810151838201526020016117b8565b505050509050016040525050505090508263ffffffff16816000815181106117f457fe5b60200260200101518260018151811061180957fe5b60200260200101510360060b8161181c57fe5b05935050505090565b60a354609854604080516370a0823160e01b815230600482015290516000936114cd9390926001600160a01b03909116916370a0823191602480820192602092909190829003018186803b15801561149b57600080fd5b60a254600160681b900460020b81565b60a05481565b6001600160a01b0381166000908152603360205260409020545b919050565b609b546001600160a01b031633146118fa576040805162461bcd60e51b815260206004820152600760248201526636b0b730b3b2b960c91b604482015290519081900360640190fd5b620f4240811115611952576040805162461bcd60e51b815260206004820152601e60248201527f66756c6c52616e6765576569676874206d757374206265203c3d203165360000604482015290519081900360640190fd5b60a055565b600260655414156119af576040805162461bcd60e51b815260206004820152601f60248201527f5265656e7472616e637947756172643a207265656e7472616e742063616c6c00604482015290519081900360640190fd5b60026065556119bc612820565b611a00576040805162461bcd60e51b815260206004820152601060248201526f63616e6e6f7420726562616c616e636560801b604482015290519081900360640190fd5b60a254600160501b8104600290810b91600160681b9004900b6000611a258383613958565b505060a254929350600092611a529250600160801b8104600290810b9250600160981b909104900b613958565b505060a254929350600092611a7f9250600160b01b8104600290810b9250600160c81b909104900b613958565b505050509050611a90858585613a10565b505060a254611ab89250600160801b8104600290810b9250600160981b909104900b84613a10565b505060a254611ae09250600160b01b8104600290810b9250600160c81b909104900b83613a10565b505060975460408051633850c7bd60e01b81529051600097506001600160a01b039092169550633850c7bd94506004808201945060e0935090829003018186803b158015611b2d57600080fd5b505afa158015611b41573d6000803e3d6000fd5b505050506040513d60e0811015611b5757600080fd5b506020015190506000611b6982613c53565b609954609f54919250600160a01b9004600290810b83019180820b808503929084019163010000009004900b808503908590859081016000611ba9611825565b90506000611bb5611444565b90507f210f60adf1db7a02e9db9a49ec7c2eb2060c516cbcfd01a0c05288144738ee5d8b8383611be3610edc565b6040805160029590950b85526020850193909352838301919091526060830152519081900360800190a16000611c1b8e8e8585613cc6565b90506000611c52611c4d620f4240611c4760a054866001600160801b0316613d6c90919063ffffffff16565b90613dc5565b613e2c565b9050611c5f8f8f83613e43565b5050611c69611825565b9150611c73611444565b90506000611c8389898585613cc6565b9050611c90898983613e43565b5060a2805460028a810b62ffffff908116600160801b0262ffffff60801b19928c900b909116600160981b0262ffffff60981b199093169290921716179055611cd7611825565b9150611ce1611444565b90506000611cf187878585613cc6565b90506000611d0186868686613cc6565b9050806001600160801b0316826001600160801b03161115611d6b57611d28888884613e43565b60a2805460028a810b62ffffff908116600160b01b0262ffffff60b01b19928c900b909116600160c81b0262ffffff60c81b199093169290921716179055611db5565b611d76868683613e43565b60a28054600288810b62ffffff908116600160b01b0262ffffff60b01b19928a900b909116600160c81b0262ffffff60c81b1990931692909217161790555b4260a55560a6805460028f900b62ffffff1662ffffff19909116179055609a54604080516358710f4560e11b815290516001600160a01b039092169163b0e21e8a91600480820192602092909190829003018186803b158015611e1757600080fd5b505afa158015611e2b573d6000803e3d6000fd5b505050506040513d6020811015611e4157600080fd5b5051609e555050600160655550505050505050505050505050565b600054610100900460ff1680611e755750611e75613ecd565b80611e83575060005460ff16155b611ebe5760405162461bcd60e51b815260040180806020018281038252602e815260200180615097602e913960400191505060405180910390fd5b600054610100900460ff16158015611ee9576000805460ff1961ff0019909116610100171660011790555b611ef38383613ede565b611efb613f93565b8d609760006101000a8154816001600160a01b0302191690836001600160a01b031602179055508d6001600160a01b0316630dfe16816040518163ffffffff1660e01b815260040160206040518083038186803b158015611f5b57600080fd5b505afa158015611f6f573d6000803e3d6000fd5b505050506040513d6020811015611f8557600080fd5b8101908080519060200190929190505050609860006101000a8154816001600160a01b0302191690836001600160a01b031602179055508d6001600160a01b031663d21220a76040518163ffffffff1660e01b815260040160206040518083038186803b158015611ff557600080fd5b505afa158015612009573d6000803e3d6000fd5b505050506040513d602081101561201f57600080fd5b8101908080519060200190929190505050609960006101000a8154816001600160a01b0302191690836001600160a01b0316021790555060008e6001600160a01b031663d0c93a7c6040518163ffffffff1660e01b815260040160206040518083038186803b15801561209157600080fd5b505afa1580156120a5573d6000803e3d6000fd5b505050506040513d60208110156120bb57600080fd5b8101908080519060200190929190505050905080609960146101000a81548162ffffff021916908360020b62ffffff1602179055508d609b60006101000a8154816001600160a01b0302191690836001600160a01b031602179055508c609d819055508b609f60006101000a81548162ffffff021916908360020b62ffffff1602179055508a609f60036101000a81548162ffffff021916908360020b62ffffff1602179055508960a0819055508860a1819055508760a260006101000a81548162ffffff021916908360020b62ffffff1602179055508660a260036101000a81548162ffffff021916908360020b62ffffff1602179055508560a260066101000a81548163ffffffff021916908363ffffffff16021790555084609a60006101000a8154816001600160a01b0302191690836001600160a01b03160217905550609a60009054906101000a90046001600160a01b03166001600160a01b031663b0e21e8a6040518163ffffffff1660e01b815260040160206040518083038186803b15801561224a57600080fd5b505afa15801561225e573d6000803e3d6000fd5b505050506040513d602081101561227457600080fd5b5051609e5580600281900b620d89e7198161228b57fe5b050260a2600a6101000a81548162ffffff021916908360020b62ffffff160217905550808160020b620d89e71960000360020b816122c557fe5b050260a2600d6101000a81548162ffffff021916908360020b62ffffff1602179055506122f28c8261403d565b6122fc8b8261403d565b620f42408a1115612354576040805162461bcd60e51b815260206004820152601e60248201527f66756c6c52616e6765576569676874206d757374206265203c3d203165360000604482015290519081900360640190fd5b60008860020b12156123a8576040805162461bcd60e51b815260206004820152601860248201527706d696e5469636b4d6f7665206d757374206265203e3d20360441b604482015290519081900360640190fd5b60008760020b1215612401576040805162461bcd60e51b815260206004820152601d60248201527f6d617854776170446576696174696f6e206d757374206265203e3d2030000000604482015290519081900360640190fd5b60008663ffffffff1611612457576040805162461bcd60e51b81526020600482015260186024820152770747761704475726174696f6e206d757374206265203e20360441b604482015290519081900360640190fd5b50801561246a576000805461ff00191690555b5050505050505050505050505050565b60a25460020b81565b60a254600160981b900460020b81565b60378054604080516020601f6002600019610100600188161502019095169490940493840181900481028201810190925282815260609390929091830182828015610e275780601f10610dfc57610100808354040283529160200191610e27565b60a45481565b609c546001600160a01b031681565b6000610e46612516613309565b84610f60856040518060600160405280602581526020016151a26025913960346000612540613309565b6001600160a01b03908116825260208083019390935260409182016000908120918d16815292529020549190613556565b609b546001600160a01b031633146125ba576040805162461bcd60e51b815260206004820152600760248201526636b0b730b3b2b960c91b604482015290519081900360640190fd5b6099546125d2908290600160a01b900460020b61403d565b609f805460029290920b62ffffff1662ffffff19909216919091179055565b609f5460020b81565b6000610e46612607613309565b84846133f9565b60008060008060006126208787613958565b9450945050509250612633878785614131565b609e54919650945060009061264c90620f42409061325a565b905061267261266b620f4240611c476001600160801b03871685613d6c565b87906138fe565b9550612698612691620f4240611c476001600160801b03861685613d6c565b86906138fe565b9450505050509250929050565b609b546001600160a01b031633146126ee576040805162461bcd60e51b815260206004820152600760248201526636b0b730b3b2b960c91b604482015290519081900360640190fd5b6097546040805163a34123a760e01b8152600286810b600483015285900b60248201526001600160801b038416604482015281516001600160a01b039093169263a34123a7926064808401939192918290030181600087803b15801561275357600080fd5b505af1158015612767573d6000803e3d6000fd5b505050506040513d604081101561277d57600080fd5b5050609754604080516309e3d67b60e31b8152306004820152600286810b602483015285900b60448201526001600160801b0360648201819052608482015281516001600160a01b0390931692634f1eb3d89260a4808401939192918290030181600087803b1580156127ef57600080fd5b505af1158015612803573d6000803e3d6000fd5b505050506040513d604081101561281957600080fd5b5050505050565b60a55460a154600091906128359082906138fe565b421015612846576000915050610e2f565b60975460408051633850c7bd60e01b815290516000926001600160a01b031691633850c7bd9160048083019260e0929190829003018186803b15801561288b57600080fd5b505afa15801561289f573d6000803e3d6000fd5b505050506040513d60e08110156128b557600080fd5b506020015160a654909150600090600290810b810b9083900b136128e15760a65460020b8290036128ea565b60a65460020b82035b9050600083118015612907575060a254600290810b810b9082900b125b156129185760009350505050610e2f565b600061292261158a565b905060008160020b8460020b1361293b5783820361293f565b8184035b905060a260039054906101000a900460020b60020b8160020b131561296c57600095505050505050610e2f565b609f5460009063010000008104600290810b810b91810b900b1361299c57609f546301000000900460020b6129a3565b609f5460020b5b9050609960149054906101000a900460020b81620d89e719010160020b8560020b12806129ea5750609954600160a01b9004600290810b620d89e883900303810b9086900b135b156129fe5760009650505050505050610e2f565b6001965050505050505090565b609b546001600160a01b03163314612a54576040805162461bcd60e51b815260206004820152600760248201526636b0b730b3b2b960c91b604482015290519081900360640190fd5b609954612a6c908290600160a01b900460020b61403d565b609f805460029290920b62ffffff1663010000000265ffffff00000019909216919091179055565b609e5481565b609b546001600160a01b03163314612ae3576040805162461bcd60e51b815260206004820152600760248201526636b0b730b3b2b960c91b604482015290519081900360640190fd5b60008163ffffffff1611612b39576040805162461bcd60e51b81526020600482015260186024820152770747761704475726174696f6e206d757374206265203e20360441b604482015290519081900360640190fd5b60a2805463ffffffff909216600160301b0269ffffffff00000000000019909216919091179055565b609a546001600160a01b031681565b60a254600090819081908190612b9c90600160501b8104600290810b91600160681b9004900b61260e565b60a25491935091506000908190612bc890600160801b8104600290810b91600160981b9004900b61260e565b60a25491935091506000908190612bf490600160b01b8104600290810b91600160c81b9004900b61260e565b91509150612c1282612c0c86612c0c8a612c0c611825565b906138fe565b9750612c2881612c0c85612c0c89612c0c611444565b96505050505050509091565b609954600160a01b900460020b81565b609b546001600160a01b03163314612c8d576040805162461bcd60e51b815260206004820152600760248201526636b0b730b3b2b960c91b604482015290519081900360640190fd5b609c80546001600160a01b0319166001600160a01b0392909216919091179055565b6099546001600160a01b031681565b60008060026065541415612d19576040805162461bcd60e51b815260206004820152601f60248201527f5265656e7472616e637947756172643a207265656e7472616e742063616c6c00604482015290519081900360640190fd5b600260655585612d59576040805162461bcd60e51b815260206004820152600660248201526573686172657360d01b604482015290519081900360640190fd5b6001600160a01b03831615801590612d7a57506001600160a01b0383163014155b612db0576040805162461bcd60e51b8152602060048201526002602482015261746f60f01b604482015290519081900360640190fd5b6000612dba610edc565b9050612dc633886141db565b612ddc81611c4789612dd6611825565b90613d6c565b9250612dee81611c4789612dd6611444565b60a2549092506000908190612e1a90600160501b8104600290810b91600160681b9004900b8b866142d7565b60a25491935091506000908190612e4890600160801b8104600290810b91600160981b9004900b8d886142d7565b60a25491935091506000908190612e7690600160b01b8104600290810b91600160c81b9004900b8f8a6142d7565b9092509050612e8b82612c0c86818d8b6138fe565b9850612e9d81612c0c85818c8a6138fe565b97508b891015612ee1576040805162461bcd60e51b815260206004820152600a60248201526930b6b7bab73a1826b4b760b11b604482015290519081900360640190fd5b8a881015612f23576040805162461bcd60e51b815260206004820152600a60248201526930b6b7bab73a18a6b4b760b11b604482015290519081900360640190fd5b8815612f4057609854612f40906001600160a01b03168b8b6132b7565b8715612f5d57609954612f5d906001600160a01b03168b8a6132b7565b604080518e8152602081018b90528082018a905290516001600160a01b038c169133917febff2602b3f468259e1e99f613fed6691f3a6526effe6ef3e768ba7ae7a36c4f9181900360600190a350505050505050600160658190555094509492505050565b6097546001600160a01b03163314612fd957600080fd5b8315612ff657609854612ff6906001600160a01b031633866132b7565b821561301357609954613013906001600160a01b031633856132b7565b50505050565b609b546001600160a01b03163314613062576040805162461bcd60e51b815260206004820152600760248201526636b0b730b3b2b960c91b604482015290519081900360640190fd5b6098546001600160a01b0384811691161480159061308e57506099546001600160a01b03848116911614155b6130c7576040805162461bcd60e51b81526020600482015260056024820152643a37b5b2b760d91b604482015290519081900360640190fd5b6130db6001600160a01b03841682846132b7565b505050565b6001600160a01b03918216600090815260346020908152604080832093909416825291909152205490565b60a2546301000000900460020b81565b60a35481565b60a254600160501b900460020b81565b60a15481565b609b546001600160a01b03163314613180576040805162461bcd60e51b815260206004820152600760248201526636b0b730b3b2b960c91b604482015290519081900360640190fd5b60008160020b12156131d4576040805162461bcd60e51b815260206004820152601860248201527706d696e5469636b4d6f7665206d757374206265203e3d20360441b604482015290519081900360640190fd5b60a2805460029290920b62ffffff1662ffffff19909216919091179055565b60a254600160801b900460020b81565b6097546001600160a01b0316331461321a57600080fd5b600084131561323a5760985461323a906001600160a01b031633866132b7565b600083131561301357609954613013906001600160a01b031633856132b7565b6000828211156132b1576040805162461bcd60e51b815260206004820152601e60248201527f536166654d6174683a207375627472616374696f6e206f766572666c6f770000604482015290519081900360640190fd5b50900390565b604080516001600160a01b038416602482015260448082018490528251808303909101815260649091019091526020810180516001600160e01b031663a9059cbb60e01b1790526130db90849061437d565b3390565b6001600160a01b0383166133525760405162461bcd60e51b81526004018080602001828103825260248152602001806151546024913960400191505060405180910390fd5b6001600160a01b0382166133975760405162461bcd60e51b81526004018080602001828103825260228152602001806150006022913960400191505060405180910390fd5b6001600160a01b03808416600081815260346020908152604080832094871680845294825291829020859055815185815291517f8c5be1e5ebec7d5bd14f71427d1e84f3dd0314c0f7b2291e5b200ac8c7c3b9259281900390910190a3505050565b6001600160a01b03831661343e5760405162461bcd60e51b815260040180806020018281038252602581526020018061512f6025913960400191505060405180910390fd5b6001600160a01b0382166134835760405162461bcd60e51b8152600401808060200182810382526023815260200180614fbb6023913960400191505060405180910390fd5b61348e8383836130db565b6134cb81604051806060016040528060268152602001615022602691396001600160a01b0386166000908152603360205260409020549190613556565b6001600160a01b0380851660009081526033602052604080822093909355908416815220546134fa90826138fe565b6001600160a01b0380841660008181526033602090815260409182902094909455805185815290519193928716927fddf252ad1be2c89b69c2b068fc378daa952ba7f163c4a11628f55a4df523b3ef92918290030190a3505050565b600081848411156135e55760405162461bcd60e51b81526004018080602001828103825283818151815260200191508051906020019080838360005b838110156135aa578181015183820152602001613592565b50505050905090810190601f1680156135d75780820380516001836020036101000a031916815260200191505b509250505060405180910390fd5b505050900390565b60006135f98383613958565b5050505090506000816001600160801b031611156130db576097546040805163a34123a760e01b8152600286810b600483015285900b602482015260006044820181905282516001600160a01b039094169363a34123a7936064808501949193918390030190829087803b1580156127ef57600080fd5b60008060008061367e610edc565b905060008061368b612b71565b91509150826000148061369e5750600082115b806136a95750600081115b6136af57fe5b826136d0578794508693508385116136c757836136c9565b845b95506137a8565b816136e6578693506136c981611c478686613d6c565b806136fc578794506136c982611c478786613d6c565b60006137088983613d6c565b905060006137168985613d6c565b905060008183116137275782613729565b815b905060008111613768576040805162461bcd60e51b815260206004820152600560248201526463726f737360d81b604482015290519081900360640190fd5b61377b6001612c0c86611c47858461325a565b97506137906001612c0c87611c47858461325a565b96506137a284611c478781858b613d6c565b98505050505b5050509250925092565b604080516001600160a01b0380861660248301528416604482015260648082018490528251808303909101815260849091019091526020810180516001600160e01b03166323b872dd60e01b17905261301390859061437d565b6001600160a01b038216613867576040805162461bcd60e51b815260206004820152601f60248201527f45524332303a206d696e7420746f20746865207a65726f206164647265737300604482015290519081900360640190fd5b613873600083836130db565b60355461388090826138fe565b6035556001600160a01b0382166000908152603360205260409020546138a690826138fe565b6001600160a01b03831660008181526033602090815260408083209490945583518581529351929391927fddf252ad1be2c89b69c2b068fc378daa952ba7f163c4a11628f55a4df523b3ef9281900390910190a35050565b600082820183811015610f69576040805162461bcd60e51b815260206004820152601b60248201527f536166654d6174683a206164646974696f6e206f766572666c6f770000000000604482015290519081900360640190fd5b60008060008060008061396c30898961442e565b6097546040805163514ea4bf60e01b81526004810184905290519293506001600160a01b039091169163514ea4bf9160248082019260a092909190829003018186803b1580156139bb57600080fd5b505afa1580156139cf573d6000803e3d6000fd5b505050506040513d60a08110156139e557600080fd5b508051602082015160408301516060840151608090940151929c919b50995091975095509350505050565b60008080806001600160801b03851615613ac2576097546040805163a34123a760e01b815260028a810b600483015289900b60248201526001600160801b038816604482015281516001600160a01b039093169263a34123a7926064808401939192918290030181600087803b158015613a8957600080fd5b505af1158015613a9d573d6000803e3d6000fd5b505050506040513d6040811015613ab357600080fd5b50805160209091015190945092505b609754604080516309e3d67b60e31b815230600482015260028a810b602483015289900b60448201526001600160801b03606482018190526084820152815160009384936001600160a01b0390911692634f1eb3d89260a4808301939282900301818787803b158015613b3457600080fd5b505af1158015613b48573d6000803e3d6000fd5b505050506040513d6040811015613b5e57600080fd5b5080516020909101516001600160801b039182169350169050613b81828761325a565b9350613b8d818661325a565b609e5490935060009081908015613bfe57613baf620f4240611c478984613d6c565b9250613bc2620f4240611c478884613d6c565b9150613bce878461325a565b9650613bda868361325a565b60a354909650613bea90846138fe565b60a35560a454613bfa90836138fe565b60a4555b60408051888152602081018890528082018590526060810184905290517f1ac56d7e866e3f5ea9aa92aa11758ead39a0a5f013f3fefb0f47cb9d008edd279181900360800190a1505050505093509350935093565b600080609960149054906101000a900460020b60020b8360020b81613c7457fe5b05905060008360020b128015613ca85750609954600160a01b9004600290810b810b9084900b81613ca157fe5b0760020b15155b15613cb257600019015b609954600160a01b900460020b0292915050565b600080609760009054906101000a90046001600160a01b03166001600160a01b0316633850c7bd6040518163ffffffff1660e01b815260040160e06040518083038186803b158015613d1757600080fd5b505afa158015613d2b573d6000803e3d6000fd5b505050506040513d60e0811015613d4157600080fd5b50519050613d6281613d5288614484565b613d5b88614484565b87876147b5565b9695505050505050565b600082613d7b57506000610e4a565b82820282848281613d8857fe5b0414610f695760405162461bcd60e51b81526004018080602001828103825260218152602001806150c56021913960400191505060405180910390fd5b6000808211613e1b576040805162461bcd60e51b815260206004820152601a60248201527f536166654d6174683a206469766973696f6e206279207a65726f000000000000604482015290519081900360640190fd5b818381613e2457fe5b049392505050565b60006001600160801b03821115613e3f57fe5b5090565b6001600160801b038116156130db5760975460408051633c8a7d8d60e01b8152306004820152600286810b602483015285900b60448201526001600160801b038416606482015260a06084820152600060a4820181905282516001600160a01b0390941693633c8a7d8d9360c4808501949193918390030190829087803b1580156127ef57600080fd5b6000613ed830614879565b15905090565b600054610100900460ff1680613ef75750613ef7613ecd565b80613f05575060005460ff16155b613f405760405162461bcd60e51b815260040180806020018281038252602e815260200180615097602e913960400191505060405180910390fd5b600054610100900460ff16158015613f6b576000805460ff1961ff0019909116610100171660011790555b613f7361487f565b613f7d838361491f565b80156130db576000805461ff0019169055505050565b600054610100900460ff1680613fac5750613fac613ecd565b80613fba575060005460ff16155b613ff55760405162461bcd60e51b815260040180806020018281038252602e815260200180615097602e913960400191505060405180910390fd5b600054610100900460ff16158015614020576000805460ff1961ff0019909116610100171660011790555b6140286149f7565b801561403a576000805461ff00191690555b50565b60008260020b1361408d576040805162461bcd60e51b815260206004820152601560248201527407468726573686f6c64206d757374206265203e203605c1b604482015290519081900360640190fd5b620d89e8600283900b13156140de576040805162461bcd60e51b81526020600482015260126024820152710e8d0e4cae6d0ded8c840e8dede40d0d2ced60731b604482015290519081900360640190fd5b8060020b8260020b816140ed57fe5b0760020b1561412d5760405162461bcd60e51b81526004018080602001828103825260298152602001806150486029913960400191505060405180910390fd5b5050565b6000806000609760009054906101000a90046001600160a01b03166001600160a01b0316633850c7bd6040518163ffffffff1660e01b815260040160e06040518083038186803b15801561418457600080fd5b505afa158015614198573d6000803e3d6000fd5b505050506040513d60e08110156141ae57600080fd5b505190506141ce816141bf88614484565b6141c888614484565b87614a9d565b9250925050935093915050565b6001600160a01b0382166142205760405162461bcd60e51b815260040180806020018281038252602181526020018061510e6021913960400191505060405180910390fd5b61422c826000836130db565b61426981604051806060016040528060228152602001614fde602291396001600160a01b0385166000908152603360205260409020549190613556565b6001600160a01b03831660009081526033602052604090205560355461428f908261325a565b6035556040805182815290516000916001600160a01b038516917fddf252ad1be2c89b69c2b068fc378daa952ba7f163c4a11628f55a4df523b3ef9181900360200190a35050565b60008060006142e68787613958565b505050509050600061430e85611c4788856001600160801b0316613d6c90919063ffffffff16565b905080156143725760008060008061432f8c8c61432a88613e2c565b613a10565b9296509094509250905061435161434a8a611c47858e613d6c565b85906138fe565b975061436b6143648a611c47848e613d6c565b84906138fe565b9650505050505b505094509492505050565b60006143d2826040518060400160405280602081526020017f5361666545524332303a206c6f772d6c6576656c2063616c6c206661696c6564815250856001600160a01b0316614b399092919063ffffffff16565b8051909150156130db578080602001905160208110156143f157600080fd5b50516130db5760405162461bcd60e51b815260040180806020018281038252602a815260200180615178602a913960400191505060405180910390fd5b6040805160609490941b6bffffffffffffffffffffffff1916602080860191909152600293840b60e890811b60348701529290930b90911b60378401528051808403601a018152603a9093019052815191012090565b60008060008360020b1261449b578260020b6144a3565b8260020b6000035b9050620d89e88111156144e1576040805162461bcd60e51b81526020600482015260016024820152601560fa1b604482015290519081900360640190fd5b6000600182166144f557600160801b614507565b6ffffcb933bd6fad37aa2d162d1a5940015b70ffffffffffffffffffffffffffffffffff169050600282161561453b576ffff97272373d413259a46990580e213a0260801c5b600482161561455a576ffff2e50f5f656932ef12357cf3c7fdcc0260801c5b6008821615614579576fffe5caca7e10e4e61c3624eaa0941cd00260801c5b6010821615614598576fffcb9843d60f6159c9db58835c9266440260801c5b60208216156145b7576fff973b41fa98c081472e6896dfb254c00260801c5b60408216156145d6576fff2ea16466c96a3843ec78b326b528610260801c5b60808216156145f5576ffe5dee046a99a2a811c461f1969c30530260801c5b610100821615614615576ffcbe86c7900a88aedcffc83b479aa3a40260801c5b610200821615614635576ff987a7253ac413176f2b074cf7815e540260801c5b610400821615614655576ff3392b0822b70005940c7a398e4b70f30260801c5b610800821615614675576fe7159475a2c29b7443b29c7fa6e889d90260801c5b611000821615614695576fd097f3bdfd2022b8845ad8f792aa58250260801c5b6120008216156146b5576fa9f746462d870fdf8a65dc1f90e061e50260801c5b6140008216156146d5576f70d869a156d2a1b890bb3df62baf32f70260801c5b6180008216156146f5576f31be135f97d08fd981231505542fcfa60260801c5b62010000821615614716576f09aa508b5b7a84e1c677de54f3e99bc90260801c5b62020000821615614736576e5d6af8dedb81196699c329225ee6040260801c5b62040000821615614755576d2216e584f5fa1ea926041bedfe980260801c5b62080000821615614772576b048a170391f7dc42444e8fa20260801c5b60008460020b131561478d57806000198161478957fe5b0490505b600160201b8106156147a05760016147a3565b60005b60ff16602082901c0192505050919050565b6000836001600160a01b0316856001600160a01b031611156147d5579293925b846001600160a01b0316866001600160a01b031611614800576147f9858585614b50565b9050614870565b836001600160a01b0316866001600160a01b03161015614862576000614827878686614b50565b90506000614836878986614bb3565b9050806001600160801b0316826001600160801b0316106148575780614859565b815b92505050614870565b61486d858584614bb3565b90505b95945050505050565b3b151590565b600054610100900460ff16806148985750614898613ecd565b806148a6575060005460ff16155b6148e15760405162461bcd60e51b815260040180806020018281038252602e815260200180615097602e913960400191505060405180910390fd5b600054610100900460ff16158015614028576000805460ff1961ff001990911661010017166001179055801561403a576000805461ff001916905550565b600054610100900460ff16806149385750614938613ecd565b80614946575060005460ff16155b6149815760405162461bcd60e51b815260040180806020018281038252602e815260200180615097602e913960400191505060405180910390fd5b600054610100900460ff161580156149ac576000805460ff1961ff0019909116610100171660011790555b82516149bf906036906020860190614f22565b5081516149d3906037906020850190614f22565b506038805460ff1916601217905580156130db576000805461ff0019169055505050565b600054610100900460ff1680614a105750614a10613ecd565b80614a1e575060005460ff16155b614a595760405162461bcd60e51b815260040180806020018281038252602e815260200180615097602e913960400191505060405180910390fd5b600054610100900460ff16158015614a84576000805460ff1961ff0019909116610100171660011790555b6001606555801561403a576000805461ff001916905550565b600080836001600160a01b0316856001600160a01b03161115614abe579293925b846001600160a01b0316866001600160a01b031611614ae957614ae2858585614bf0565b9150614b30565b836001600160a01b0316866001600160a01b03161015614b2257614b0e868585614bf0565b9150614b1b858785614c59565b9050614b30565b614b2d858585614c59565b90505b94509492505050565b6060614b488484600085614c9c565b949350505050565b6000826001600160a01b0316846001600160a01b03161115614b70579192915b6000614b93856001600160a01b0316856001600160a01b0316600160601b614df7565b9050614870614bae84838888036001600160a01b0316614df7565b614ea6565b6000826001600160a01b0316846001600160a01b03161115614bd3579192915b614b48614bae83600160601b8787036001600160a01b0316614df7565b6000826001600160a01b0316846001600160a01b03161115614c10579192915b836001600160a01b0316614c49606060ff16846001600160801b0316901b8686036001600160a01b0316866001600160a01b0316614df7565b81614c5057fe5b04949350505050565b6000826001600160a01b0316846001600160a01b03161115614c79579192915b614b48826001600160801b03168585036001600160a01b0316600160601b614df7565b606082471015614cdd5760405162461bcd60e51b81526004018080602001828103825260268152602001806150716026913960400191505060405180910390fd5b614ce685614879565b614d37576040805162461bcd60e51b815260206004820152601d60248201527f416464726573733a2063616c6c20746f206e6f6e2d636f6e7472616374000000604482015290519081900360640190fd5b600080866001600160a01b031685876040518082805190602001908083835b60208310614d755780518252601f199092019160209182019101614d56565b6001836020036101000a03801982511681845116808217855250505050505090500191505060006040518083038185875af1925050503d8060008114614dd7576040519150601f19603f3d011682016040523d82523d6000602084013e614ddc565b606091505b5091509150614dec828286614ebc565b979650505050505050565b6000808060001985870986860292508281109083900303905080614e2d5760008411614e2257600080fd5b508290049050610f69565b808411614e3957600080fd5b6000848688096000868103871696879004966002600389028118808a02820302808a02820302808a02820302808a02820302808a02820302808a02909103029181900381900460010186841190950394909402919094039290920491909117919091029150509392505050565b806001600160801b03811681146118ac57600080fd5b60608315614ecb575081610f69565b825115614edb5782518084602001fd5b60405162461bcd60e51b81526020600482018181528451602484015284518593919283926044019190850190808383600083156135aa578181015183820152602001613592565b828054600181600116156101000203166002900490600052602060002090601f016020900481019282614f585760008555614f9e565b82601f10614f7157805160ff1916838001178555614f9e565b82800160010185558215614f9e579182015b82811115614f9e578251825591602001919060010190614f83565b50613e3f9291505b80821115613e3f5760008155600101614fa656fe45524332303a207472616e7366657220746f20746865207a65726f206164647265737345524332303a206275726e20616d6f756e7420657863656564732062616c616e636545524332303a20617070726f766520746f20746865207a65726f206164647265737345524332303a207472616e7366657220616d6f756e7420657863656564732062616c616e63657468726573686f6c64206d757374206265206d756c7469706c65206f66207469636b53706163696e67416464726573733a20696e73756666696369656e742062616c616e636520666f722063616c6c496e697469616c697a61626c653a20636f6e747261637420697320616c726561647920696e697469616c697a6564536166654d6174683a206d756c7469706c69636174696f6e206f766572666c6f7745524332303a207472616e7366657220616d6f756e74206578636565647320616c6c6f77616e636545524332303a206275726e2066726f6d20746865207a65726f206164647265737345524332303a207472616e736665722066726f6d20746865207a65726f206164647265737345524332303a20617070726f76652066726f6d20746865207a65726f20616464726573735361666545524332303a204552433230206f7065726174696f6e20646964206e6f74207375636365656445524332303a2064656372656173656420616c6c6f77616e63652062656c6f77207a65726fa26469706673582212207c11f7912f31b3a9f7db89df8693eda2b9b199bfc5e6827d1caa21bd1c77fcf664736f6c63430007060033",
  "devdoc": {
    "kind": "dev",
    "methods": {
      "allowance(address,address)": {
        "details": "See {IERC20-allowance}."
      },
      "approve(address,uint256)": {
        "details": "See {IERC20-approve}. Requirements: - `spender` cannot be the zero address."
      },
      "balanceOf(address)": {
        "details": "See {IERC20-balanceOf}."
      },
      "decimals()": {
        "details": "Returns the number of decimals used to get its user representation. For example, if `decimals` equals `2`, a balance of `505` tokens should be displayed to a user as `5,05` (`505 / 10 ** 2`). Tokens usually opt for a value of 18, imitating the relationship between Ether and Wei. This is the value {ERC20} uses, unless {_setupDecimals} is called. NOTE: This information is only used for _display_ purposes: it in no way affects any of the arithmetic of the contract, including {IERC20-balanceOf} and {IERC20-transfer}."
      },
      "decreaseAllowance(address,uint256)": {
        "details": "Atomically decreases the allowance granted to `spender` by the caller. This is an alternative to {approve} that can be used as a mitigation for problems described in {IERC20-approve}. Emits an {Approval} event indicating the updated allowance. Requirements: - `spender` cannot be the zero address. - `spender` must have allowance for the caller of at least `subtractedValue`."
      },
      "deposit(uint256,uint256,uint256,uint256,address)": {
        "details": "These tokens sit in the vault and are not used for liquidity on Uniswap until the next rebalance. Also note it's not necessary to check if user manipulated price to deposit cheaper, as the value of range orders can only by manipulated higher.",
        "params": {
          "amount0Desired": "Max amount of token0 to deposit",
          "amount0Min": "Revert if resulting `amount0` is less than this",
          "amount1Desired": "Max amount of token1 to deposit",
          "amount1Min": "Revert if resulting `amount1` is less than this",
          "to": "Recipient of shares"
        },
        "returns": {
          "amount0": "Amount of token0 deposited",
          "amount1": "Amount of token1 deposited",
          "shares": "Number of shares minted"
        }
      },
      "getTwap()": {
        "details": "Fetches time-weighted average price in ticks from Uniswap pool."
      },
      "increaseAllowance(address,uint256)": {
        "details": "Atomically increases the allowance granted to `spender` by the caller. This is an alternative to {approve} that can be used as a mitigation for problems described in {IERC20-approve}. Emits an {Approval} event indicating the updated allowance. Requirements: - `spender` cannot be the zero address."
      },
      "initialize(address,address,uint256,int24,int24,uint256,uint256,int24,int24,uint32,address,string,string)": {
        "params": {
          "_baseThreshold": "Half of the base order width in ticks",
          "_factory": "Address of AlphaProFactory contract",
          "_fullRangeWeight": "Proportion of liquidity in full range multiplied by 1e6",
          "_limitThreshold": "Limit order width in ticks",
          "_manager": "Address of manager who can set parameters",
          "_maxTotalSupply": "Cap on total supply",
          "_maxTwapDeviation": "Max deviation from TWAP during rebalance",
          "_minTickMove": "Can only rebalance if price has moved at least this much",
          "_period": "Can only rebalance if this length of time has passed",
          "_pool": "Underlying Uniswap V3 pool address",
          "_twapDuration": "TWAP duration in seconds for deviation check"
        }
      },
      "name()": {
        "details": "Returns the name of the token."
      },
      "rebalance()": {
        "details": "Three orders are placed - a full-range order, a base order and a limit order. The full-range order is placed first. Then the base order is placed with as much remaining liquidity as possible. This order should use up all of one token, leaving only the other one. This excess amount is then placed as a single-sided bid or ask order."
      },
      "symbol()": {
        "details": "Returns the symbol of the token, usually a shorter version of the name."
      },
      "totalSupply()": {
        "details": "See {IERC20-totalSupply}."
      },
      "transfer(address,uint256)": {
        "details": "See {IERC20-transfer}. Requirements: - `recipient` cannot be the zero address. - the caller must have a balance of at least `amount`."
      },
      "transferFrom(address,address,uint256)": {
        "details": "See {IERC20-transferFrom}. Emits an {Approval} event indicating the updated allowance. This is not required by the EIP. See the note at the beginning of {ERC20}. Requirements: - `sender` and `recipient` cannot be the zero address. - `sender` must have a balance of at least `amount`. - the caller must have allowance for ``sender``'s tokens of at least `amount`."
      },
      "uniswapV3MintCallback(uint256,uint256,bytes)": {
        "details": "Callback for Uniswap V3 pool."
      },
      "uniswapV3SwapCallback(int256,int256,bytes)": {
        "details": "Callback for Uniswap V3 pool."
      },
      "withdraw(uint256,uint256,uint256,address)": {
        "params": {
          "amount0Min": "Revert if resulting `amount0` is smaller than this",
          "amount1Min": "Revert if resulting `amount1` is smaller than this",
          "shares": "Shares burned by sender",
          "to": "Recipient of tokens"
        },
        "returns": {
          "amount0": "Amount of token0 sent to recipient",
          "amount1": "Amount of token1 sent to recipient"
        }
      }
    },
    "title": "Alpha Pro Vault",
    "version": 1
  },
  "userdoc": {
    "kind": "user",
    "methods": {
      "acceptManager()": {
        "notice": "`setManager()` should be called by the existing manager address prior to calling this function."
      },
      "collectProtocol(uint256,uint256,address)": {
        "notice": "Used to collect accumulated protocol fees."
      },
      "deposit(uint256,uint256,uint256,uint256,address)": {
        "notice": "Deposits tokens in proportion to the vault's current holdings."
      },
      "emergencyBurn(int24,int24,uint128)": {
        "notice": "Removes liquidity in case of emergency."
      },
      "getBalance0()": {
        "notice": "Balance of token0 in vault not used in any position."
      },
      "getBalance1()": {
        "notice": "Balance of token1 in vault not used in any position."
      },
      "getPositionAmounts(int24,int24)": {
        "notice": "Amounts of token0 and token1 held in vault's position. Includes owed fees but excludes the proportion of fees that will be paid to the protocol. Doesn't include fees accrued since last poke."
      },
      "getTotalAmounts()": {
        "notice": "Calculates the vault's total holdings of token0 and token1 - in other words, how much of each token the vault would hold if it withdrew all its liquidity from Uniswap."
      },
      "rebalance()": {
        "notice": "Updates vault's positions."
      },
      "setManager(address)": {
        "notice": "Manager address is not updated until the new manager address has called `acceptManager()` to accept this responsibility."
      },
      "setMaxTotalSupply(uint256)": {
        "notice": "Used to change deposit cap for a guarded launch or to ensure vault doesn't grow too large relative to the pool. Cap is on total supply rather than amounts of token0 and token1 as those amounts fluctuate naturally over time."
      },
      "sweep(address,uint256,address)": {
        "notice": "Removes tokens accidentally sent to this vault."
      },
      "withdraw(uint256,uint256,uint256,address)": {
        "notice": "Withdraws tokens in proportion to the vault's holdings."
      }
    },
    "notice": "A vault that provides liquidity on Uniswap V3.",
    "version": 1
  },
  "storageLayout": {
    "storage": [
      {
        "astId": 361,
        "contract": "contracts/AlphaProVault.sol:AlphaProVault",
        "label": "_initialized",
        "offset": 0,
        "slot": "0",
        "type": "t_bool"
      },
      {
        "astId": 364,
        "contract": "contracts/AlphaProVault.sol:AlphaProVault",
        "label": "_initializing",
        "offset": 1,
        "slot": "0",
        "type": "t_bool"
      },
      {
        "astId": 1529,
        "contract": "contracts/AlphaProVault.sol:AlphaProVault",
        "label": "__gap",
        "offset": 0,
        "slot": "1",
        "type": "t_array(t_uint256)50_storage"
      },
      {
        "astId": 440,
        "contract": "contracts/AlphaProVault.sol:AlphaProVault",
        "label": "_balances",
        "offset": 0,
        "slot": "51",
        "type": "t_mapping(t_address,t_uint256)"
      },
      {
        "astId": 446,
        "contract": "contracts/AlphaProVault.sol:AlphaProVault",
        "label": "_allowances",
        "offset": 0,
        "slot": "52",
        "type": "t_mapping(t_address,t_mapping(t_address,t_uint256))"
      },
      {
        "astId": 448,
        "contract": "contracts/AlphaProVault.sol:AlphaProVault",
        "label": "_totalSupply",
        "offset": 0,
        "slot": "53",
        "type": "t_uint256"
      },
      {
        "astId": 450,
        "contract": "contracts/AlphaProVault.sol:AlphaProVault",
        "label": "_name",
        "offset": 0,
        "slot": "54",
        "type": "t_string_storage"
      },
      {
        "astId": 452,
        "contract": "contracts/AlphaProVault.sol:AlphaProVault",
        "label": "_symbol",
        "offset": 0,
        "slot": "55",
        "type": "t_string_storage"
      },
      {
        "astId": 454,
        "contract": "contracts/AlphaProVault.sol:AlphaProVault",
        "label": "_decimals",
        "offset": 0,
        "slot": "56",
        "type": "t_uint8"
      },
      {
        "astId": 949,
        "contract": "contracts/AlphaProVault.sol:AlphaProVault",
        "label": "__gap",
        "offset": 0,
        "slot": "57",
        "type": "t_array(t_uint256)44_storage"
      },
      {
        "astId": 1544,
        "contract": "contracts/AlphaProVault.sol:AlphaProVault",
        "label": "_status",
        "offset": 0,
        "slot": "101",
        "type": "t_uint256"
      },
      {
        "astId": 1587,
        "contract": "contracts/AlphaProVault.sol:AlphaProVault",
        "label": "__gap",
        "offset": 0,
        "slot": "102",
        "type": "t_array(t_uint256)49_storage"
      },
      {
        "astId": 3312,
        "contract": "contracts/AlphaProVault.sol:AlphaProVault",
        "label": "pool",
        "offset": 0,
        "slot": "151",
        "type": "t_contract(IUniswapV3Pool)1693"
      },
      {
        "astId": 3314,
        "contract": "contracts/AlphaProVault.sol:AlphaProVault",
        "label": "token0",
        "offset": 0,
        "slot": "152",
        "type": "t_contract(IERC20Upgradeable)1028"
      },
      {
        "astId": 3316,
        "contract": "contracts/AlphaProVault.sol:AlphaProVault",
        "label": "token1",
        "offset": 0,
        "slot": "153",
        "type": "t_contract(IERC20Upgradeable)1028"
      },
      {
        "astId": 3318,
        "contract": "contracts/AlphaProVault.sol:AlphaProVault",
        "label": "tickSpacing",
        "offset": 20,
        "slot": "153",
        "type": "t_int24"
      },
      {
        "astId": 3320,
        "contract": "contracts/AlphaProVault.sol:AlphaProVault",
        "label": "factory",
        "offset": 0,
        "slot": "154",
        "type": "t_contract(AlphaProVaultFactory)5785"
      },
      {
        "astId": 3322,
        "contract": "contracts/AlphaProVault.sol:AlphaProVault",
        "label": "manager",
        "offset": 0,
        "slot": "155",
        "type": "t_address"
      },
      {
        "astId": 3324,
        "contract": "contracts/AlphaProVault.sol:AlphaProVault",
        "label": "pendingManager",
        "offset": 0,
        "slot": "156",
        "type": "t_address"
      },
      {
        "astId": 3326,
        "contract": "contracts/AlphaProVault.sol:AlphaProVault",
        "label": "maxTotalSupply",
        "offset": 0,
        "slot": "157",
        "type": "t_uint256"
      },
      {
        "astId": 3328,
        "contract": "contracts/AlphaProVault.sol:AlphaProVault",
        "label": "protocolFee",
        "offset": 0,
        "slot": "158",
        "type": "t_uint256"
      },
      {
        "astId": 3330,
        "contract": "contracts/AlphaProVault.sol:AlphaProVault",
        "label": "baseThreshold",
        "offset": 0,
        "slot": "159",
        "type": "t_int24"
      },
      {
        "astId": 3332,
        "contract": "contracts/AlphaProVault.sol:AlphaProVault",
        "label": "limitThreshold",
        "offset": 3,
        "slot": "159",
        "type": "t_int24"
      },
      {
        "astId": 3334,
        "contract": "contracts/AlphaProVault.sol:AlphaProVault",
        "label": "fullRangeWeight",
        "offset": 0,
        "slot": "160",
        "type": "t_uint256"
      },
      {
        "astId": 3336,
        "contract": "contracts/AlphaProVault.sol:AlphaProVault",
        "label": "period",
        "offset": 0,
        "slot": "161",
        "type": "t_uint256"
      },
      {
        "astId": 3338,
        "contract": "contracts/AlphaProVault.sol:AlphaProVault",
        "label": "minTickMove",
        "offset": 0,
        "slot": "162",
        "type": "t_int24"
      },
      {
        "astId": 3340,
        "contract": "contracts/AlphaProVault.sol:AlphaProVault",
        "label": "maxTwapDeviation",
        "offset": 3,
        "slot": "162",
        "type": "t_int24"
      },
      {
        "astId": 3342,
        "contract": "contracts/AlphaProVault.sol:AlphaProVault",
        "label": "twapDuration",
        "offset": 6,
        "slot": "162",
        "type": "t_uint32"
      },
      {
        "astId": 3344,
        "contract": "contracts/AlphaProVault.sol:AlphaProVault",
        "label": "fullLower",
        "offset": 10,
        "slot": "162",
        "type": "t_int24"
      },
      {
        "astId": 3346,
        "contract": "contracts/AlphaProVault.sol:AlphaProVault",
        "label": "fullUpper",
        "offset": 13,
        "slot": "162",
        "type": "t_int24"
      },
      {
        "astId": 3348,
        "contract": "contracts/AlphaProVault.sol:AlphaProVault",
        "label": "baseLower",
        "offset": 16,
        "slot": "162",
        "type": "t_int24"
      },
      {
        "astId": 3350,
        "contract": "contracts/AlphaProVault.sol:AlphaProVault",
        "label": "baseUpper",
        "offset": 19,
        "slot": "162",
        "type": "t_int24"
      },
      {
        "astId": 3352,
        "contract": "contracts/AlphaProVault.sol:AlphaProVault",
        "label": "limitLower",
        "offset": 22,
        "slot": "162",
        "type": "t_int24"
      },
      {
        "astId": 3354,
        "contract": "contracts/AlphaProVault.sol:AlphaProVault",
        "label": "limitUpper",
        "offset": 25,
        "slot": "162",
        "type": "t_int24"
      },
      {
        "astId": 3356,
        "contract": "contracts/AlphaProVault.sol:AlphaProVault",
        "label": "accruedProtocolFees0",
        "offset": 0,
        "slot": "163",
        "type": "t_uint256"
      },
      {
        "astId": 3358,
        "contract": "contracts/AlphaProVault.sol:AlphaProVault",
        "label": "accruedProtocolFees1",
        "offset": 0,
        "slot": "164",
        "type": "t_uint256"
      },
      {
        "astId": 3360,
        "contract": "contracts/AlphaProVault.sol:AlphaProVault",
        "label": "lastTimestamp",
        "offset": 0,
        "slot": "165",
        "type": "t_uint256"
      },
      {
        "astId": 3362,
        "contract": "contracts/AlphaProVault.sol:AlphaProVault",
        "label": "lastTick",
        "offset": 0,
        "slot": "166",
        "type": "t_int24"
      }
    ],
    "types": {
      "t_address": {
        "encoding": "inplace",
        "label": "address",
        "numberOfBytes": "20"
      },
      "t_array(t_uint256)44_storage": {
        "base": "t_uint256",
        "encoding": "inplace",
        "label": "uint256[44]",
        "numberOfBytes": "1408"
      },
      "t_array(t_uint256)49_storage": {
        "base": "t_uint256",
        "encoding": "inplace",
        "label": "uint256[49]",
        "numberOfBytes": "1568"
      },
      "t_array(t_uint256)50_storage": {
        "base": "t_uint256",
        "encoding": "inplace",
        "label": "uint256[50]",
        "numberOfBytes": "1600"
      },
      "t_bool": {
        "encoding": "inplace",
        "label": "bool",
        "numberOfBytes": "1"
      },
      "t_contract(AlphaProVaultFactory)5785": {
        "encoding": "inplace",
        "label": "contract AlphaProVaultFactory",
        "numberOfBytes": "20"
      },
      "t_contract(IERC20Upgradeable)1028": {
        "encoding": "inplace",
        "label": "contract IERC20Upgradeable",
        "numberOfBytes": "20"
      },
      "t_contract(IUniswapV3Pool)1693": {
        "encoding": "inplace",
        "label": "contract IUniswapV3Pool",
        "numberOfBytes": "20"
      },
      "t_int24": {
        "encoding": "inplace",
        "label": "int24",
        "numberOfBytes": "3"
      },
      "t_mapping(t_address,t_mapping(t_address,t_uint256))": {
        "encoding": "mapping",
        "key": "t_address",
        "label": "mapping(address => mapping(address => uint256))",
        "numberOfBytes": "32",
        "value": "t_mapping(t_address,t_uint256)"
      },
      "t_mapping(t_address,t_uint256)": {
        "encoding": "mapping",
        "key": "t_address",
        "label": "mapping(address => uint256)",
        "numberOfBytes": "32",
        "value": "t_uint256"
      },
      "t_string_storage": {
        "encoding": "bytes",
        "label": "string",
        "numberOfBytes": "32"
      },
      "t_uint256": {
        "encoding": "inplace",
        "label": "uint256",
        "numberOfBytes": "32"
      },
      "t_uint32": {
        "encoding": "inplace",
        "label": "uint32",
        "numberOfBytes": "4"
      },
      "t_uint8": {
        "encoding": "inplace",
        "label": "uint8",
        "numberOfBytes": "1"
      }
    }
  }
}